{
  "_format": "hh-sol-artifact-1",
  "contractName": "FundingPool",
  "sourceName": "contracts/FundingPool.sol",
  "abi": [
    {
      "inputs": [
        {
          "internalType": "address",
          "name": "_daoTreasury",
          "type": "address"
        }
      ],
      "stateMutability": "nonpayable",
      "type": "constructor"
    },
    {
      "inputs": [],
      "name": "AccessControlBadConfirmation",
      "type": "error"
    },
    {
      "inputs": [
        {
          "internalType": "address",
          "name": "account",
          "type": "address"
        },
        {
          "internalType": "bytes32",
          "name": "neededRole",
          "type": "bytes32"
        }
      ],
      "name": "AccessControlUnauthorizedAccount",
      "type": "error"
    },
    {
      "inputs": [
        {
          "internalType": "address",
          "name": "owner",
          "type": "address"
        }
      ],
      "name": "OwnableInvalidOwner",
      "type": "error"
    },
    {
      "inputs": [
        {
          "internalType": "address",
          "name": "account",
          "type": "address"
        }
      ],
      "name": "OwnableUnauthorizedAccount",
      "type": "error"
    },
    {
      "inputs": [],
      "name": "ReentrancyGuardReentrantCall",
      "type": "error"
    },
    {
      "anonymous": false,
      "inputs": [
        {
          "indexed": true,
          "internalType": "uint256",
          "name": "campaignId",
          "type": "uint256"
        },
        {
          "indexed": false,
          "internalType": "address",
          "name": "admin",
          "type": "address"
        }
      ],
      "name": "AutoRejectionOverridden",
      "type": "event"
    },
    {
      "anonymous": false,
      "inputs": [
        {
          "indexed": true,
          "internalType": "uint256",
          "name": "campaignId",
          "type": "uint256"
        },
        {
          "indexed": true,
          "internalType": "address",
          "name": "creator",
          "type": "address"
        },
        {
          "indexed": false,
          "internalType": "string",
          "name": "name",
          "type": "string"
        },
        {
          "indexed": false,
          "internalType": "uint256",
          "name": "fundingGoal",
          "type": "uint256"
        },
        {
          "indexed": false,
          "internalType": "string",
          "name": "projectCID",
          "type": "string"
        },
        {
          "indexed": false,
          "internalType": "string",
          "name": "heroMediaCID",
          "type": "string"
        },
        {
          "indexed": false,
          "internalType": "string",
          "name": "description",
          "type": "string"
        },
        {
          "indexed": false,
          "internalType": "uint256",
          "name": "createdAt",
          "type": "uint256"
        }
      ],
      "name": "CampaignCreated",
      "type": "event"
    },
    {
      "anonymous": false,
      "inputs": [
        {
          "indexed": true,
          "internalType": "uint256",
          "name": "campaignId",
          "type": "uint256"
        },
        {
          "indexed": false,
          "internalType": "enum FundingPool.Status",
          "name": "status",
          "type": "uint8"
        }
      ],
      "name": "CampaignStatusUpdated",
      "type": "event"
    },
    {
      "anonymous": false,
      "inputs": [
        {
          "indexed": true,
          "internalType": "uint256",
          "name": "campaignId",
          "type": "uint256"
        },
        {
          "indexed": true,
          "internalType": "address",
          "name": "creator",
          "type": "address"
        },
        {
          "indexed": false,
          "internalType": "bool",
          "name": "allowed",
          "type": "bool"
        }
      ],
      "name": "EmergencyWithdrawalOverride",
      "type": "event"
    },
    {
      "anonymous": false,
      "inputs": [
        {
          "indexed": true,
          "internalType": "uint256",
          "name": "campaignId",
          "type": "uint256"
        },
        {
          "indexed": true,
          "internalType": "address",
          "name": "creator",
          "type": "address"
        },
        {
          "indexed": false,
          "internalType": "uint256",
          "name": "amount",
          "type": "uint256"
        },
        {
          "indexed": false,
          "internalType": "uint256",
          "name": "treasuryFee",
          "type": "uint256"
        },
        {
          "indexed": false,
          "internalType": "uint256",
          "name": "ownerFee",
          "type": "uint256"
        },
        {
          "indexed": false,
          "internalType": "bool",
          "name": "isCrowdfunded",
          "type": "bool"
        }
      ],
      "name": "FundsWithdrawn",
      "type": "event"
    },
    {
      "anonymous": false,
      "inputs": [
        {
          "indexed": true,
          "internalType": "address",
          "name": "user",
          "type": "address"
        },
        {
          "indexed": false,
          "internalType": "bool",
          "name": "verified",
          "type": "bool"
        }
      ],
      "name": "KYCStatusUpdated",
      "type": "event"
    },
    {
      "anonymous": false,
      "inputs": [
        {
          "indexed": true,
          "internalType": "uint256",
          "name": "campaignId",
          "type": "uint256"
        },
        {
          "indexed": false,
          "internalType": "string",
          "name": "description",
          "type": "string"
        },
        {
          "indexed": false,
          "internalType": "uint256",
          "name": "amount",
          "type": "uint256"
        }
      ],
      "name": "MilestoneAdded",
      "type": "event"
    },
    {
      "anonymous": false,
      "inputs": [
        {
          "indexed": true,
          "internalType": "uint256",
          "name": "campaignId",
          "type": "uint256"
        },
        {
          "indexed": false,
          "internalType": "uint256",
          "name": "milestoneId",
          "type": "uint256"
        },
        {
          "indexed": false,
          "internalType": "uint256",
          "name": "completedAt",
          "type": "uint256"
        }
      ],
      "name": "MilestoneCompleted",
      "type": "event"
    },
    {
      "anonymous": false,
      "inputs": [
        {
          "indexed": true,
          "internalType": "uint256",
          "name": "campaignId",
          "type": "uint256"
        },
        {
          "indexed": false,
          "internalType": "uint256",
          "name": "milestoneId",
          "type": "uint256"
        },
        {
          "indexed": false,
          "internalType": "string",
          "name": "proofCID",
          "type": "string"
        }
      ],
      "name": "MilestoneProofSubmitted",
      "type": "event"
    },
    {
      "anonymous": false,
      "inputs": [
        {
          "indexed": true,
          "internalType": "uint256",
          "name": "campaignId",
          "type": "uint256"
        },
        {
          "indexed": false,
          "internalType": "uint256",
          "name": "milestoneId",
          "type": "uint256"
        },
        {
          "indexed": false,
          "internalType": "uint256",
          "name": "rejectedAt",
          "type": "uint256"
        }
      ],
      "name": "MilestoneRejected",
      "type": "event"
    },
    {
      "anonymous": false,
      "inputs": [
        {
          "indexed": true,
          "internalType": "address",
          "name": "owner",
          "type": "address"
        },
        {
          "indexed": false,
          "internalType": "uint256",
          "name": "amount",
          "type": "uint256"
        }
      ],
      "name": "OwnerWithdrawal",
      "type": "event"
    },
    {
      "anonymous": false,
      "inputs": [
        {
          "indexed": true,
          "internalType": "address",
          "name": "previousOwner",
          "type": "address"
        },
        {
          "indexed": true,
          "internalType": "address",
          "name": "newOwner",
          "type": "address"
        }
      ],
      "name": "OwnershipTransferred",
      "type": "event"
    },
    {
      "anonymous": false,
      "inputs": [
        {
          "indexed": true,
          "internalType": "uint256",
          "name": "campaignId",
          "type": "uint256"
        },
        {
          "indexed": true,
          "internalType": "address",
          "name": "funder",
          "type": "address"
        },
        {
          "indexed": false,
          "internalType": "uint256",
          "name": "amount",
          "type": "uint256"
        },
        {
          "indexed": false,
          "internalType": "uint256",
          "name": "treasuryFee",
          "type": "uint256"
        },
        {
          "indexed": false,
          "internalType": "uint256",
          "name": "ownerFee",
          "type": "uint256"
        },
        {
          "indexed": false,
          "internalType": "uint256",
          "name": "timestamp",
          "type": "uint256"
        },
        {
          "indexed": false,
          "internalType": "bool",
          "name": "isTreasuryGrant",
          "type": "bool"
        }
      ],
      "name": "ProjectFunded",
      "type": "event"
    },
    {
      "anonymous": false,
      "inputs": [
        {
          "indexed": false,
          "internalType": "uint256",
          "name": "newLimit",
          "type": "uint256"
        },
        {
          "indexed": false,
          "internalType": "uint256",
          "name": "timestamp",
          "type": "uint256"
        }
      ],
      "name": "QuarterlyLimitUpdated",
      "type": "event"
    },
    {
      "anonymous": false,
      "inputs": [
        {
          "indexed": true,
          "internalType": "bytes32",
          "name": "role",
          "type": "bytes32"
        },
        {
          "indexed": true,
          "internalType": "bytes32",
          "name": "previousAdminRole",
          "type": "bytes32"
        },
        {
          "indexed": true,
          "internalType": "bytes32",
          "name": "newAdminRole",
          "type": "bytes32"
        }
      ],
      "name": "RoleAdminChanged",
      "type": "event"
    },
    {
      "anonymous": false,
      "inputs": [
        {
          "indexed": true,
          "internalType": "bytes32",
          "name": "role",
          "type": "bytes32"
        },
        {
          "indexed": true,
          "internalType": "address",
          "name": "account",
          "type": "address"
        },
        {
          "indexed": true,
          "internalType": "address",
          "name": "sender",
          "type": "address"
        }
      ],
      "name": "RoleGranted",
      "type": "event"
    },
    {
      "anonymous": false,
      "inputs": [
        {
          "indexed": true,
          "internalType": "bytes32",
          "name": "role",
          "type": "bytes32"
        },
        {
          "indexed": true,
          "internalType": "address",
          "name": "account",
          "type": "address"
        },
        {
          "indexed": true,
          "internalType": "address",
          "name": "sender",
          "type": "address"
        }
      ],
      "name": "RoleRevoked",
      "type": "event"
    },
    {
      "anonymous": false,
      "inputs": [
        {
          "indexed": true,
          "internalType": "address",
          "name": "recipient",
          "type": "address"
        },
        {
          "indexed": false,
          "internalType": "uint256",
          "name": "amount",
          "type": "uint256"
        }
      ],
      "name": "TransferFailed",
      "type": "event"
    },
    {
      "anonymous": false,
      "inputs": [
        {
          "indexed": true,
          "internalType": "uint256",
          "name": "campaignId",
          "type": "uint256"
        },
        {
          "indexed": false,
          "internalType": "uint256",
          "name": "amount",
          "type": "uint256"
        }
      ],
      "name": "TreasuryFundsRefunded",
      "type": "event"
    },
    {
      "anonymous": false,
      "inputs": [
        {
          "indexed": true,
          "internalType": "uint256",
          "name": "campaignId",
          "type": "uint256"
        },
        {
          "indexed": false,
          "internalType": "uint256",
          "name": "amount",
          "type": "uint256"
        }
      ],
      "name": "TreasuryGrantFunded",
      "type": "event"
    },
    {
      "inputs": [],
      "name": "DEFAULT_ADMIN_ROLE",
      "outputs": [
        {
          "internalType": "bytes32",
          "name": "",
          "type": "bytes32"
        }
      ],
      "stateMutability": "view",
      "type": "function"
    },
    {
      "inputs": [],
      "name": "KYC_ADMIN_ROLE",
      "outputs": [
        {
          "internalType": "bytes32",
          "name": "",
          "type": "bytes32"
        }
      ],
      "stateMutability": "view",
      "type": "function"
    },
    {
      "inputs": [],
      "name": "KYC_WITHDRAWAL_THRESHOLD",
      "outputs": [
        {
          "internalType": "uint256",
          "name": "",
          "type": "uint256"
        }
      ],
      "stateMutability": "view",
      "type": "function"
    },
    {
      "inputs": [],
      "name": "VOTER_ROLE",
      "outputs": [
        {
          "internalType": "bytes32",
          "name": "",
          "type": "bytes32"
        }
      ],
      "stateMutability": "view",
      "type": "function"
    },
    {
      "inputs": [
        {
          "internalType": "uint256",
          "name": "_campaignId",
          "type": "uint256"
        },
        {
          "internalType": "string[]",
          "name": "_descriptions",
          "type": "string[]"
        },
        {
          "internalType": "uint256[]",
          "name": "_amounts",
          "type": "uint256[]"
        }
      ],
      "name": "approveCustomMilestones",
      "outputs": [],
      "stateMutability": "nonpayable",
      "type": "function"
    },
    {
      "inputs": [
        {
          "internalType": "uint256",
          "name": "_campaignId",
          "type": "uint256"
        },
        {
          "internalType": "uint256",
          "name": "_milestoneId",
          "type": "uint256"
        }
      ],
      "name": "approveMilestone",
      "outputs": [],
      "stateMutability": "nonpayable",
      "type": "function"
    },
    {
      "inputs": [
        {
          "internalType": "uint256",
          "name": "_campaignId",
          "type": "uint256"
        }
      ],
      "name": "autoRejectUnreviewedTreasuryGrants",
      "outputs": [],
      "stateMutability": "nonpayable",
      "type": "function"
    },
    {
      "inputs": [
        {
          "internalType": "uint256",
          "name": "",
          "type": "uint256"
        },
        {
          "internalType": "uint256",
          "name": "",
          "type": "uint256"
        }
      ],
      "name": "campaignContributors",
      "outputs": [
        {
          "internalType": "address",
          "name": "",
          "type": "address"
        }
      ],
      "stateMutability": "view",
      "type": "function"
    },
    {
      "inputs": [],
      "name": "campaignIds",
      "outputs": [
        {
          "internalType": "uint256",
          "name": "",
          "type": "uint256"
        }
      ],
      "stateMutability": "view",
      "type": "function"
    },
    {
      "inputs": [
        {
          "internalType": "uint256",
          "name": "",
          "type": "uint256"
        }
      ],
      "name": "campaigns",
      "outputs": [
        {
          "internalType": "string",
          "name": "name",
          "type": "string"
        },
        {
          "internalType": "address",
          "name": "creator",
          "type": "address"
        },
        {
          "internalType": "uint256",
          "name": "fundingGoal",
          "type": "uint256"
        },
        {
          "internalType": "uint256",
          "name": "deadline",
          "type": "uint256"
        },
        {
          "internalType": "uint256",
          "name": "amountRaised",
          "type": "uint256"
        },
        {
          "internalType": "uint256",
          "name": "crowdfundedAmount",
          "type": "uint256"
        },
        {
          "internalType": "enum FundingPool.Status",
          "name": "status",
          "type": "uint8"
        },
        {
          "internalType": "enum FundingPool.FundingType",
          "name": "fundingType",
          "type": "uint8"
        },
        {
          "internalType": "uint256",
          "name": "withdrawnAmount",
          "type": "uint256"
        },
        {
          "internalType": "uint256",
          "name": "crowdfundedWithdrawnAmount",
          "type": "uint256"
        },
        {
          "internalType": "string",
          "name": "projectCID",
          "type": "string"
        },
        {
          "internalType": "string",
          "name": "heroMediaCID",
          "type": "string"
        },
        {
          "internalType": "string",
          "name": "description",
          "type": "string"
        },
        {
          "internalType": "uint256",
          "name": "createdAt",
          "type": "uint256"
        },
        {
          "internalType": "uint256",
          "name": "applicationExpiry",
          "type": "uint256"
        }
      ],
      "stateMutability": "view",
      "type": "function"
    },
    {
      "inputs": [
        {
          "internalType": "string",
          "name": "_name",
          "type": "string"
        },
        {
          "internalType": "uint256",
          "name": "_fundingGoal",
          "type": "uint256"
        },
        {
          "internalType": "enum FundingPool.FundingType",
          "name": "_fundingType",
          "type": "uint8"
        },
        {
          "internalType": "string[]",
          "name": "_milestoneDescriptions",
          "type": "string[]"
        },
        {
          "internalType": "uint256[]",
          "name": "_milestoneAmounts",
          "type": "uint256[]"
        },
        {
          "internalType": "string",
          "name": "_projectCID",
          "type": "string"
        },
        {
          "internalType": "string",
          "name": "_heroMediaCID",
          "type": "string"
        },
        {
          "internalType": "string",
          "name": "_description",
          "type": "string"
        }
      ],
      "name": "createCampaign",
      "outputs": [
        {
          "internalType": "uint256",
          "name": "",
          "type": "uint256"
        }
      ],
      "stateMutability": "nonpayable",
      "type": "function"
    },
    {
      "inputs": [],
      "name": "currentQuarterStart",
      "outputs": [
        {
          "internalType": "uint256",
          "name": "",
          "type": "uint256"
        }
      ],
      "stateMutability": "view",
      "type": "function"
    },
    {
      "inputs": [],
      "name": "daoTreasury",
      "outputs": [
        {
          "internalType": "address",
          "name": "",
          "type": "address"
        }
      ],
      "stateMutability": "view",
      "type": "function"
    },
    {
      "inputs": [
        {
          "internalType": "address",
          "name": "",
          "type": "address"
        },
        {
          "internalType": "uint256",
          "name": "",
          "type": "uint256"
        }
      ],
      "name": "emergencyWithdrawalOverrides",
      "outputs": [
        {
          "internalType": "bool",
          "name": "",
          "type": "bool"
        }
      ],
      "stateMutability": "view",
      "type": "function"
    },
    {
      "inputs": [
        {
          "internalType": "address",
          "name": "",
          "type": "address"
        }
      ],
      "name": "failedTransferBalances",
      "outputs": [
        {
          "internalType": "uint256",
          "name": "",
          "type": "uint256"
        }
      ],
      "stateMutability": "view",
      "type": "function"
    },
    {
      "inputs": [
        {
          "internalType": "uint256",
          "name": "_campaignId",
          "type": "uint256"
        }
      ],
      "name": "fundProject",
      "outputs": [],
      "stateMutability": "payable",
      "type": "function"
    },
    {
      "inputs": [],
      "name": "getAvailableTreasuryFunds",
      "outputs": [
        {
          "internalType": "uint256",
          "name": "",
          "type": "uint256"
        }
      ],
      "stateMutability": "view",
      "type": "function"
    },
    {
      "inputs": [
        {
          "internalType": "uint256",
          "name": "_campaignId",
          "type": "uint256"
        }
      ],
      "name": "getCampaignMilestones",
      "outputs": [
        {
          "components": [
            {
              "internalType": "string",
              "name": "description",
              "type": "string"
            },
            {
              "internalType": "uint256",
              "name": "amount",
              "type": "uint256"
            },
            {
              "internalType": "bool",
              "name": "completed",
              "type": "bool"
            },
            {
              "internalType": "uint256",
              "name": "completedAt",
              "type": "uint256"
            },
            {
              "internalType": "string",
              "name": "proofCID",
              "type": "string"
            },
            {
              "internalType": "uint256",
              "name": "rejectedAt",
              "type": "uint256"
            }
          ],
          "internalType": "struct FundingPool.Milestone[]",
          "name": "",
          "type": "tuple[]"
        }
      ],
      "stateMutability": "view",
      "type": "function"
    },
    {
      "inputs": [
        {
          "internalType": "uint256",
          "name": "_campaignId",
          "type": "uint256"
        }
      ],
      "name": "getContributors",
      "outputs": [
        {
          "internalType": "address[]",
          "name": "",
          "type": "address[]"
        }
      ],
      "stateMutability": "view",
      "type": "function"
    },
    {
      "inputs": [
        {
          "internalType": "uint256",
          "name": "_campaignId",
          "type": "uint256"
        }
      ],
      "name": "getCrowdfundedAmount",
      "outputs": [
        {
          "internalType": "uint256",
          "name": "",
          "type": "uint256"
        }
      ],
      "stateMutability": "view",
      "type": "function"
    },
    {
      "inputs": [
        {
          "internalType": "bytes32",
          "name": "role",
          "type": "bytes32"
        }
      ],
      "name": "getRoleAdmin",
      "outputs": [
        {
          "internalType": "bytes32",
          "name": "",
          "type": "bytes32"
        }
      ],
      "stateMutability": "view",
      "type": "function"
    },
    {
      "inputs": [
        {
          "internalType": "uint256",
          "name": "_campaignId",
          "type": "uint256"
        },
        {
          "internalType": "address",
          "name": "_contributor",
          "type": "address"
        }
      ],
      "name": "getUserContribution",
      "outputs": [
        {
          "internalType": "uint256",
          "name": "",
          "type": "uint256"
        }
      ],
      "stateMutability": "view",
      "type": "function"
    },
    {
      "inputs": [
        {
          "internalType": "bytes32",
          "name": "role",
          "type": "bytes32"
        },
        {
          "internalType": "address",
          "name": "account",
          "type": "address"
        }
      ],
      "name": "grantRole",
      "outputs": [],
      "stateMutability": "nonpayable",
      "type": "function"
    },
    {
      "inputs": [
        {
          "internalType": "bytes32",
          "name": "role",
          "type": "bytes32"
        },
        {
          "internalType": "address",
          "name": "account",
          "type": "address"
        }
      ],
      "name": "hasRole",
      "outputs": [
        {
          "internalType": "bool",
          "name": "",
          "type": "bool"
        }
      ],
      "stateMutability": "view",
      "type": "function"
    },
    {
      "inputs": [
        {
          "internalType": "address",
          "name": "",
          "type": "address"
        }
      ],
      "name": "isKYCVerified",
      "outputs": [
        {
          "internalType": "bool",
          "name": "",
          "type": "bool"
        }
      ],
      "stateMutability": "view",
      "type": "function"
    },
    {
      "inputs": [
        {
          "internalType": "uint256",
          "name": "_campaignId",
          "type": "uint256"
        }
      ],
      "name": "overrideAutoRejection",
      "outputs": [],
      "stateMutability": "nonpayable",
      "type": "function"
    },
    {
      "inputs": [],
      "name": "owner",
      "outputs": [
        {
          "internalType": "address",
          "name": "",
          "type": "address"
        }
      ],
      "stateMutability": "view",
      "type": "function"
    },
    {
      "inputs": [
        {
          "internalType": "uint256",
          "name": "_amount",
          "type": "uint256"
        }
      ],
      "name": "ownerWithdraw",
      "outputs": [],
      "stateMutability": "nonpayable",
      "type": "function"
    },
    {
      "inputs": [],
      "name": "quarterlyFundsUsed",
      "outputs": [
        {
          "internalType": "uint256",
          "name": "",
          "type": "uint256"
        }
      ],
      "stateMutability": "view",
      "type": "function"
    },
    {
      "inputs": [],
      "name": "quarterlyTreasuryLimit",
      "outputs": [
        {
          "internalType": "uint256",
          "name": "",
          "type": "uint256"
        }
      ],
      "stateMutability": "view",
      "type": "function"
    },
    {
      "inputs": [
        {
          "internalType": "uint256",
          "name": "_campaignId",
          "type": "uint256"
        }
      ],
      "name": "refundUnspentFunds",
      "outputs": [],
      "stateMutability": "nonpayable",
      "type": "function"
    },
    {
      "inputs": [
        {
          "internalType": "uint256",
          "name": "_campaignId",
          "type": "uint256"
        },
        {
          "internalType": "uint256",
          "name": "_milestoneId",
          "type": "uint256"
        }
      ],
      "name": "rejectMilestone",
      "outputs": [],
      "stateMutability": "nonpayable",
      "type": "function"
    },
    {
      "inputs": [],
      "name": "renounceOwnership",
      "outputs": [],
      "stateMutability": "nonpayable",
      "type": "function"
    },
    {
      "inputs": [
        {
          "internalType": "bytes32",
          "name": "role",
          "type": "bytes32"
        },
        {
          "internalType": "address",
          "name": "callerConfirmation",
          "type": "address"
        }
      ],
      "name": "renounceRole",
      "outputs": [],
      "stateMutability": "nonpayable",
      "type": "function"
    },
    {
      "inputs": [
        {
          "internalType": "bytes32",
          "name": "role",
          "type": "bytes32"
        },
        {
          "internalType": "address",
          "name": "account",
          "type": "address"
        }
      ],
      "name": "revokeRole",
      "outputs": [],
      "stateMutability": "nonpayable",
      "type": "function"
    },
    {
      "inputs": [
        {
          "internalType": "uint256",
          "name": "_campaignId",
          "type": "uint256"
        },
        {
          "internalType": "address",
          "name": "_creator",
          "type": "address"
        },
        {
          "internalType": "bool",
          "name": "_allowed",
          "type": "bool"
        }
      ],
      "name": "setEmergencyWithdrawalOverride",
      "outputs": [],
      "stateMutability": "nonpayable",
      "type": "function"
    },
    {
      "inputs": [
        {
          "internalType": "uint256",
          "name": "_campaignId",
          "type": "uint256"
        },
        {
          "internalType": "uint256",
          "name": "_milestoneId",
          "type": "uint256"
        },
        {
          "internalType": "string",
          "name": "_proofCID",
          "type": "string"
        }
      ],
      "name": "submitMilestoneProof",
      "outputs": [],
      "stateMutability": "nonpayable",
      "type": "function"
    },
    {
      "inputs": [
        {
          "internalType": "bytes4",
          "name": "interfaceId",
          "type": "bytes4"
        }
      ],
      "name": "supportsInterface",
      "outputs": [
        {
          "internalType": "bool",
          "name": "",
          "type": "bool"
        }
      ],
      "stateMutability": "view",
      "type": "function"
    },
    {
      "inputs": [
        {
          "internalType": "address",
          "name": "newOwner",
          "type": "address"
        }
      ],
      "name": "transferOwnership",
      "outputs": [],
      "stateMutability": "nonpayable",
      "type": "function"
    },
    {
      "inputs": [
        {
          "internalType": "address",
          "name": "_user",
          "type": "address"
        },
        {
          "internalType": "bool",
          "name": "_verified",
          "type": "bool"
        }
      ],
      "name": "updateKYCStatus",
      "outputs": [],
      "stateMutability": "nonpayable",
      "type": "function"
    },
    {
      "inputs": [],
      "name": "updateTreasuryLimit",
      "outputs": [],
      "stateMutability": "nonpayable",
      "type": "function"
    },
    {
      "inputs": [
        {
          "internalType": "address",
          "name": "",
          "type": "address"
        },
        {
          "internalType": "uint256",
          "name": "",
          "type": "uint256"
        }
      ],
      "name": "userContributions",
      "outputs": [
        {
          "internalType": "uint256",
          "name": "",
          "type": "uint256"
        }
      ],
      "stateMutability": "view",
      "type": "function"
    },
    {
      "inputs": [
        {
          "internalType": "uint256",
          "name": "_campaignId",
          "type": "uint256"
        }
      ],
      "name": "voteCampaign",
      "outputs": [],
      "stateMutability": "nonpayable",
      "type": "function"
    },
    {
      "inputs": [
        {
          "internalType": "address",
          "name": "_recipient",
          "type": "address"
        }
      ],
      "name": "withdrawFailedTransfers",
      "outputs": [],
      "stateMutability": "nonpayable",
      "type": "function"
    },
    {
      "inputs": [
        {
          "internalType": "uint256",
          "name": "_campaignId",
          "type": "uint256"
        }
      ],
      "name": "withdrawFunds",
      "outputs": [],
      "stateMutability": "nonpayable",
      "type": "function"
    },
    {
      "inputs": [
        {
          "internalType": "uint256",
          "name": "_campaignId",
          "type": "uint256"
        },
        {
          "internalType": "uint256",
          "name": "_milestoneId",
          "type": "uint256"
        }
      ],
      "name": "withdrawMilestoneFunds",
      "outputs": [],
      "stateMutability": "nonpayable",
      "type": "function"
    },
    {
      "stateMutability": "payable",
      "type": "receive"
    }
  ],
  "bytecode": "0x60803461014a57601f613e2e38819003918201601f19168301916001600160401b0383118484101761014f5780849260209460405283398101031261014a57516001600160a01b0381169081900361014a57600160005533156101345760018054336001600160a01b03198216811790925560405191906001600160a01b03167f8be0079c531659141344cd1fd0a4f28419497f9722a3daafe3b4186f6b6457e0600080a381156100f25750600780546001600160a01b0319169190911790556100c833610165565b506100d2336101e1565b50600a4704600855426009556000600a55604051613b54908161027a8239f35b62461bcd60e51b815260206004820152601b60248201527f44414f2054726561737572792063616e6e6f74206265207a65726f00000000006044820152606490fd5b631e4fbdf760e01b600052600060045260246000fd5b600080fd5b634e487b7160e01b600052604160045260246000fd5b6001600160a01b0381166000908152600080516020613e0e833981519152602052604090205460ff166101db576001600160a01b03166000818152600080516020613e0e83398151915260205260408120805460ff19166001179055339190600080516020613dce8339815191528180a4600190565b50600090565b6001600160a01b0381166000908152600080516020613dee833981519152602052604090205460ff166101db576001600160a01b03166000818152600080516020613dee83398151915260205260408120805460ff191660011790553391907f811427a0fa4932aef534bba16bc34e9b7b2d7d2a79c475fca1765f6cc1faebea90600080516020613dce8339815191529080a460019056fe60808060405260043610156100ac575b50361561001b57600080fd5b6001546001600160a01b0316331461002f57005b610037613a4f565b6009546276a700810180911161009657421015610088575b7f1f92cca502dfdcdd42ad90d554b27f8de184feca1dd0b0746029b1b35285bb2b6040600a4704806008558151908152426020820152a1005b426009556000600a5561004f565b634e487b7160e01b600052601160045260246000fd5b60003560e01c90816301ffc9a714612d385750806302d7fd9214612cfd578063095d16b214612b96578063141961bc14612a4f578063155dd5ee1461262b57806320913da51461253b578063248a9ca31461250e5780632855e693146124f05780632c3e63171461244c5780632f2ff15d1461240c57806333f707d11461235657806336568abe14612310578063370560be1461221e5780633abe6bd7146121895780633c1ab00f146120cb5780633fb0d90f14611fc15780635117e33814611f795780635130691b14611f2c57806353df9d7614611e6657806354b7636e14611e275780635f0ede3814611e045780635f7ec46d14611bc85780636c1739ce14611baa5780636c563abe1461187a578063715018a61461181d5780637331fa95146117d557806379022a9f146117ac578063837b2a4d146117895780638da5cb5b1461176057806391d148541461171357806392899236146115825780639f791e5f14611316578063a217fddf146112fa578063a94015c8146112bf578063b19954ca14611228578063bfe2661214611067578063c6b647b914611049578063c966d4021461101a578063d547741f14610fd3578063d59161ab14610fb5578063f21539d514610f9c578063f2fde38b14610f12578063f37beeb414610ed8578063f59b8db314610473578063f91e4b29146103025763ff96de21146102b3573861000f565b346102fd576102c13661303a565b906000526006602052604060002080548210156102fd576020916102e49161307c565b905460405160039290921b1c6001600160a01b03168152f35b600080fd5b346102fd5760203660031901126102fd576004356000526004602052600760406000200180549061033282612dc7565b916103406040519384612da6565b80835260208301809260005260206000206000915b83831061040b57848660405191829160208301906020845251809152604083019060408160051b85010192916000905b82821061039457505050500390f35b919360019193955060208091603f1989820301855287519060a0806103f56103c5855160c0865260c0860190612ff9565b86860151878601526040860151151560408601526060860151606086015260808601518582036080870152612ff9565b9301519101529601920192018594939192610385565b6006602060019260405161041e81612d8b565b61042786612f55565b8152848601548382015260ff600287015416151560408201526003860154606082015261045660048701612f55565b6080820152600586015460a0820152815201920192019190610355565b346102fd576101003660031901126102fd576004356001600160401b0381116102fd576104a4903690600401612df9565b6024356044359160028310156102fd576064356001600160401b0381116102fd576104d3903690600401612e40565b6084356001600160401b0381116102fd576104f2903690600401612ebe565b9360a4356001600160401b0381116102fd57610512903690600401612df9565b9160c4356001600160401b0381116102fd57610532903690600401612df9565b9560e4356001600160401b0381116102fd57610552903690600401612df9565b92600181149060008215610ec657674563918244f400008911610e47575b61058361057b61347e565b8a11156134bd565b84511580610e3e575b15610de7575b6003546000198114610dd3576001018060035581526004602052604081209188516001600160401b038111610dbf576105cb8454612f1b565b601f8111610d8f575b506020601f8211600114610d2d579080610603928591610d22575b508160011b916000199060031b1c19161790565b83555b60018301336bffffffffffffffffffffffff60a01b82541617905589600284015562278d004201804211610afb57600384015560068301805461ffff191660089290921b61ff0016919091179055508551600a8201906001600160401b038111610bc6576106748254612f1b565b601f8111610cf0575b506020601f8211600114610c8a5790806106ac92600091610c7f57508160011b916000199060031b1c19161790565b90555b600b810189516001600160401b038111610bc6576106cd8254612f1b565b601f8111610c4d575b506020601f8211600114610be757908061070592600091610bdc57508160011b916000199060031b1c19161790565b90555b600c810185516001600160401b038111610bc6576107268254612f1b565b601f8111610b89575b506020601f8211600114610b2357908061075e92600091610b1857508160011b916000199060031b1c19161790565b90555b42600d8201556000908215610b0f57621275004201804211610afb57600e90915b01555015610aad57505060035494856000526004602052604060002095601e860296861597878104601e1489171561009657606490049060009860288902908982046028141715610a9957927fbf293db00f4de65b181a066ecc2f8bb81fb7174b517fd8085700e259ad00db1b60a0610a7694610a84979460209d6109ef600760647f9121563d1c77025026a509210d3841be6bcd23ce5b74a5cc226e13e68fa3a0959d9b049301916040519261083884612d8b565b88886080604098895161084b8b82612da6565b60178152602076050726f6f66206f6620436f6e63657074206f72204d565604c1b90820152885260208190890152858a89015285606089015260206108a990988b516108978b82612da6565b88815284820152878d8201528661363e565b8383838c601781519180835282015276050726f6f66206f6620436f6e63657074206f72204d565604c1b6060820152848c820152a261093a8a516108ec81612d8b565b8b516108f88d82612da6565b601881527710995d184bd41c9bdd1bdd1e5c194810dbdb5c1b195d195960421b8b8201528152828a820152878c8201528760608201528b516108978b82612da6565b8951908a825260188b8301527710995d184bd41c9bdd1bdd1e5c194810dbdb5c1b195d195960421b606083015288820152a285519161097883612d8b565b8651610985606082612da6565b602a81527f46696e616c2050726f64756374204c61756e6368656420616e64205075626c698682015269636c7920557361626c6560b01b8882015283528585840152808784015280606084015286516109de8682612da6565b81815260808401528783015261363e565b602a8351938085528401527f46696e616c2050726f64756374204c61756e6368656420616e64205075626c69606084015269636c7920557361626c6560b01b6080840152820152a25b610a68600354988997610a566040519a60c08c5260c08c0190612ff9565b918c8b015289820360408b0152612ff9565b908782036060890152612ff9565b908582036080870152612ff9565b924260a08201528033940390a3604051908152f35b634e487b7160e01b8a52601160045260248afd5b91610a76602097837f9121563d1c77025026a509210d3841be6bcd23ce5b74a5cc226e13e68fa3a09595610a849551610ae8575b5050610a38565b610af4916003546138b9565b8980610ae1565b634e487b7160e01b83526011600452602483fd5b600e8291610782565b90508801518d6105ef565b601f1982169083600052806000209160005b8a828210610b715750509083600194939210610b58575b5050811b019055610761565b89015160001960f88460031b161c191690558c80610b4c565b60018495602093958493015181550194019201610b35565b610bb690836000526020600020601f840160051c81019160208510610bbc575b601f0160051c019061312f565b8b61072f565b9091508190610ba9565b634e487b7160e01b600052604160045260246000fd5b90508c01518d6105ef565b60008381528181209190601f198416908e5b828210610c345750509083600194939210610c1b575b5050811b019055610708565b8d015160001960f88460031b161c191690558c80610c0f565b600184956020939584930151815501940192018e610bf9565b610c7990836000526020600020601f840160051c81019160208510610bbc57601f0160051c019061312f565b8b6106d6565b90508901518d6105ef565b601f1982169083600052806000209160005b8b828210610cd85750509083600194939210610cbf575b5050811b0190556106af565b8a015160001960f88460031b161c191690558c80610cb3565b60018495602093958493015181550194019201610c9c565b610d1c90836000526020600020601f840160051c81019160208510610bbc57601f0160051c019061312f565b8b61067d565b90508b01518e6105ef565b84845280842090601f198316855b8d828210610d775750509083600194939210610d5e575b5050811b018355610606565b8c015160001960f88460031b161c191690558d80610d52565b60018495602093958493015181550194019201610d3b565b610db99085855260208520601f840160051c81019160208510610bbc57601f0160051c019061312f565b8c6105d4565b634e487b7160e01b83526041600452602483fd5b634e487b7160e01b82526011600452602482fd5b60405162461bcd60e51b815260206004820152602960248201527f5472656173757279204772616e74732075736520707265646566696e6564206d604482015268696c6573746f6e657360b81b6064820152608490fd5b5083511561058c565b338152600b60205260ff6040822054166105705760405162461bcd60e51b815260206004820152603860248201527f4b594320766572696669636174696f6e20726571756972656420666f7220547260448201527f656173757279204772616e7473206f76657220352045544800000000000000006064820152608490fd5b610ed385518551146130ed565b610592565b346102fd5760203660031901126102fd576001600160a01b03610ef9613066565b16600052600d6020526020604060002054604051908152f35b346102fd5760203660031901126102fd57610f2b613066565b610f33613a4f565b6001600160a01b03168015610f8657600180546001600160a01b0319811683179091556001600160a01b03167f8be0079c531659141344cd1fd0a4f28419497f9722a3daafe3b4186f6b6457e0600080a3005b631e4fbdf760e01b600052600060045260246000fd5b346102fd5760003660031901126102fd57610037613a4f565b346102fd5760003660031901126102fd576020600a54604051908152f35b346102fd5760403660031901126102fd57611018600435610ff2613050565b9061101361100e82600052600260205260016040600020015490565b6135ed565b613a78565b005b346102fd5760203660031901126102fd5760043560005260046020526020600560406000200154604051908152f35b346102fd5760003660031901126102fd576020600954604051908152f35b346102fd576110753661303a565b9061107e6139a5565b8060005260046020526040600020916110a460018060a01b036001850154163314613195565b60ff600684015460081c16906002821015611212576110c860016110dd93146130aa565b600784016110d881548310613347565b613387565b5060ff600282015416156111cd57600160089101926000845494611102861515613220565b674563918244f400008611611183575b550161111f8382546132fc565b905561113b600080808086335af16111356132cc565b50613309565b6040519182526000602083015260006040830152600060608301527ffd8443316dcaf390c4480028d81568298bb47a1d097857f2f1fbd54b0676334560803393a36001600055005b338252600b60205260ff60408320541680156111a8575b6111a390613263565b611112565b50338252600c602052604082208583526020526111a360ff604084205416905061119a565b60405162461bcd60e51b815260206004820152601760248201527f4d696c6573746f6e65206e6f7420636f6d706c657465640000000000000000006044820152606490fd5b634e487b7160e01b600052602160045260246000fd5b346102fd5760603660031901126102fd57600435611244613050565b9060443591821515908184036102fd577f885a8505418be302bb27e84bcd18370ff6c55e6300a82c065e4abc658c0e5480916112b660209261128461357b565b60018060a01b03169586600052600c8452604060002086600052845260406000209060ff801983541691151516179055565b604051908152a3005b346102fd5760003660031901126102fd5760206040517f72c3eec1760bf69946625c2d4fb8e44e2c806345041960b434674fb9ab3976cf8152f35b346102fd5760003660031901126102fd57602060405160008152f35b346102fd5760603660031901126102fd576024356004356044356001600160401b0381116102fd5761134c903690600401612df9565b816000526004602052604060002061137160018060a01b036001830154163314613195565b60ff600682015460081c16906002821015611212576007859161139960016113a695146130aa565b016110d881548310613347565b506113b860ff600283015416156133a3565b6005810154801590811561156a575b501561152d57600401928151936001600160401b038511610bc6576113ec8154612f1b565b601f81116114fb575b506020601f861160011461147557857faa0da233cbe2f0fc818e5ddb1128d22fcf012df42cd15bbacbfdaac288c0f1df95966114469260009161146a57508160011b916000199060031b1c19161790565b90555b6114656040519283928352604060208401526040830190612ff9565b0390a2005b9050850151886105ef565b601f1986169082600052806000209160005b8181106114e357509187917faa0da233cbe2f0fc818e5ddb1128d22fcf012df42cd15bbacbfdaac288c0f1df9798600194106114ca575b5050811b019055611449565b86015160001960f88460031b161c1916905587806114be565b9192602060018192868a015181550194019201611487565b61152790826000526020600020601f880160051c81019160208910610bbc57601f0160051c019061312f565b856113f5565b60405162461bcd60e51b81526020600482015260156024820152742932b9bab136b4b9b9b4b7b7103a37b79039b7b7b760591b6044820152606490fd5b905062093a80810180911161009657421015856113c7565b346102fd5760203660031901126102fd57600435806000526004602052604060002060ff600682015460081c166002811015611212576115c560018492146130aa565b60009182916007820191835b8354811015611651576115e48185613387565b5060058101548015159081611641575b81611629575b50611609575b506001016115d1565b6000919550600161161e9101968754906132fc565b955560019384611600565b905062093a80810180911161009657421015886115fa565b600283015460ff161591506115f4565b508490848061170a575b61166157005b60086004820191611673848454613213565b809355015561168481600a54613213565b600a5560008080808460018060a01b03600754165af16116a26132cc565b50156116d55760207f65d1bf7fe298dda4759cdbf89b1ef35e330a7d44469b44f8913a712067aeee1f91604051908152a2005b60405162461bcd60e51b815260206004820152600d60248201526c1499599d5b990819985a5b1959609a1b6044820152606490fd5b5081151561165b565b346102fd5760403660031901126102fd5761172c613050565b600435600052600260205260406000209060018060a01b0316600052602052602060ff604060002054166040519015158152f35b346102fd5760003660031901126102fd576001546040516001600160a01b039091168152602090f35b346102fd5760003660031901126102fd576020604051674563918244f400008152f35b346102fd5760003660031901126102fd576007546040516001600160a01b039091168152602090f35b346102fd5760403660031901126102fd576001600160a01b036117f6613066565b16600052600560205260406000206024356000526020526020604060002054604051908152f35b346102fd5760003660031901126102fd57611836613a4f565b600180546001600160a01b031981169091556000906001600160a01b03167f8be0079c531659141344cd1fd0a4f28419497f9722a3daafe3b4186f6b6457e08280a3005b60203660031901126102fd576004356118916139a5565b8060005260046020526040600020906006820160ff81541660038110156112125760016118be91146131cf565b60038301544211611b6557341580611b305760323402348104603203610096576103e890049081159081611b27575b50611b1f575b8060011c9161190c6119058484613213565b9234613213565b9460008080808760018060a01b03600754165af16119286132cc565b5015611ad2575b60008080808660018060a01b03600154165af161194a6132cc565b5015611a85575b60ff825460081c16600281101561121257611a70576004016119748682546132fc565b90555b336000526005602052604060002084600052602052604060002061199c8682546132fc565b90553360005260056020526040600020846000526020528460406000205414611a1d575b5460081c60ff1690600282101561121257600192604051958652602086015260408501524260608501521460808301527f4852e950ec3aedaf09a6ad7e78a1bfaeceaf997176ca098ad13194819a8c4ce560a03393a36001600055005b836000526006602052604060002090815491600160401b831015610bc65782611a4d91600160ff9501815561307c565b81546001600160a01b0360039290921b91821b19163390911b17905590506119c0565b600501611a7e8682546132fc565b9055611977565b60018060a01b0360015416600052600d6020526040600020611aa88482546132fc565b905560018060a01b0360015416600080516020613aff8339815191526020604051868152a2611951565b60018060a01b0360075416600052600d6020526040600020611af58582546132fc565b905560018060a01b0360075416600080516020613aff8339815191526020604051878152a261192f565b5060016118f3565b905015856118ed565b60405162461bcd60e51b815260206004820152600d60248201526c09aeae6e840e6cadcc8408aa89609b1b6044820152606490fd5b60405162461bcd60e51b815260206004820152601760248201527f46756e64696e6720646561646c696e65207061737365640000000000000000006044820152606490fd5b346102fd5760003660031901126102fd576020600354604051908152f35b346102fd5760203660031901126102fd57600435611be4613509565b80600052600460205260406000206006810190815460ff811690600382101561121257611c1360ff92156133ef565b60081c1660028110156112125760011490811591611df6575b5015611da65760ff9060018219825416178155827f1289cf89aaaed53d6590c1b7996ba434edb31dcbd322d0b88ff0c02f64bbdeef602060405160018152a25460081c16600281101561121257600114611c8257005b80600052600460205260406000206009546276a700810180911161009657421015611d61575b600a5460028201611cbb815480936132fc565b60085410611d1c57611d0f8260047f4608424e4f38941a5879b3efe268417eb8b5724e0b5fdbc1e471f4140ebada5a95611cf96020964710156134bd565b01611d058282546132fc565b9055600a546132fc565b600a5554604051908152a2005b60405162461bcd60e51b815260206004820152601760248201527f4578636565647320717561727465726c79206c696d69740000000000000000006044820152606490fd5b426009556000600a557f1f92cca502dfdcdd42ad90d554b27f8de184feca1dd0b0746029b1b35285bb2b6040600a4704806008558151908152426020820152a1611ca8565b60405162461bcd60e51b815260206004820152602260248201527f5472656173757279204772616e74732072657175697265206d696c6573746f6e604482015261657360f01b6064820152608490fd5b600791500154151583611c2c565b346102fd5760003660031901126102fd576020611e1f61347e565b604051908152f35b346102fd5760203660031901126102fd576001600160a01b03611e48613066565b16600052600b602052602060ff604060002054166040519015158152f35b346102fd5760403660031901126102fd57611e7f613066565b60243590811515908183036102fd57611e9661357b565b6001600160a01b0316918215611ef5577f2df1cad2a2659e001c3804c872f69655356013e35c18c2e77a5d568078ab788f91611eec60209285600052600b845260406000209060ff801983541691151516179055565b604051908152a2005b60405162461bcd60e51b815260206004820152600f60248201526e496e76616c6964206164647265737360881b6044820152606490fd5b346102fd5760403660031901126102fd576001600160a01b03611f4d613066565b16600052600c6020526040600020602435600052602052602060ff604060002054166040519015158152f35b346102fd5760403660031901126102fd576001600160a01b03611f9a613050565b16600052600560205260406000206004356000526020526020604060002054604051908152f35b346102fd5760203660031901126102fd57611fda613066565b611fe2613a4f565b611fea6139a5565b6001600160a01b0381166000818152600d6020526040902054909181156120865760008080938193868352600d6020528260408120555af161202a6132cc565b5015612037576001600055005b60405162461bcd60e51b815260206004820152602160248201527f4661696c6564207472616e73666572207769746864726177616c206661696c656044820152601960fa1b6064820152608490fd5b60405162461bcd60e51b815260206004820152601f60248201527f4e6f206661696c6564207472616e736665727320746f207769746864726177006044820152606490fd5b346102fd5760203660031901126102fd57600435600052600660205260406000206040518060208354918281520190819360005260206000209060005b81811061216a575050508161211e910382612da6565b6040519182916020830190602084525180915260408301919060005b818110612148575050500390f35b82516001600160a01b031684528594506020938401939092019160010161213a565b82546001600160a01b0316845260209093019260019283019201612108565b346102fd576121973661303a565b61219f613509565b816000526004602052604060002060ff600682015460081c16916002831015611212576121f881600760409461139960017f99c1e384941f7e42e3f9fe91b348aa32f8105b4e750b515d7e0d41ee8b66b0cc98146130aa565b5061220a60ff600283015416156133a3565b6005429101558151908152426020820152a2005b346102fd5760203660031901126102fd5760043561223a613509565b80600052600460205260406000206006810190815460ff8160081c169060028210156112125761226e600160ff93146130aa565b166003811015611212576002036122d357600e01906122908254421015613432565b60ff1981541690556212750042019081421161009657557f379fb972d68cb215ef30793b39641170d26b4747138827dadc647d7cd7f0c4cf6020604051338152a2005b60405162461bcd60e51b815260206004820152601560248201527410d85b5c185a59db881b9bdd081c995a9958dd1959605a1b6044820152606490fd5b346102fd5760403660031901126102fd57612329613050565b336001600160a01b038216036123455761101890600435613a78565b63334bd91960e11b60005260046000fd5b346102fd5760203660031901126102fd57600435612372613a4f565b61237a6139a5565b4781116123d25761239f60008080808560018060a01b03600154165af16111356132cc565b6040519081527fa919fadcfa556a012bab31b15f596ea7ccd397adbf10e15f176db9055ab361c460203392a26001600055005b60405162461bcd60e51b8152602060048201526012602482015271496e73756666696369656e742066756e647360701b6044820152606490fd5b346102fd5760403660031901126102fd5761101860043561242b613050565b9061244761100e82600052600260205260016040600020015490565b6139c7565b346102fd5760203660031901126102fd5760043580600052600460205260406000206006810190815460ff8160081c1690600282101561121257612494600160ff93146130aa565b166003811015611212576124b8916124ae600e92156133ef565b0154421015613432565b600260ff198254161790557f1289cf89aaaed53d6590c1b7996ba434edb31dcbd322d0b88ff0c02f64bbdeef602060405160028152a2005b346102fd5760003660031901126102fd576020600854604051908152f35b346102fd5760203660031901126102fd576020611e1f600435600052600260205260016040600020015490565b346102fd576125493661303a565b612551613509565b816000526004602052604060002060ff600682015460081c169060028210156112125760078391611399600161258795146130aa565b50600281019182549161259d60ff8416156133a3565b6125aa6004820154612f1b565b156125f1577fd4dbda378623f00b72ef135b4579b7ba064c49645217eb107d663831efac635893600160409460ff19161790556003429101558151908152426020820152a2005b60405162461bcd60e51b8152602060048201526012602482015271139bc81c1c9bdbd9881cdd589b5a5d1d195960721b6044820152606490fd5b346102fd5760203660031901126102fd576004356126476139a5565b80600052600460205260406000209061266d60018060a01b036001840154163314613195565b6006820191825460ff8116600381101561121257600161268d91146131cf565b60081c60ff1660006002821015612a3b575061295d576004810154906126b7600882015483613213565b906000926126c6831515613220565b60028201541180612950575b6128ff575b674563918244f4000082116128af575b6019820291801592818104601914841715610096576103e8900492831590816128a6575b5061289d575b8260011c9160ff61272c6127258587613213565b9584613213565b9760008080808860018060a01b03600754165af16127486132cc565b5015612850575b60008080808960018060a01b03600154165af161276a6132cc565b5015612803575b5460081c166002811015611212576127ed57600861279291019182546132fc565b90555b6127a9600080808089335af16111356132cc565b60405194855260208501526040840152151560608301527ffd8443316dcaf390c4480028d81568298bb47a1d097857f2f1fbd54b0676334560803393a36001600055005b60096127fc91019182546132fc565b9055612795565b60018060a01b0360015416600052600d60205260406000206128268782546132fc565b905560018060a01b0360015416600080516020613aff8339815191526020604051898152a2612771565b60018060a01b0360075416600052600d60205260406000206128738682546132fc565b905560018060a01b0360075416600080516020613aff8339815191526020604051888152a261274f565b60019250612711565b9050158761270b565b33600052600b60205260ff6040600020541680156128d6575b6128d190613263565b6126e7565b5033600052600c6020526040600020846000526020526128d160ff6040600020541690506128c8565b60405162461bcd60e51b8152602060048201526024808201527f476f616c206e6f74206d657420616e6420646561646c696e65206e6f742070616044820152631cdcd95960e21b6064820152608490fd5b50600381015442106126d2565b6129706005820154600983015490613213565b60019181156129f7576004810154600282015411806129ea575b156126d75760405162461bcd60e51b815260206004820152602d60248201527f547265617375727920676f616c206e6f74206d657420616e6420646561646c6960448201526c1b99481b9bdd081c185cdcd959609a1b6064820152608490fd5b506003810154421061298a565b606460405162461bcd60e51b815260206004820152602060248201527f4e6f2063726f776466756e6465642066756e647320746f2077697468647261776044820152fd5b634e487b7160e01b81526021600452602490fd5b346102fd5760203660031901126102fd5760043560005260046020526040600020612a7981612f55565b90600160a01b6001900360018201541690600281015492600382015460048301549060058401549460068501549260ff84169360081c60ff16600887015492600988015495600a8901612acb90612f55565b99612ad8600b8b01612f55565b94612ae5600c8c01612f55565b97600d8c01549b600e01549a6040519e8f916101e083526101e08301612b0a91612ff9565b96602083015260408201526060015260808d015260a08c015260038110156112125760c08b01526002821015611212578998612b8596612b7695612b679460e08d01526101008c01526101208b01528982036101408b0152612ff9565b90878203610160890152612ff9565b90858203610180870152612ff9565b916101a08401526101c08301520390f35b346102fd5760603660031901126102fd576004356024356001600160401b0381116102fd57612bc9903690600401612e40565b6044356001600160401b0381116102fd57612be8903690600401612ebe565b90612bf1613509565b8260005260046020526040600020600681015460ff8160081c1690600282101561121257612c23600160ff93146130aa565b16600381101561121257612cb857600790612c4183518551146130ed565b01928354936000815584612c5b575b5061101893506138b9565b84600602946006860403610096576000526020600020938401935b84811015612c505780612c8a600692613146565b600060018201556000600282015560006003820155612cab60048201613146565b6000600582015501612c76565b60405162461bcd60e51b815260206004820152601860248201527f43616d706169676e206d7573742062652070656e64696e6700000000000000006044820152606490fd5b346102fd5760003660031901126102fd5760206040517f811427a0fa4932aef534bba16bc34e9b7b2d7d2a79c475fca1765f6cc1faebea8152f35b346102fd5760203660031901126102fd576004359063ffffffff60e01b82168092036102fd57602091637965db0b60e01b8114908115612d7a575b5015158152f35b6301ffc9a760e01b14905083612d73565b60c081019081106001600160401b03821117610bc657604052565b90601f801991011681019081106001600160401b03821117610bc657604052565b6001600160401b038111610bc65760051b60200190565b6001600160401b038111610bc657601f01601f191660200190565b81601f820112156102fd57803590612e1082612dde565b92612e1e6040519485612da6565b828452602083830101116102fd57816000926020809301838601378301015290565b9080601f830112156102fd578135612e5781612dc7565b92612e656040519485612da6565b81845260208085019260051b820101918383116102fd5760208201905b838210612e9157505050505090565b81356001600160401b0381116102fd57602091612eb387848094880101612df9565b815201910190612e82565b9080601f830112156102fd578135612ed581612dc7565b92612ee36040519485612da6565b81845260208085019260051b8201019283116102fd57602001905b828210612f0b5750505090565b8135815260209182019101612efe565b90600182811c92168015612f4b575b6020831014612f3557565b634e487b7160e01b600052602260045260246000fd5b91607f1691612f2a565b9060405191826000825492612f6984612f1b565b8084529360018116908115612fd75750600114612f90575b50612f8e92500383612da6565b565b90506000929192526020600020906000915b818310612fbb575050906020612f8e9282010138612f81565b6020919350806001915483858901015201910190918492612fa2565b905060209250612f8e94915060ff191682840152151560051b82010138612f81565b919082519283825260005b848110613025575050826000602080949584010152601f8019910116010190565b80602080928401015182828601015201613004565b60409060031901126102fd576004359060243590565b602435906001600160a01b03821682036102fd57565b600435906001600160a01b03821682036102fd57565b80548210156130945760005260206000200190600090565b634e487b7160e01b600052603260045260246000fd5b156130b157565b60405162461bcd60e51b8152602060048201526014602482015273139bdd0818481d1c99585cdd5c9e4819dc985b9d60621b6044820152606490fd5b156130f457565b60405162461bcd60e51b815260206004820152601360248201527209ad2d8cae6e8dedccae640dad2e6dac2e8c6d606b1b6044820152606490fd5b81811061313a575050565b6000815560010161312f565b6131508154612f1b565b908161315a575050565b81601f6000931160011461316c575055565b8183526020832061318891601f0160051c81019060010161312f565b8082528160208120915555565b1561319c57565b60405162461bcd60e51b815260206004820152600b60248201526a2737ba1031b932b0ba37b960a91b6044820152606490fd5b156131d657565b60405162461bcd60e51b815260206004820152601560248201527410d85b5c185a59db881b9bdd08185c1c1c9bdd9959605a1b6044820152606490fd5b9190820391821161009657565b1561322757565b60405162461bcd60e51b81526020600482015260146024820152734e6f2066756e647320746f20776974686472617760601b6044820152606490fd5b1561326a57565b60405162461bcd60e51b815260206004820152603460248201527f4b5943206f722061646d696e206f7665727269646520726571756972656420666044820152736f72206c61726765207769746864726177616c7360601b6064820152608490fd5b3d156132f7573d906132dd82612dde565b916132eb6040519384612da6565b82523d6000602084013e565b606090565b9190820180921161009657565b1561331057565b60405162461bcd60e51b815260206004820152600f60248201526e15da5d1a191c985dc819985a5b1959608a1b6044820152606490fd5b1561334e57565b60405162461bcd60e51b8152602060048201526011602482015270496e76616c6964206d696c6573746f6e6560781b6044820152606490fd5b8054821015613094576000526006602060002091020190600090565b156133aa57565b60405162461bcd60e51b815260206004820152601b60248201527f4d696c6573746f6e6520616c726561647920636f6d706c6574656400000000006044820152606490fd5b156133f657565b60405162461bcd60e51b815260206004820152601460248201527343616d706169676e206e6f742070656e64696e6760601b6044820152606490fd5b1561343957565b60405162461bcd60e51b815260206004820152601760248201527f4170706c69636174696f6e206e6f7420657870697265640000000000000000006044820152606490fd5b6009546276a7008101809111610096574210156134b657600854600a54808211156134af576134ac91613213565b90565b5050600090565b600a470490565b156134c457565b60405162461bcd60e51b815260206004820152601b60248201527f496e73756666696369656e742074726561737572792066756e647300000000006044820152606490fd5b3360009081527f24e40dff4c4dda37e192be72f4e95b5889db4f90bbee7bdaf11c39383a26943f602052604090205460ff161561354257565b63e2517d3f60e01b600052336004527f72c3eec1760bf69946625c2d4fb8e44e2c806345041960b434674fb9ab3976cf60245260446000fd5b3360009081527fe765195e334466f113e7d3f97c6a49f4713af0d7ee079c3fc318f1c2bd7a31fc602052604090205460ff16156135b457565b63e2517d3f60e01b600052336004527f811427a0fa4932aef534bba16bc34e9b7b2d7d2a79c475fca1765f6cc1faebea60245260446000fd5b600081815260026020908152604080832033845290915290205460ff16156136125750565b63e2517d3f60e01b6000523360045260245260446000fd5b80518210156130945760209160051b010190565b9190918054600160401b811015610bc65761365e91600182018155613387565b6138a35782519283516001600160401b038111610bc65761367f8354612f1b565b601f8111613871575b50602094601f821160011461380c576136bd929394958291600092613762575b50508160011b916000199060031b1c19161790565b82555b602081015160018301556136e960408201511515600284019060ff801983541691151516179055565b606081015160038301556004820160808201518051906001600160401b038211610bc6576137178354612f1b565b601f81116137da575b50602090601f831160011461376d57826005959360a09593613758936000926137625750508160011b916000199060031b1c19161790565b90555b0151910155565b0151905038806136a8565b90601f1983169184600052816000209260005b8181106137c257509260019285926005989660a09896106137a9575b505050811b01905561375b565b015160001960f88460031b161c1916905538808061379c565b92936020600181928786015181550195019301613780565b61380690846000526020600020601f850160051c81019160208610610bbc57601f0160051c019061312f565b38613720565b601f1982169584600052806000209160005b88811061385957508360019596979810613840575b505050811b0182556136c0565b015160001960f88460031b161c19169055388080613833565b9192602060018192868501518155019401920161381e565b61389d90846000526020600020601f840160051c81019160208510610bbc57601f0160051c019061312f565b38613688565b634e487b7160e01b600052600060045260246000fd5b909291928160005260046020526040600020906007600092016020925b825181101561399c578061393f6138ef6001938661362a565b516138fa838b61362a565b516040519161390883612d8b565b82528782015260006040820152600060608201526040516139298882612da6565b600081526080820152600060a08201528461363e565b857fbf293db00f4de65b181a066ecc2f8bb81fb7174b517fd8085700e259ad00db1b61398e61396e848861362a565b51613979858d61362a565b51604051928392604084526040840190612ff9565b908a8301520390a2016138d6565b50505050509050565b6002600054146139b6576002600055565b633ee5aeb560e01b60005260046000fd5b60008181526002602090815260408083206001600160a01b038616845290915290205460ff166134af5760008181526002602090815260408083206001600160a01b0395909516808452949091528120805460ff19166001179055339291907f2f8788117e7eff1d82e926ec794901d17c78024a50270940304540a733656f0d9080a4600190565b6001546001600160a01b03163303613a6357565b63118cdaa760e01b6000523360045260246000fd5b60008181526002602090815260408083206001600160a01b038616845290915290205460ff16156134af5760008181526002602090815260408083206001600160a01b0395909516808452949091528120805460ff19169055339291907ff6391f5c32d9c69d2a47ea670b442974b53935d1edc7fd64eb21e047a839171b9080a460019056fe1c43b9761b3fba5321ca8212bfc231945f668ccc0c446f333999eea9ce8fda81a26469706673582212200403342727fc54c04898308c8de5637f8f97bff7d2a55c2c83a71919f47a512364736f6c634300081c00332f8788117e7eff1d82e926ec794901d17c78024a50270940304540a733656f0de765195e334466f113e7d3f97c6a49f4713af0d7ee079c3fc318f1c2bd7a31fcac33ff75c19e70fe83507db0d683fd3465c996598dc972688b7ace676c89077b",
  "linkReferences": {},
  "deployedLinkReferences": {}
}