{"contracts/FundingPool.sol":{"FundingPool":{"abi":[{"inputs":[{"internalType":"address","name":"_daoTreasury","type":"address"}],"stateMutability":"nonpayable","type":"constructor"},{"inputs":[],"name":"AccessControlBadConfirmation","type":"error"},{"inputs":[{"internalType":"address","name":"account","type":"address"},{"internalType":"bytes32","name":"neededRole","type":"bytes32"}],"name":"AccessControlUnauthorizedAccount","type":"error"},{"inputs":[{"internalType":"address","name":"owner","type":"address"}],"name":"OwnableInvalidOwner","type":"error"},{"inputs":[{"internalType":"address","name":"account","type":"address"}],"name":"OwnableUnauthorizedAccount","type":"error"},{"inputs":[],"name":"ReentrancyGuardReentrantCall","type":"error"},{"anonymous":false,"inputs":[{"indexed":true,"internalType":"uint256","name":"campaignId","type":"uint256"},{"indexed":false,"internalType":"address","name":"admin","type":"address"}],"name":"AutoRejectionOverridden","type":"event"},{"anonymous":false,"inputs":[{"indexed":true,"internalType":"uint256","name":"campaignId","type":"uint256"},{"indexed":true,"internalType":"address","name":"creator","type":"address"},{"indexed":false,"internalType":"string","name":"name","type":"string"},{"indexed":false,"internalType":"uint256","name":"fundingGoal","type":"uint256"},{"indexed":false,"internalType":"string","name":"projectCID","type":"string"},{"indexed":false,"internalType":"string","name":"heroMediaCID","type":"string"},{"indexed":false,"internalType":"string","name":"description","type":"string"},{"indexed":false,"internalType":"uint256","name":"createdAt","type":"uint256"}],"name":"CampaignCreated","type":"event"},{"anonymous":false,"inputs":[{"indexed":true,"internalType":"uint256","name":"campaignId","type":"uint256"},{"indexed":false,"internalType":"enum FundingPool.Status","name":"status","type":"uint8"}],"name":"CampaignStatusUpdated","type":"event"},{"anonymous":false,"inputs":[{"indexed":true,"internalType":"uint256","name":"campaignId","type":"uint256"},{"indexed":true,"internalType":"address","name":"creator","type":"address"},{"indexed":false,"internalType":"bool","name":"allowed","type":"bool"}],"name":"EmergencyWithdrawalOverride","type":"event"},{"anonymous":false,"inputs":[{"indexed":true,"internalType":"uint256","name":"campaignId","type":"uint256"},{"indexed":true,"internalType":"address","name":"creator","type":"address"},{"indexed":false,"internalType":"uint256","name":"amount","type":"uint256"},{"indexed":false,"internalType":"uint256","name":"treasuryFee","type":"uint256"},{"indexed":false,"internalType":"uint256","name":"ownerFee","type":"uint256"},{"indexed":false,"internalType":"bool","name":"isCrowdfunded","type":"bool"}],"name":"FundsWithdrawn","type":"event"},{"anonymous":false,"inputs":[{"indexed":true,"internalType":"address","name":"user","type":"address"},{"indexed":false,"internalType":"bool","name":"verified","type":"bool"}],"name":"KYCStatusUpdated","type":"event"},{"anonymous":false,"inputs":[{"indexed":true,"internalType":"uint256","name":"campaignId","type":"uint256"},{"indexed":false,"internalType":"string","name":"description","type":"string"},{"indexed":false,"internalType":"uint256","name":"amount","type":"uint256"}],"name":"MilestoneAdded","type":"event"},{"anonymous":false,"inputs":[{"indexed":true,"internalType":"uint256","name":"campaignId","type":"uint256"},{"indexed":false,"internalType":"uint256","name":"milestoneId","type":"uint256"},{"indexed":false,"internalType":"uint256","name":"completedAt","type":"uint256"}],"name":"MilestoneCompleted","type":"event"},{"anonymous":false,"inputs":[{"indexed":true,"internalType":"uint256","name":"campaignId","type":"uint256"},{"indexed":false,"internalType":"uint256","name":"milestoneId","type":"uint256"},{"indexed":false,"internalType":"string","name":"proofCID","type":"string"}],"name":"MilestoneProofSubmitted","type":"event"},{"anonymous":false,"inputs":[{"indexed":true,"internalType":"uint256","name":"campaignId","type":"uint256"},{"indexed":false,"internalType":"uint256","name":"milestoneId","type":"uint256"},{"indexed":false,"internalType":"uint256","name":"rejectedAt","type":"uint256"}],"name":"MilestoneRejected","type":"event"},{"anonymous":false,"inputs":[{"indexed":true,"internalType":"address","name":"owner","type":"address"},{"indexed":false,"internalType":"uint256","name":"amount","type":"uint256"}],"name":"OwnerWithdrawal","type":"event"},{"anonymous":false,"inputs":[{"indexed":true,"internalType":"address","name":"previousOwner","type":"address"},{"indexed":true,"internalType":"address","name":"newOwner","type":"address"}],"name":"OwnershipTransferred","type":"event"},{"anonymous":false,"inputs":[{"indexed":true,"internalType":"uint256","name":"campaignId","type":"uint256"},{"indexed":true,"internalType":"address","name":"funder","type":"address"},{"indexed":false,"internalType":"uint256","name":"amount","type":"uint256"},{"indexed":false,"internalType":"uint256","name":"treasuryFee","type":"uint256"},{"indexed":false,"internalType":"uint256","name":"ownerFee","type":"uint256"},{"indexed":false,"internalType":"uint256","name":"timestamp","type":"uint256"},{"indexed":false,"internalType":"bool","name":"isTreasuryGrant","type":"bool"}],"name":"ProjectFunded","type":"event"},{"anonymous":false,"inputs":[{"indexed":false,"internalType":"uint256","name":"newLimit","type":"uint256"},{"indexed":false,"internalType":"uint256","name":"timestamp","type":"uint256"}],"name":"QuarterlyLimitUpdated","type":"event"},{"anonymous":false,"inputs":[{"indexed":true,"internalType":"bytes32","name":"role","type":"bytes32"},{"indexed":true,"internalType":"bytes32","name":"previousAdminRole","type":"bytes32"},{"indexed":true,"internalType":"bytes32","name":"newAdminRole","type":"bytes32"}],"name":"RoleAdminChanged","type":"event"},{"anonymous":false,"inputs":[{"indexed":true,"internalType":"bytes32","name":"role","type":"bytes32"},{"indexed":true,"internalType":"address","name":"account","type":"address"},{"indexed":true,"internalType":"address","name":"sender","type":"address"}],"name":"RoleGranted","type":"event"},{"anonymous":false,"inputs":[{"indexed":true,"internalType":"bytes32","name":"role","type":"bytes32"},{"indexed":true,"internalType":"address","name":"account","type":"address"},{"indexed":true,"internalType":"address","name":"sender","type":"address"}],"name":"RoleRevoked","type":"event"},{"anonymous":false,"inputs":[{"indexed":true,"internalType":"address","name":"recipient","type":"address"},{"indexed":false,"internalType":"uint256","name":"amount","type":"uint256"}],"name":"TransferFailed","type":"event"},{"anonymous":false,"inputs":[{"indexed":true,"internalType":"uint256","name":"campaignId","type":"uint256"},{"indexed":false,"internalType":"uint256","name":"amount","type":"uint256"}],"name":"TreasuryFundsRefunded","type":"event"},{"anonymous":false,"inputs":[{"indexed":true,"internalType":"uint256","name":"campaignId","type":"uint256"},{"indexed":false,"internalType":"uint256","name":"amount","type":"uint256"}],"name":"TreasuryGrantFunded","type":"event"},{"inputs":[],"name":"DEFAULT_ADMIN_ROLE","outputs":[{"internalType":"bytes32","name":"","type":"bytes32"}],"stateMutability":"view","type":"function"},{"inputs":[],"name":"KYC_ADMIN_ROLE","outputs":[{"internalType":"bytes32","name":"","type":"bytes32"}],"stateMutability":"view","type":"function"},{"inputs":[],"name":"KYC_WITHDRAWAL_THRESHOLD","outputs":[{"internalType":"uint256","name":"","type":"uint256"}],"stateMutability":"view","type":"function"},{"inputs":[],"name":"VOTER_ROLE","outputs":[{"internalType":"bytes32","name":"","type":"bytes32"}],"stateMutability":"view","type":"function"},{"inputs":[{"internalType":"uint256","name":"_campaignId","type":"uint256"},{"internalType":"string[]","name":"_descriptions","type":"string[]"},{"internalType":"uint256[]","name":"_amounts","type":"uint256[]"}],"name":"approveCustomMilestones","outputs":[],"stateMutability":"nonpayable","type":"function"},{"inputs":[{"internalType":"uint256","name":"_campaignId","type":"uint256"},{"internalType":"uint256","name":"_milestoneId","type":"uint256"}],"name":"approveMilestone","outputs":[],"stateMutability":"nonpayable","type":"function"},{"inputs":[{"internalType":"uint256","name":"_campaignId","type":"uint256"}],"name":"autoRejectUnreviewedTreasuryGrants","outputs":[],"stateMutability":"nonpayable","type":"function"},{"inputs":[{"internalType":"uint256","name":"","type":"uint256"},{"internalType":"uint256","name":"","type":"uint256"}],"name":"campaignContributors","outputs":[{"internalType":"address","name":"","type":"address"}],"stateMutability":"view","type":"function"},{"inputs":[],"name":"campaignIds","outputs":[{"internalType":"uint256","name":"","type":"uint256"}],"stateMutability":"view","type":"function"},{"inputs":[{"internalType":"uint256","name":"","type":"uint256"}],"name":"campaigns","outputs":[{"internalType":"string","name":"name","type":"string"},{"internalType":"address","name":"creator","type":"address"},{"internalType":"uint256","name":"fundingGoal","type":"uint256"},{"internalType":"uint256","name":"deadline","type":"uint256"},{"internalType":"uint256","name":"amountRaised","type":"uint256"},{"internalType":"uint256","name":"crowdfundedAmount","type":"uint256"},{"internalType":"enum FundingPool.Status","name":"status","type":"uint8"},{"internalType":"enum FundingPool.FundingType","name":"fundingType","type":"uint8"},{"internalType":"uint256","name":"withdrawnAmount","type":"uint256"},{"internalType":"uint256","name":"crowdfundedWithdrawnAmount","type":"uint256"},{"internalType":"string","name":"projectCID","type":"string"},{"internalType":"string","name":"heroMediaCID","type":"string"},{"internalType":"string","name":"description","type":"string"},{"internalType":"uint256","name":"createdAt","type":"uint256"},{"internalType":"uint256","name":"applicationExpiry","type":"uint256"}],"stateMutability":"view","type":"function"},{"inputs":[{"internalType":"string","name":"_name","type":"string"},{"internalType":"uint256","name":"_fundingGoal","type":"uint256"},{"internalType":"enum FundingPool.FundingType","name":"_fundingType","type":"uint8"},{"internalType":"string[]","name":"_milestoneDescriptions","type":"string[]"},{"internalType":"uint256[]","name":"_milestoneAmounts","type":"uint256[]"},{"internalType":"string","name":"_projectCID","type":"string"},{"internalType":"string","name":"_heroMediaCID","type":"string"},{"internalType":"string","name":"_description","type":"string"}],"name":"createCampaign","outputs":[{"internalType":"uint256","name":"","type":"uint256"}],"stateMutability":"nonpayable","type":"function"},{"inputs":[],"name":"currentQuarterStart","outputs":[{"internalType":"uint256","name":"","type":"uint256"}],"stateMutability":"view","type":"function"},{"inputs":[],"name":"daoTreasury","outputs":[{"internalType":"address","name":"","type":"address"}],"stateMutability":"view","type":"function"},{"inputs":[{"internalType":"address","name":"","type":"address"},{"internalType":"uint256","name":"","type":"uint256"}],"name":"emergencyWithdrawalOverrides","outputs":[{"internalType":"bool","name":"","type":"bool"}],"stateMutability":"view","type":"function"},{"inputs":[{"internalType":"address","name":"","type":"address"}],"name":"failedTransferBalances","outputs":[{"internalType":"uint256","name":"","type":"uint256"}],"stateMutability":"view","type":"function"},{"inputs":[{"internalType":"uint256","name":"_campaignId","type":"uint256"}],"name":"fundProject","outputs":[],"stateMutability":"payable","type":"function"},{"inputs":[],"name":"getAvailableTreasuryFunds","outputs":[{"internalType":"uint256","name":"","type":"uint256"}],"stateMutability":"view","type":"function"},{"inputs":[{"internalType":"uint256","name":"_campaignId","type":"uint256"}],"name":"getCampaignMilestones","outputs":[{"components":[{"internalType":"string","name":"description","type":"string"},{"internalType":"uint256","name":"amount","type":"uint256"},{"internalType":"bool","name":"completed","type":"bool"},{"internalType":"uint256","name":"completedAt","type":"uint256"},{"internalType":"string","name":"proofCID","type":"string"},{"internalType":"uint256","name":"rejectedAt","type":"uint256"}],"internalType":"struct FundingPool.Milestone[]","name":"","type":"tuple[]"}],"stateMutability":"view","type":"function"},{"inputs":[{"internalType":"uint256","name":"_campaignId","type":"uint256"}],"name":"getContributors","outputs":[{"internalType":"address[]","name":"","type":"address[]"}],"stateMutability":"view","type":"function"},{"inputs":[{"internalType":"uint256","name":"_campaignId","type":"uint256"}],"name":"getCrowdfundedAmount","outputs":[{"internalType":"uint256","name":"","type":"uint256"}],"stateMutability":"view","type":"function"},{"inputs":[{"internalType":"bytes32","name":"role","type":"bytes32"}],"name":"getRoleAdmin","outputs":[{"internalType":"bytes32","name":"","type":"bytes32"}],"stateMutability":"view","type":"function"},{"inputs":[{"internalType":"uint256","name":"_campaignId","type":"uint256"},{"internalType":"address","name":"_contributor","type":"address"}],"name":"getUserContribution","outputs":[{"internalType":"uint256","name":"","type":"uint256"}],"stateMutability":"view","type":"function"},{"inputs":[{"internalType":"bytes32","name":"role","type":"bytes32"},{"internalType":"address","name":"account","type":"address"}],"name":"grantRole","outputs":[],"stateMutability":"nonpayable","type":"function"},{"inputs":[{"internalType":"bytes32","name":"role","type":"bytes32"},{"internalType":"address","name":"account","type":"address"}],"name":"hasRole","outputs":[{"internalType":"bool","name":"","type":"bool"}],"stateMutability":"view","type":"function"},{"inputs":[{"internalType":"address","name":"","type":"address"}],"name":"isKYCVerified","outputs":[{"internalType":"bool","name":"","type":"bool"}],"stateMutability":"view","type":"function"},{"inputs":[{"internalType":"uint256","name":"_campaignId","type":"uint256"}],"name":"overrideAutoRejection","outputs":[],"stateMutability":"nonpayable","type":"function"},{"inputs":[],"name":"owner","outputs":[{"internalType":"address","name":"","type":"address"}],"stateMutability":"view","type":"function"},{"inputs":[{"internalType":"uint256","name":"_amount","type":"uint256"}],"name":"ownerWithdraw","outputs":[],"stateMutability":"nonpayable","type":"function"},{"inputs":[],"name":"quarterlyFundsUsed","outputs":[{"internalType":"uint256","name":"","type":"uint256"}],"stateMutability":"view","type":"function"},{"inputs":[],"name":"quarterlyTreasuryLimit","outputs":[{"internalType":"uint256","name":"","type":"uint256"}],"stateMutability":"view","type":"function"},{"inputs":[{"internalType":"uint256","name":"_campaignId","type":"uint256"}],"name":"refundUnspentFunds","outputs":[],"stateMutability":"nonpayable","type":"function"},{"inputs":[{"internalType":"uint256","name":"_campaignId","type":"uint256"},{"internalType":"uint256","name":"_milestoneId","type":"uint256"}],"name":"rejectMilestone","outputs":[],"stateMutability":"nonpayable","type":"function"},{"inputs":[],"name":"renounceOwnership","outputs":[],"stateMutability":"nonpayable","type":"function"},{"inputs":[{"internalType":"bytes32","name":"role","type":"bytes32"},{"internalType":"address","name":"callerConfirmation","type":"address"}],"name":"renounceRole","outputs":[],"stateMutability":"nonpayable","type":"function"},{"inputs":[{"internalType":"bytes32","name":"role","type":"bytes32"},{"internalType":"address","name":"account","type":"address"}],"name":"revokeRole","outputs":[],"stateMutability":"nonpayable","type":"function"},{"inputs":[{"internalType":"uint256","name":"_campaignId","type":"uint256"},{"internalType":"address","name":"_creator","type":"address"},{"internalType":"bool","name":"_allowed","type":"bool"}],"name":"setEmergencyWithdrawalOverride","outputs":[],"stateMutability":"nonpayable","type":"function"},{"inputs":[{"internalType":"uint256","name":"_campaignId","type":"uint256"},{"internalType":"uint256","name":"_milestoneId","type":"uint256"},{"internalType":"string","name":"_proofCID","type":"string"}],"name":"submitMilestoneProof","outputs":[],"stateMutability":"nonpayable","type":"function"},{"inputs":[{"internalType":"bytes4","name":"interfaceId","type":"bytes4"}],"name":"supportsInterface","outputs":[{"internalType":"bool","name":"","type":"bool"}],"stateMutability":"view","type":"function"},{"inputs":[{"internalType":"address","name":"newOwner","type":"address"}],"name":"transferOwnership","outputs":[],"stateMutability":"nonpayable","type":"function"},{"inputs":[{"internalType":"address","name":"_user","type":"address"},{"internalType":"bool","name":"_verified","type":"bool"}],"name":"updateKYCStatus","outputs":[],"stateMutability":"nonpayable","type":"function"},{"inputs":[],"name":"updateTreasuryLimit","outputs":[],"stateMutability":"nonpayable","type":"function"},{"inputs":[{"internalType":"address","name":"","type":"address"},{"internalType":"uint256","name":"","type":"uint256"}],"name":"userContributions","outputs":[{"internalType":"uint256","name":"","type":"uint256"}],"stateMutability":"view","type":"function"},{"inputs":[{"internalType":"uint256","name":"_campaignId","type":"uint256"}],"name":"voteCampaign","outputs":[],"stateMutability":"nonpayable","type":"function"},{"inputs":[{"internalType":"address","name":"_recipient","type":"address"}],"name":"withdrawFailedTransfers","outputs":[],"stateMutability":"nonpayable","type":"function"},{"inputs":[{"internalType":"uint256","name":"_campaignId","type":"uint256"}],"name":"withdrawFunds","outputs":[],"stateMutability":"nonpayable","type":"function"},{"inputs":[{"internalType":"uint256","name":"_campaignId","type":"uint256"},{"internalType":"uint256","name":"_milestoneId","type":"uint256"}],"name":"withdrawMilestoneFunds","outputs":[],"stateMutability":"nonpayable","type":"function"},{"stateMutability":"payable","type":"receive"}],"evm":{"bytecode":{"linkReferences":{},"object":"60803461014a57601f613e2e38819003918201601f19168301916001600160401b0383118484101761014f5780849260209460405283398101031261014a57516001600160a01b0381169081900361014a57600160005533156101345760018054336001600160a01b03198216811790925560405191906001600160a01b03167f8be0079c531659141344cd1fd0a4f28419497f9722a3daafe3b4186f6b6457e0600080a381156100f25750600780546001600160a01b0319169190911790556100c833610165565b506100d2336101e1565b50600a4704600855426009556000600a55604051613b54908161027a8239f35b62461bcd60e51b815260206004820152601b60248201527f44414f2054726561737572792063616e6e6f74206265207a65726f00000000006044820152606490fd5b631e4fbdf760e01b600052600060045260246000fd5b600080fd5b634e487b7160e01b600052604160045260246000fd5b6001600160a01b0381166000908152600080516020613e0e833981519152602052604090205460ff166101db576001600160a01b03166000818152600080516020613e0e83398151915260205260408120805460ff19166001179055339190600080516020613dce8339815191528180a4600190565b50600090565b6001600160a01b0381166000908152600080516020613dee833981519152602052604090205460ff166101db576001600160a01b03166000818152600080516020613dee83398151915260205260408120805460ff191660011790553391907f811427a0fa4932aef534bba16bc34e9b7b2d7d2a79c475fca1765f6cc1faebea90600080516020613dce8339815191529080a460019056fe60808060405260043610156100ac575b50361561001b57600080fd5b6001546001600160a01b0316331461002f57005b610037613a4f565b6009546276a700810180911161009657421015610088575b7f1f92cca502dfdcdd42ad90d554b27f8de184feca1dd0b0746029b1b35285bb2b6040600a4704806008558151908152426020820152a1005b426009556000600a5561004f565b634e487b7160e01b600052601160045260246000fd5b60003560e01c90816301ffc9a714612d385750806302d7fd9214612cfd578063095d16b214612b96578063141961bc14612a4f578063155dd5ee1461262b57806320913da51461253b578063248a9ca31461250e5780632855e693146124f05780632c3e63171461244c5780632f2ff15d1461240c57806333f707d11461235657806336568abe14612310578063370560be1461221e5780633abe6bd7146121895780633c1ab00f146120cb5780633fb0d90f14611fc15780635117e33814611f795780635130691b14611f2c57806353df9d7614611e6657806354b7636e14611e275780635f0ede3814611e045780635f7ec46d14611bc85780636c1739ce14611baa5780636c563abe1461187a578063715018a61461181d5780637331fa95146117d557806379022a9f146117ac578063837b2a4d146117895780638da5cb5b1461176057806391d148541461171357806392899236146115825780639f791e5f14611316578063a217fddf146112fa578063a94015c8146112bf578063b19954ca14611228578063bfe2661214611067578063c6b647b914611049578063c966d4021461101a578063d547741f14610fd3578063d59161ab14610fb5578063f21539d514610f9c578063f2fde38b14610f12578063f37beeb414610ed8578063f59b8db314610473578063f91e4b29146103025763ff96de21146102b3573861000f565b346102fd576102c13661303a565b906000526006602052604060002080548210156102fd576020916102e49161307c565b905460405160039290921b1c6001600160a01b03168152f35b600080fd5b346102fd5760203660031901126102fd576004356000526004602052600760406000200180549061033282612dc7565b916103406040519384612da6565b80835260208301809260005260206000206000915b83831061040b57848660405191829160208301906020845251809152604083019060408160051b85010192916000905b82821061039457505050500390f35b919360019193955060208091603f1989820301855287519060a0806103f56103c5855160c0865260c0860190612ff9565b86860151878601526040860151151560408601526060860151606086015260808601518582036080870152612ff9565b9301519101529601920192018594939192610385565b6006602060019260405161041e81612d8b565b61042786612f55565b8152848601548382015260ff600287015416151560408201526003860154606082015261045660048701612f55565b6080820152600586015460a0820152815201920192019190610355565b346102fd576101003660031901126102fd576004356001600160401b0381116102fd576104a4903690600401612df9565b6024356044359160028310156102fd576064356001600160401b0381116102fd576104d3903690600401612e40565b6084356001600160401b0381116102fd576104f2903690600401612ebe565b9360a4356001600160401b0381116102fd57610512903690600401612df9565b9160c4356001600160401b0381116102fd57610532903690600401612df9565b9560e4356001600160401b0381116102fd57610552903690600401612df9565b92600181149060008215610ec657674563918244f400008911610e47575b61058361057b61347e565b8a11156134bd565b84511580610e3e575b15610de7575b6003546000198114610dd3576001018060035581526004602052604081209188516001600160401b038111610dbf576105cb8454612f1b565b601f8111610d8f575b506020601f8211600114610d2d579080610603928591610d22575b508160011b916000199060031b1c19161790565b83555b60018301336bffffffffffffffffffffffff60a01b82541617905589600284015562278d004201804211610afb57600384015560068301805461ffff191660089290921b61ff0016919091179055508551600a8201906001600160401b038111610bc6576106748254612f1b565b601f8111610cf0575b506020601f8211600114610c8a5790806106ac92600091610c7f57508160011b916000199060031b1c19161790565b90555b600b810189516001600160401b038111610bc6576106cd8254612f1b565b601f8111610c4d575b506020601f8211600114610be757908061070592600091610bdc57508160011b916000199060031b1c19161790565b90555b600c810185516001600160401b038111610bc6576107268254612f1b565b601f8111610b89575b506020601f8211600114610b2357908061075e92600091610b1857508160011b916000199060031b1c19161790565b90555b42600d8201556000908215610b0f57621275004201804211610afb57600e90915b01555015610aad57505060035494856000526004602052604060002095601e860296861597878104601e1489171561009657606490049060009860288902908982046028141715610a9957927fbf293db00f4de65b181a066ecc2f8bb81fb7174b517fd8085700e259ad00db1b60a0610a7694610a84979460209d6109ef600760647f9121563d1c77025026a509210d3841be6bcd23ce5b74a5cc226e13e68fa3a0959d9b049301916040519261083884612d8b565b88886080604098895161084b8b82612da6565b60178152602076050726f6f66206f6620436f6e63657074206f72204d565604c1b90820152885260208190890152858a89015285606089015260206108a990988b516108978b82612da6565b88815284820152878d8201528661363e565b8383838c601781519180835282015276050726f6f66206f6620436f6e63657074206f72204d565604c1b6060820152848c820152a261093a8a516108ec81612d8b565b8b516108f88d82612da6565b601881527710995d184bd41c9bdd1bdd1e5c194810dbdb5c1b195d195960421b8b8201528152828a820152878c8201528760608201528b516108978b82612da6565b8951908a825260188b8301527710995d184bd41c9bdd1bdd1e5c194810dbdb5c1b195d195960421b606083015288820152a285519161097883612d8b565b8651610985606082612da6565b602a81527f46696e616c2050726f64756374204c61756e6368656420616e64205075626c698682015269636c7920557361626c6560b01b8882015283528585840152808784015280606084015286516109de8682612da6565b81815260808401528783015261363e565b602a8351938085528401527f46696e616c2050726f64756374204c61756e6368656420616e64205075626c69606084015269636c7920557361626c6560b01b6080840152820152a25b610a68600354988997610a566040519a60c08c5260c08c0190612ff9565b918c8b015289820360408b0152612ff9565b908782036060890152612ff9565b908582036080870152612ff9565b924260a08201528033940390a3604051908152f35b634e487b7160e01b8a52601160045260248afd5b91610a76602097837f9121563d1c77025026a509210d3841be6bcd23ce5b74a5cc226e13e68fa3a09595610a849551610ae8575b5050610a38565b610af4916003546138b9565b8980610ae1565b634e487b7160e01b83526011600452602483fd5b600e8291610782565b90508801518d6105ef565b601f1982169083600052806000209160005b8a828210610b715750509083600194939210610b58575b5050811b019055610761565b89015160001960f88460031b161c191690558c80610b4c565b60018495602093958493015181550194019201610b35565b610bb690836000526020600020601f840160051c81019160208510610bbc575b601f0160051c019061312f565b8b61072f565b9091508190610ba9565b634e487b7160e01b600052604160045260246000fd5b90508c01518d6105ef565b60008381528181209190601f198416908e5b828210610c345750509083600194939210610c1b575b5050811b019055610708565b8d015160001960f88460031b161c191690558c80610c0f565b600184956020939584930151815501940192018e610bf9565b610c7990836000526020600020601f840160051c81019160208510610bbc57601f0160051c019061312f565b8b6106d6565b90508901518d6105ef565b601f1982169083600052806000209160005b8b828210610cd85750509083600194939210610cbf575b5050811b0190556106af565b8a015160001960f88460031b161c191690558c80610cb3565b60018495602093958493015181550194019201610c9c565b610d1c90836000526020600020601f840160051c81019160208510610bbc57601f0160051c019061312f565b8b61067d565b90508b01518e6105ef565b84845280842090601f198316855b8d828210610d775750509083600194939210610d5e575b5050811b018355610606565b8c015160001960f88460031b161c191690558d80610d52565b60018495602093958493015181550194019201610d3b565b610db99085855260208520601f840160051c81019160208510610bbc57601f0160051c019061312f565b8c6105d4565b634e487b7160e01b83526041600452602483fd5b634e487b7160e01b82526011600452602482fd5b60405162461bcd60e51b815260206004820152602960248201527f5472656173757279204772616e74732075736520707265646566696e6564206d604482015268696c6573746f6e657360b81b6064820152608490fd5b5083511561058c565b338152600b60205260ff6040822054166105705760405162461bcd60e51b815260206004820152603860248201527f4b594320766572696669636174696f6e20726571756972656420666f7220547260448201527f656173757279204772616e7473206f76657220352045544800000000000000006064820152608490fd5b610ed385518551146130ed565b610592565b346102fd5760203660031901126102fd576001600160a01b03610ef9613066565b16600052600d6020526020604060002054604051908152f35b346102fd5760203660031901126102fd57610f2b613066565b610f33613a4f565b6001600160a01b03168015610f8657600180546001600160a01b0319811683179091556001600160a01b03167f8be0079c531659141344cd1fd0a4f28419497f9722a3daafe3b4186f6b6457e0600080a3005b631e4fbdf760e01b600052600060045260246000fd5b346102fd5760003660031901126102fd57610037613a4f565b346102fd5760003660031901126102fd576020600a54604051908152f35b346102fd5760403660031901126102fd57611018600435610ff2613050565b9061101361100e82600052600260205260016040600020015490565b6135ed565b613a78565b005b346102fd5760203660031901126102fd5760043560005260046020526020600560406000200154604051908152f35b346102fd5760003660031901126102fd576020600954604051908152f35b346102fd576110753661303a565b9061107e6139a5565b8060005260046020526040600020916110a460018060a01b036001850154163314613195565b60ff600684015460081c16906002821015611212576110c860016110dd93146130aa565b600784016110d881548310613347565b613387565b5060ff600282015416156111cd57600160089101926000845494611102861515613220565b674563918244f400008611611183575b550161111f8382546132fc565b905561113b600080808086335af16111356132cc565b50613309565b6040519182526000602083015260006040830152600060608301527ffd8443316dcaf390c4480028d81568298bb47a1d097857f2f1fbd54b0676334560803393a36001600055005b338252600b60205260ff60408320541680156111a8575b6111a390613263565b611112565b50338252600c602052604082208583526020526111a360ff604084205416905061119a565b60405162461bcd60e51b815260206004820152601760248201527f4d696c6573746f6e65206e6f7420636f6d706c657465640000000000000000006044820152606490fd5b634e487b7160e01b600052602160045260246000fd5b346102fd5760603660031901126102fd57600435611244613050565b9060443591821515908184036102fd577f885a8505418be302bb27e84bcd18370ff6c55e6300a82c065e4abc658c0e5480916112b660209261128461357b565b60018060a01b03169586600052600c8452604060002086600052845260406000209060ff801983541691151516179055565b604051908152a3005b346102fd5760003660031901126102fd5760206040517f72c3eec1760bf69946625c2d4fb8e44e2c806345041960b434674fb9ab3976cf8152f35b346102fd5760003660031901126102fd57602060405160008152f35b346102fd5760603660031901126102fd576024356004356044356001600160401b0381116102fd5761134c903690600401612df9565b816000526004602052604060002061137160018060a01b036001830154163314613195565b60ff600682015460081c16906002821015611212576007859161139960016113a695146130aa565b016110d881548310613347565b506113b860ff600283015416156133a3565b6005810154801590811561156a575b501561152d57600401928151936001600160401b038511610bc6576113ec8154612f1b565b601f81116114fb575b506020601f861160011461147557857faa0da233cbe2f0fc818e5ddb1128d22fcf012df42cd15bbacbfdaac288c0f1df95966114469260009161146a57508160011b916000199060031b1c19161790565b90555b6114656040519283928352604060208401526040830190612ff9565b0390a2005b9050850151886105ef565b601f1986169082600052806000209160005b8181106114e357509187917faa0da233cbe2f0fc818e5ddb1128d22fcf012df42cd15bbacbfdaac288c0f1df9798600194106114ca575b5050811b019055611449565b86015160001960f88460031b161c1916905587806114be565b9192602060018192868a015181550194019201611487565b61152790826000526020600020601f880160051c81019160208910610bbc57601f0160051c019061312f565b856113f5565b60405162461bcd60e51b81526020600482015260156024820152742932b9bab136b4b9b9b4b7b7103a37b79039b7b7b760591b6044820152606490fd5b905062093a80810180911161009657421015856113c7565b346102fd5760203660031901126102fd57600435806000526004602052604060002060ff600682015460081c166002811015611212576115c560018492146130aa565b60009182916007820191835b8354811015611651576115e48185613387565b5060058101548015159081611641575b81611629575b50611609575b506001016115d1565b6000919550600161161e9101968754906132fc565b955560019384611600565b905062093a80810180911161009657421015886115fa565b600283015460ff161591506115f4565b508490848061170a575b61166157005b60086004820191611673848454613213565b809355015561168481600a54613213565b600a5560008080808460018060a01b03600754165af16116a26132cc565b50156116d55760207f65d1bf7fe298dda4759cdbf89b1ef35e330a7d44469b44f8913a712067aeee1f91604051908152a2005b60405162461bcd60e51b815260206004820152600d60248201526c1499599d5b990819985a5b1959609a1b6044820152606490fd5b5081151561165b565b346102fd5760403660031901126102fd5761172c613050565b600435600052600260205260406000209060018060a01b0316600052602052602060ff604060002054166040519015158152f35b346102fd5760003660031901126102fd576001546040516001600160a01b039091168152602090f35b346102fd5760003660031901126102fd576020604051674563918244f400008152f35b346102fd5760003660031901126102fd576007546040516001600160a01b039091168152602090f35b346102fd5760403660031901126102fd576001600160a01b036117f6613066565b16600052600560205260406000206024356000526020526020604060002054604051908152f35b346102fd5760003660031901126102fd57611836613a4f565b600180546001600160a01b031981169091556000906001600160a01b03167f8be0079c531659141344cd1fd0a4f28419497f9722a3daafe3b4186f6b6457e08280a3005b60203660031901126102fd576004356118916139a5565b8060005260046020526040600020906006820160ff81541660038110156112125760016118be91146131cf565b60038301544211611b6557341580611b305760323402348104603203610096576103e890049081159081611b27575b50611b1f575b8060011c9161190c6119058484613213565b9234613213565b9460008080808760018060a01b03600754165af16119286132cc565b5015611ad2575b60008080808660018060a01b03600154165af161194a6132cc565b5015611a85575b60ff825460081c16600281101561121257611a70576004016119748682546132fc565b90555b336000526005602052604060002084600052602052604060002061199c8682546132fc565b90553360005260056020526040600020846000526020528460406000205414611a1d575b5460081c60ff1690600282101561121257600192604051958652602086015260408501524260608501521460808301527f4852e950ec3aedaf09a6ad7e78a1bfaeceaf997176ca098ad13194819a8c4ce560a03393a36001600055005b836000526006602052604060002090815491600160401b831015610bc65782611a4d91600160ff9501815561307c565b81546001600160a01b0360039290921b91821b19163390911b17905590506119c0565b600501611a7e8682546132fc565b9055611977565b60018060a01b0360015416600052600d6020526040600020611aa88482546132fc565b905560018060a01b0360015416600080516020613aff8339815191526020604051868152a2611951565b60018060a01b0360075416600052600d6020526040600020611af58582546132fc565b905560018060a01b0360075416600080516020613aff8339815191526020604051878152a261192f565b5060016118f3565b905015856118ed565b60405162461bcd60e51b815260206004820152600d60248201526c09aeae6e840e6cadcc8408aa89609b1b6044820152606490fd5b60405162461bcd60e51b815260206004820152601760248201527f46756e64696e6720646561646c696e65207061737365640000000000000000006044820152606490fd5b346102fd5760003660031901126102fd576020600354604051908152f35b346102fd5760203660031901126102fd57600435611be4613509565b80600052600460205260406000206006810190815460ff811690600382101561121257611c1360ff92156133ef565b60081c1660028110156112125760011490811591611df6575b5015611da65760ff9060018219825416178155827f1289cf89aaaed53d6590c1b7996ba434edb31dcbd322d0b88ff0c02f64bbdeef602060405160018152a25460081c16600281101561121257600114611c8257005b80600052600460205260406000206009546276a700810180911161009657421015611d61575b600a5460028201611cbb815480936132fc565b60085410611d1c57611d0f8260047f4608424e4f38941a5879b3efe268417eb8b5724e0b5fdbc1e471f4140ebada5a95611cf96020964710156134bd565b01611d058282546132fc565b9055600a546132fc565b600a5554604051908152a2005b60405162461bcd60e51b815260206004820152601760248201527f4578636565647320717561727465726c79206c696d69740000000000000000006044820152606490fd5b426009556000600a557f1f92cca502dfdcdd42ad90d554b27f8de184feca1dd0b0746029b1b35285bb2b6040600a4704806008558151908152426020820152a1611ca8565b60405162461bcd60e51b815260206004820152602260248201527f5472656173757279204772616e74732072657175697265206d696c6573746f6e604482015261657360f01b6064820152608490fd5b600791500154151583611c2c565b346102fd5760003660031901126102fd576020611e1f61347e565b604051908152f35b346102fd5760203660031901126102fd576001600160a01b03611e48613066565b16600052600b602052602060ff604060002054166040519015158152f35b346102fd5760403660031901126102fd57611e7f613066565b60243590811515908183036102fd57611e9661357b565b6001600160a01b0316918215611ef5577f2df1cad2a2659e001c3804c872f69655356013e35c18c2e77a5d568078ab788f91611eec60209285600052600b845260406000209060ff801983541691151516179055565b604051908152a2005b60405162461bcd60e51b815260206004820152600f60248201526e496e76616c6964206164647265737360881b6044820152606490fd5b346102fd5760403660031901126102fd576001600160a01b03611f4d613066565b16600052600c6020526040600020602435600052602052602060ff604060002054166040519015158152f35b346102fd5760403660031901126102fd576001600160a01b03611f9a613050565b16600052600560205260406000206004356000526020526020604060002054604051908152f35b346102fd5760203660031901126102fd57611fda613066565b611fe2613a4f565b611fea6139a5565b6001600160a01b0381166000818152600d6020526040902054909181156120865760008080938193868352600d6020528260408120555af161202a6132cc565b5015612037576001600055005b60405162461bcd60e51b815260206004820152602160248201527f4661696c6564207472616e73666572207769746864726177616c206661696c656044820152601960fa1b6064820152608490fd5b60405162461bcd60e51b815260206004820152601f60248201527f4e6f206661696c6564207472616e736665727320746f207769746864726177006044820152606490fd5b346102fd5760203660031901126102fd57600435600052600660205260406000206040518060208354918281520190819360005260206000209060005b81811061216a575050508161211e910382612da6565b6040519182916020830190602084525180915260408301919060005b818110612148575050500390f35b82516001600160a01b031684528594506020938401939092019160010161213a565b82546001600160a01b0316845260209093019260019283019201612108565b346102fd576121973661303a565b61219f613509565b816000526004602052604060002060ff600682015460081c16916002831015611212576121f881600760409461139960017f99c1e384941f7e42e3f9fe91b348aa32f8105b4e750b515d7e0d41ee8b66b0cc98146130aa565b5061220a60ff600283015416156133a3565b6005429101558151908152426020820152a2005b346102fd5760203660031901126102fd5760043561223a613509565b80600052600460205260406000206006810190815460ff8160081c169060028210156112125761226e600160ff93146130aa565b166003811015611212576002036122d357600e01906122908254421015613432565b60ff1981541690556212750042019081421161009657557f379fb972d68cb215ef30793b39641170d26b4747138827dadc647d7cd7f0c4cf6020604051338152a2005b60405162461bcd60e51b815260206004820152601560248201527410d85b5c185a59db881b9bdd081c995a9958dd1959605a1b6044820152606490fd5b346102fd5760403660031901126102fd57612329613050565b336001600160a01b038216036123455761101890600435613a78565b63334bd91960e11b60005260046000fd5b346102fd5760203660031901126102fd57600435612372613a4f565b61237a6139a5565b4781116123d25761239f60008080808560018060a01b03600154165af16111356132cc565b6040519081527fa919fadcfa556a012bab31b15f596ea7ccd397adbf10e15f176db9055ab361c460203392a26001600055005b60405162461bcd60e51b8152602060048201526012602482015271496e73756666696369656e742066756e647360701b6044820152606490fd5b346102fd5760403660031901126102fd5761101860043561242b613050565b9061244761100e82600052600260205260016040600020015490565b6139c7565b346102fd5760203660031901126102fd5760043580600052600460205260406000206006810190815460ff8160081c1690600282101561121257612494600160ff93146130aa565b166003811015611212576124b8916124ae600e92156133ef565b0154421015613432565b600260ff198254161790557f1289cf89aaaed53d6590c1b7996ba434edb31dcbd322d0b88ff0c02f64bbdeef602060405160028152a2005b346102fd5760003660031901126102fd576020600854604051908152f35b346102fd5760203660031901126102fd576020611e1f600435600052600260205260016040600020015490565b346102fd576125493661303a565b612551613509565b816000526004602052604060002060ff600682015460081c169060028210156112125760078391611399600161258795146130aa565b50600281019182549161259d60ff8416156133a3565b6125aa6004820154612f1b565b156125f1577fd4dbda378623f00b72ef135b4579b7ba064c49645217eb107d663831efac635893600160409460ff19161790556003429101558151908152426020820152a2005b60405162461bcd60e51b8152602060048201526012602482015271139bc81c1c9bdbd9881cdd589b5a5d1d195960721b6044820152606490fd5b346102fd5760203660031901126102fd576004356126476139a5565b80600052600460205260406000209061266d60018060a01b036001840154163314613195565b6006820191825460ff8116600381101561121257600161268d91146131cf565b60081c60ff1660006002821015612a3b575061295d576004810154906126b7600882015483613213565b906000926126c6831515613220565b60028201541180612950575b6128ff575b674563918244f4000082116128af575b6019820291801592818104601914841715610096576103e8900492831590816128a6575b5061289d575b8260011c9160ff61272c6127258587613213565b9584613213565b9760008080808860018060a01b03600754165af16127486132cc565b5015612850575b60008080808960018060a01b03600154165af161276a6132cc565b5015612803575b5460081c166002811015611212576127ed57600861279291019182546132fc565b90555b6127a9600080808089335af16111356132cc565b60405194855260208501526040840152151560608301527ffd8443316dcaf390c4480028d81568298bb47a1d097857f2f1fbd54b0676334560803393a36001600055005b60096127fc91019182546132fc565b9055612795565b60018060a01b0360015416600052600d60205260406000206128268782546132fc565b905560018060a01b0360015416600080516020613aff8339815191526020604051898152a2612771565b60018060a01b0360075416600052600d60205260406000206128738682546132fc565b905560018060a01b0360075416600080516020613aff8339815191526020604051888152a261274f565b60019250612711565b9050158761270b565b33600052600b60205260ff6040600020541680156128d6575b6128d190613263565b6126e7565b5033600052600c6020526040600020846000526020526128d160ff6040600020541690506128c8565b60405162461bcd60e51b8152602060048201526024808201527f476f616c206e6f74206d657420616e6420646561646c696e65206e6f742070616044820152631cdcd95960e21b6064820152608490fd5b50600381015442106126d2565b6129706005820154600983015490613213565b60019181156129f7576004810154600282015411806129ea575b156126d75760405162461bcd60e51b815260206004820152602d60248201527f547265617375727920676f616c206e6f74206d657420616e6420646561646c6960448201526c1b99481b9bdd081c185cdcd959609a1b6064820152608490fd5b506003810154421061298a565b606460405162461bcd60e51b815260206004820152602060248201527f4e6f2063726f776466756e6465642066756e647320746f2077697468647261776044820152fd5b634e487b7160e01b81526021600452602490fd5b346102fd5760203660031901126102fd5760043560005260046020526040600020612a7981612f55565b90600160a01b6001900360018201541690600281015492600382015460048301549060058401549460068501549260ff84169360081c60ff16600887015492600988015495600a8901612acb90612f55565b99612ad8600b8b01612f55565b94612ae5600c8c01612f55565b97600d8c01549b600e01549a6040519e8f916101e083526101e08301612b0a91612ff9565b96602083015260408201526060015260808d015260a08c015260038110156112125760c08b01526002821015611212578998612b8596612b7695612b679460e08d01526101008c01526101208b01528982036101408b0152612ff9565b90878203610160890152612ff9565b90858203610180870152612ff9565b916101a08401526101c08301520390f35b346102fd5760603660031901126102fd576004356024356001600160401b0381116102fd57612bc9903690600401612e40565b6044356001600160401b0381116102fd57612be8903690600401612ebe565b90612bf1613509565b8260005260046020526040600020600681015460ff8160081c1690600282101561121257612c23600160ff93146130aa565b16600381101561121257612cb857600790612c4183518551146130ed565b01928354936000815584612c5b575b5061101893506138b9565b84600602946006860403610096576000526020600020938401935b84811015612c505780612c8a600692613146565b600060018201556000600282015560006003820155612cab60048201613146565b6000600582015501612c76565b60405162461bcd60e51b815260206004820152601860248201527f43616d706169676e206d7573742062652070656e64696e6700000000000000006044820152606490fd5b346102fd5760003660031901126102fd5760206040517f811427a0fa4932aef534bba16bc34e9b7b2d7d2a79c475fca1765f6cc1faebea8152f35b346102fd5760203660031901126102fd576004359063ffffffff60e01b82168092036102fd57602091637965db0b60e01b8114908115612d7a575b5015158152f35b6301ffc9a760e01b14905083612d73565b60c081019081106001600160401b03821117610bc657604052565b90601f801991011681019081106001600160401b03821117610bc657604052565b6001600160401b038111610bc65760051b60200190565b6001600160401b038111610bc657601f01601f191660200190565b81601f820112156102fd57803590612e1082612dde565b92612e1e6040519485612da6565b828452602083830101116102fd57816000926020809301838601378301015290565b9080601f830112156102fd578135612e5781612dc7565b92612e656040519485612da6565b81845260208085019260051b820101918383116102fd5760208201905b838210612e9157505050505090565b81356001600160401b0381116102fd57602091612eb387848094880101612df9565b815201910190612e82565b9080601f830112156102fd578135612ed581612dc7565b92612ee36040519485612da6565b81845260208085019260051b8201019283116102fd57602001905b828210612f0b5750505090565b8135815260209182019101612efe565b90600182811c92168015612f4b575b6020831014612f3557565b634e487b7160e01b600052602260045260246000fd5b91607f1691612f2a565b9060405191826000825492612f6984612f1b565b8084529360018116908115612fd75750600114612f90575b50612f8e92500383612da6565b565b90506000929192526020600020906000915b818310612fbb575050906020612f8e9282010138612f81565b6020919350806001915483858901015201910190918492612fa2565b905060209250612f8e94915060ff191682840152151560051b82010138612f81565b919082519283825260005b848110613025575050826000602080949584010152601f8019910116010190565b80602080928401015182828601015201613004565b60409060031901126102fd576004359060243590565b602435906001600160a01b03821682036102fd57565b600435906001600160a01b03821682036102fd57565b80548210156130945760005260206000200190600090565b634e487b7160e01b600052603260045260246000fd5b156130b157565b60405162461bcd60e51b8152602060048201526014602482015273139bdd0818481d1c99585cdd5c9e4819dc985b9d60621b6044820152606490fd5b156130f457565b60405162461bcd60e51b815260206004820152601360248201527209ad2d8cae6e8dedccae640dad2e6dac2e8c6d606b1b6044820152606490fd5b81811061313a575050565b6000815560010161312f565b6131508154612f1b565b908161315a575050565b81601f6000931160011461316c575055565b8183526020832061318891601f0160051c81019060010161312f565b8082528160208120915555565b1561319c57565b60405162461bcd60e51b815260206004820152600b60248201526a2737ba1031b932b0ba37b960a91b6044820152606490fd5b156131d657565b60405162461bcd60e51b815260206004820152601560248201527410d85b5c185a59db881b9bdd08185c1c1c9bdd9959605a1b6044820152606490fd5b9190820391821161009657565b1561322757565b60405162461bcd60e51b81526020600482015260146024820152734e6f2066756e647320746f20776974686472617760601b6044820152606490fd5b1561326a57565b60405162461bcd60e51b815260206004820152603460248201527f4b5943206f722061646d696e206f7665727269646520726571756972656420666044820152736f72206c61726765207769746864726177616c7360601b6064820152608490fd5b3d156132f7573d906132dd82612dde565b916132eb6040519384612da6565b82523d6000602084013e565b606090565b9190820180921161009657565b1561331057565b60405162461bcd60e51b815260206004820152600f60248201526e15da5d1a191c985dc819985a5b1959608a1b6044820152606490fd5b1561334e57565b60405162461bcd60e51b8152602060048201526011602482015270496e76616c6964206d696c6573746f6e6560781b6044820152606490fd5b8054821015613094576000526006602060002091020190600090565b156133aa57565b60405162461bcd60e51b815260206004820152601b60248201527f4d696c6573746f6e6520616c726561647920636f6d706c6574656400000000006044820152606490fd5b156133f657565b60405162461bcd60e51b815260206004820152601460248201527343616d706169676e206e6f742070656e64696e6760601b6044820152606490fd5b1561343957565b60405162461bcd60e51b815260206004820152601760248201527f4170706c69636174696f6e206e6f7420657870697265640000000000000000006044820152606490fd5b6009546276a7008101809111610096574210156134b657600854600a54808211156134af576134ac91613213565b90565b5050600090565b600a470490565b156134c457565b60405162461bcd60e51b815260206004820152601b60248201527f496e73756666696369656e742074726561737572792066756e647300000000006044820152606490fd5b3360009081527f24e40dff4c4dda37e192be72f4e95b5889db4f90bbee7bdaf11c39383a26943f602052604090205460ff161561354257565b63e2517d3f60e01b600052336004527f72c3eec1760bf69946625c2d4fb8e44e2c806345041960b434674fb9ab3976cf60245260446000fd5b3360009081527fe765195e334466f113e7d3f97c6a49f4713af0d7ee079c3fc318f1c2bd7a31fc602052604090205460ff16156135b457565b63e2517d3f60e01b600052336004527f811427a0fa4932aef534bba16bc34e9b7b2d7d2a79c475fca1765f6cc1faebea60245260446000fd5b600081815260026020908152604080832033845290915290205460ff16156136125750565b63e2517d3f60e01b6000523360045260245260446000fd5b80518210156130945760209160051b010190565b9190918054600160401b811015610bc65761365e91600182018155613387565b6138a35782519283516001600160401b038111610bc65761367f8354612f1b565b601f8111613871575b50602094601f821160011461380c576136bd929394958291600092613762575b50508160011b916000199060031b1c19161790565b82555b602081015160018301556136e960408201511515600284019060ff801983541691151516179055565b606081015160038301556004820160808201518051906001600160401b038211610bc6576137178354612f1b565b601f81116137da575b50602090601f831160011461376d57826005959360a09593613758936000926137625750508160011b916000199060031b1c19161790565b90555b0151910155565b0151905038806136a8565b90601f1983169184600052816000209260005b8181106137c257509260019285926005989660a09896106137a9575b505050811b01905561375b565b015160001960f88460031b161c1916905538808061379c565b92936020600181928786015181550195019301613780565b61380690846000526020600020601f850160051c81019160208610610bbc57601f0160051c019061312f565b38613720565b601f1982169584600052806000209160005b88811061385957508360019596979810613840575b505050811b0182556136c0565b015160001960f88460031b161c19169055388080613833565b9192602060018192868501518155019401920161381e565b61389d90846000526020600020601f840160051c81019160208510610bbc57601f0160051c019061312f565b38613688565b634e487b7160e01b600052600060045260246000fd5b909291928160005260046020526040600020906007600092016020925b825181101561399c578061393f6138ef6001938661362a565b516138fa838b61362a565b516040519161390883612d8b565b82528782015260006040820152600060608201526040516139298882612da6565b600081526080820152600060a08201528461363e565b857fbf293db00f4de65b181a066ecc2f8bb81fb7174b517fd8085700e259ad00db1b61398e61396e848861362a565b51613979858d61362a565b51604051928392604084526040840190612ff9565b908a8301520390a2016138d6565b50505050509050565b6002600054146139b6576002600055565b633ee5aeb560e01b60005260046000fd5b60008181526002602090815260408083206001600160a01b038616845290915290205460ff166134af5760008181526002602090815260408083206001600160a01b0395909516808452949091528120805460ff19166001179055339291907f2f8788117e7eff1d82e926ec794901d17c78024a50270940304540a733656f0d9080a4600190565b6001546001600160a01b03163303613a6357565b63118cdaa760e01b6000523360045260246000fd5b60008181526002602090815260408083206001600160a01b038616845290915290205460ff16156134af5760008181526002602090815260408083206001600160a01b0395909516808452949091528120805460ff19169055339291907ff6391f5c32d9c69d2a47ea670b442974b53935d1edc7fd64eb21e047a839171b9080a460019056fe1c43b9761b3fba5321ca8212bfc231945f668ccc0c446f333999eea9ce8fda81a26469706673582212200403342727fc54c04898308c8de5637f8f97bff7d2a55c2c83a71919f47a512364736f6c634300081c00332f8788117e7eff1d82e926ec794901d17c78024a50270940304540a733656f0de765195e334466f113e7d3f97c6a49f4713af0d7ee079c3fc318f1c2bd7a31fcac33ff75c19e70fe83507db0d683fd3465c996598dc972688b7ace676c89077b","opcodes":"PUSH1 0x80 CALLVALUE PUSH2 0x14A JUMPI PUSH1 0x1F PUSH2 0x3E2E CODESIZE DUP2 SWAP1 SUB SWAP2 DUP3 ADD PUSH1 0x1F NOT AND DUP4 ADD SWAP2 PUSH1 0x1 PUSH1 0x1 PUSH1 0x40 SHL SUB DUP4 GT DUP5 DUP5 LT OR PUSH2 0x14F JUMPI DUP1 DUP5 SWAP3 PUSH1 0x20 SWAP5 PUSH1 0x40 MSTORE DUP4 CODECOPY DUP2 ADD SUB SLT PUSH2 0x14A JUMPI MLOAD PUSH1 0x1 PUSH1 0x1 PUSH1 0xA0 SHL SUB DUP2 AND SWAP1 DUP2 SWAP1 SUB PUSH2 0x14A JUMPI PUSH1 0x1 PUSH1 0x0 SSTORE CALLER ISZERO PUSH2 0x134 JUMPI PUSH1 0x1 DUP1 SLOAD CALLER PUSH1 0x1 PUSH1 0x1 PUSH1 0xA0 SHL SUB NOT DUP3 AND DUP2 OR SWAP1 SWAP3 SSTORE PUSH1 0x40 MLOAD SWAP2 SWAP1 PUSH1 0x1 PUSH1 0x1 PUSH1 0xA0 SHL SUB AND PUSH32 0x8BE0079C531659141344CD1FD0A4F28419497F9722A3DAAFE3B4186F6B6457E0 PUSH1 0x0 DUP1 LOG3 DUP2 ISZERO PUSH2 0xF2 JUMPI POP PUSH1 0x7 DUP1 SLOAD PUSH1 0x1 PUSH1 0x1 PUSH1 0xA0 SHL SUB NOT AND SWAP2 SWAP1 SWAP2 OR SWAP1 SSTORE PUSH2 0xC8 CALLER PUSH2 0x165 JUMP JUMPDEST POP PUSH2 0xD2 CALLER PUSH2 0x1E1 JUMP JUMPDEST POP PUSH1 0xA SELFBALANCE DIV PUSH1 0x8 SSTORE TIMESTAMP PUSH1 0x9 SSTORE PUSH1 0x0 PUSH1 0xA SSTORE PUSH1 0x40 MLOAD PUSH2 0x3B54 SWAP1 DUP2 PUSH2 0x27A DUP3 CODECOPY RETURN JUMPDEST PUSH3 0x461BCD PUSH1 0xE5 SHL DUP2 MSTORE PUSH1 0x20 PUSH1 0x4 DUP3 ADD MSTORE PUSH1 0x1B PUSH1 0x24 DUP3 ADD MSTORE PUSH32 0x44414F2054726561737572792063616E6E6F74206265207A65726F0000000000 PUSH1 0x44 DUP3 ADD MSTORE PUSH1 0x64 SWAP1 REVERT JUMPDEST PUSH4 0x1E4FBDF7 PUSH1 0xE0 SHL PUSH1 0x0 MSTORE PUSH1 0x0 PUSH1 0x4 MSTORE PUSH1 0x24 PUSH1 0x0 REVERT JUMPDEST PUSH1 0x0 DUP1 REVERT JUMPDEST PUSH4 0x4E487B71 PUSH1 0xE0 SHL PUSH1 0x0 MSTORE PUSH1 0x41 PUSH1 0x4 MSTORE PUSH1 0x24 PUSH1 0x0 REVERT JUMPDEST PUSH1 0x1 PUSH1 0x1 PUSH1 0xA0 SHL SUB DUP2 AND PUSH1 0x0 SWAP1 DUP2 MSTORE PUSH1 0x0 DUP1 MLOAD PUSH1 0x20 PUSH2 0x3E0E DUP4 CODECOPY DUP2 MLOAD SWAP2 MSTORE PUSH1 0x20 MSTORE PUSH1 0x40 SWAP1 KECCAK256 SLOAD PUSH1 0xFF AND PUSH2 0x1DB JUMPI PUSH1 0x1 PUSH1 0x1 PUSH1 0xA0 SHL SUB AND PUSH1 0x0 DUP2 DUP2 MSTORE PUSH1 0x0 DUP1 MLOAD PUSH1 0x20 PUSH2 0x3E0E DUP4 CODECOPY DUP2 MLOAD SWAP2 MSTORE PUSH1 0x20 MSTORE PUSH1 0x40 DUP2 KECCAK256 DUP1 SLOAD PUSH1 0xFF NOT AND PUSH1 0x1 OR SWAP1 SSTORE CALLER SWAP2 SWAP1 PUSH1 0x0 DUP1 MLOAD PUSH1 0x20 PUSH2 0x3DCE DUP4 CODECOPY DUP2 MLOAD SWAP2 MSTORE DUP2 DUP1 LOG4 PUSH1 0x1 SWAP1 JUMP JUMPDEST POP PUSH1 0x0 SWAP1 JUMP JUMPDEST PUSH1 0x1 PUSH1 0x1 PUSH1 0xA0 SHL SUB DUP2 AND PUSH1 0x0 SWAP1 DUP2 MSTORE PUSH1 0x0 DUP1 MLOAD PUSH1 0x20 PUSH2 0x3DEE DUP4 CODECOPY DUP2 MLOAD SWAP2 MSTORE PUSH1 0x20 MSTORE PUSH1 0x40 SWAP1 KECCAK256 SLOAD PUSH1 0xFF AND PUSH2 0x1DB JUMPI PUSH1 0x1 PUSH1 0x1 PUSH1 0xA0 SHL SUB AND PUSH1 0x0 DUP2 DUP2 MSTORE PUSH1 0x0 DUP1 MLOAD PUSH1 0x20 PUSH2 0x3DEE DUP4 CODECOPY DUP2 MLOAD SWAP2 MSTORE PUSH1 0x20 MSTORE PUSH1 0x40 DUP2 KECCAK256 DUP1 SLOAD PUSH1 0xFF NOT AND PUSH1 0x1 OR SWAP1 SSTORE CALLER SWAP2 SWAP1 PUSH32 0x811427A0FA4932AEF534BBA16BC34E9B7B2D7D2A79C475FCA1765F6CC1FAEBEA SWAP1 PUSH1 0x0 DUP1 MLOAD PUSH1 0x20 PUSH2 0x3DCE DUP4 CODECOPY DUP2 MLOAD SWAP2 MSTORE SWAP1 DUP1 LOG4 PUSH1 0x1 SWAP1 JUMP INVALID PUSH1 0x80 DUP1 PUSH1 0x40 MSTORE PUSH1 0x4 CALLDATASIZE LT ISZERO PUSH2 0xAC JUMPI JUMPDEST POP CALLDATASIZE ISZERO PUSH2 0x1B JUMPI PUSH1 0x0 DUP1 REVERT JUMPDEST PUSH1 0x1 SLOAD PUSH1 0x1 PUSH1 0x1 PUSH1 0xA0 SHL SUB AND CALLER EQ PUSH2 0x2F JUMPI STOP JUMPDEST PUSH2 0x37 PUSH2 0x3A4F JUMP JUMPDEST PUSH1 0x9 SLOAD PUSH3 0x76A700 DUP2 ADD DUP1 SWAP2 GT PUSH2 0x96 JUMPI TIMESTAMP LT ISZERO PUSH2 0x88 JUMPI JUMPDEST PUSH32 0x1F92CCA502DFDCDD42AD90D554B27F8DE184FECA1DD0B0746029B1B35285BB2B PUSH1 0x40 PUSH1 0xA SELFBALANCE DIV DUP1 PUSH1 0x8 SSTORE DUP2 MLOAD SWAP1 DUP2 MSTORE TIMESTAMP PUSH1 0x20 DUP3 ADD MSTORE LOG1 STOP JUMPDEST TIMESTAMP PUSH1 0x9 SSTORE PUSH1 0x0 PUSH1 0xA SSTORE PUSH2 0x4F JUMP JUMPDEST PUSH4 0x4E487B71 PUSH1 0xE0 SHL PUSH1 0x0 MSTORE PUSH1 0x11 PUSH1 0x4 MSTORE PUSH1 0x24 PUSH1 0x0 REVERT JUMPDEST PUSH1 0x0 CALLDATALOAD PUSH1 0xE0 SHR SWAP1 DUP2 PUSH4 0x1FFC9A7 EQ PUSH2 0x2D38 JUMPI POP DUP1 PUSH4 0x2D7FD92 EQ PUSH2 0x2CFD JUMPI DUP1 PUSH4 0x95D16B2 EQ PUSH2 0x2B96 JUMPI DUP1 PUSH4 0x141961BC EQ PUSH2 0x2A4F JUMPI DUP1 PUSH4 0x155DD5EE EQ PUSH2 0x262B JUMPI DUP1 PUSH4 0x20913DA5 EQ PUSH2 0x253B JUMPI DUP1 PUSH4 0x248A9CA3 EQ PUSH2 0x250E JUMPI DUP1 PUSH4 0x2855E693 EQ PUSH2 0x24F0 JUMPI DUP1 PUSH4 0x2C3E6317 EQ PUSH2 0x244C JUMPI DUP1 PUSH4 0x2F2FF15D EQ PUSH2 0x240C JUMPI DUP1 PUSH4 0x33F707D1 EQ PUSH2 0x2356 JUMPI DUP1 PUSH4 0x36568ABE EQ PUSH2 0x2310 JUMPI DUP1 PUSH4 0x370560BE EQ PUSH2 0x221E JUMPI DUP1 PUSH4 0x3ABE6BD7 EQ PUSH2 0x2189 JUMPI DUP1 PUSH4 0x3C1AB00F EQ PUSH2 0x20CB JUMPI DUP1 PUSH4 0x3FB0D90F EQ PUSH2 0x1FC1 JUMPI DUP1 PUSH4 0x5117E338 EQ PUSH2 0x1F79 JUMPI DUP1 PUSH4 0x5130691B EQ PUSH2 0x1F2C JUMPI DUP1 PUSH4 0x53DF9D76 EQ PUSH2 0x1E66 JUMPI DUP1 PUSH4 0x54B7636E EQ PUSH2 0x1E27 JUMPI DUP1 PUSH4 0x5F0EDE38 EQ PUSH2 0x1E04 JUMPI DUP1 PUSH4 0x5F7EC46D EQ PUSH2 0x1BC8 JUMPI DUP1 PUSH4 0x6C1739CE EQ PUSH2 0x1BAA JUMPI DUP1 PUSH4 0x6C563ABE EQ PUSH2 0x187A JUMPI DUP1 PUSH4 0x715018A6 EQ PUSH2 0x181D JUMPI DUP1 PUSH4 0x7331FA95 EQ PUSH2 0x17D5 JUMPI DUP1 PUSH4 0x79022A9F EQ PUSH2 0x17AC JUMPI DUP1 PUSH4 0x837B2A4D EQ PUSH2 0x1789 JUMPI DUP1 PUSH4 0x8DA5CB5B EQ PUSH2 0x1760 JUMPI DUP1 PUSH4 0x91D14854 EQ PUSH2 0x1713 JUMPI DUP1 PUSH4 0x92899236 EQ PUSH2 0x1582 JUMPI DUP1 PUSH4 0x9F791E5F EQ PUSH2 0x1316 JUMPI DUP1 PUSH4 0xA217FDDF EQ PUSH2 0x12FA JUMPI DUP1 PUSH4 0xA94015C8 EQ PUSH2 0x12BF JUMPI DUP1 PUSH4 0xB19954CA EQ PUSH2 0x1228 JUMPI DUP1 PUSH4 0xBFE26612 EQ PUSH2 0x1067 JUMPI DUP1 PUSH4 0xC6B647B9 EQ PUSH2 0x1049 JUMPI DUP1 PUSH4 0xC966D402 EQ PUSH2 0x101A JUMPI DUP1 PUSH4 0xD547741F EQ PUSH2 0xFD3 JUMPI DUP1 PUSH4 0xD59161AB EQ PUSH2 0xFB5 JUMPI DUP1 PUSH4 0xF21539D5 EQ PUSH2 0xF9C JUMPI DUP1 PUSH4 0xF2FDE38B EQ PUSH2 0xF12 JUMPI DUP1 PUSH4 0xF37BEEB4 EQ PUSH2 0xED8 JUMPI DUP1 PUSH4 0xF59B8DB3 EQ PUSH2 0x473 JUMPI DUP1 PUSH4 0xF91E4B29 EQ PUSH2 0x302 JUMPI PUSH4 0xFF96DE21 EQ PUSH2 0x2B3 JUMPI CODESIZE PUSH2 0xF JUMP JUMPDEST CALLVALUE PUSH2 0x2FD JUMPI PUSH2 0x2C1 CALLDATASIZE PUSH2 0x303A JUMP JUMPDEST SWAP1 PUSH1 0x0 MSTORE PUSH1 0x6 PUSH1 0x20 MSTORE PUSH1 0x40 PUSH1 0x0 KECCAK256 DUP1 SLOAD DUP3 LT ISZERO PUSH2 0x2FD JUMPI PUSH1 0x20 SWAP2 PUSH2 0x2E4 SWAP2 PUSH2 0x307C JUMP JUMPDEST SWAP1 SLOAD PUSH1 0x40 MLOAD PUSH1 0x3 SWAP3 SWAP1 SWAP3 SHL SHR PUSH1 0x1 PUSH1 0x1 PUSH1 0xA0 SHL SUB AND DUP2 MSTORE RETURN JUMPDEST PUSH1 0x0 DUP1 REVERT JUMPDEST CALLVALUE PUSH2 0x2FD JUMPI PUSH1 0x20 CALLDATASIZE PUSH1 0x3 NOT ADD SLT PUSH2 0x2FD JUMPI PUSH1 0x4 CALLDATALOAD PUSH1 0x0 MSTORE PUSH1 0x4 PUSH1 0x20 MSTORE PUSH1 0x7 PUSH1 0x40 PUSH1 0x0 KECCAK256 ADD DUP1 SLOAD SWAP1 PUSH2 0x332 DUP3 PUSH2 0x2DC7 JUMP JUMPDEST SWAP2 PUSH2 0x340 PUSH1 0x40 MLOAD SWAP4 DUP5 PUSH2 0x2DA6 JUMP JUMPDEST DUP1 DUP4 MSTORE PUSH1 0x20 DUP4 ADD DUP1 SWAP3 PUSH1 0x0 MSTORE PUSH1 0x20 PUSH1 0x0 KECCAK256 PUSH1 0x0 SWAP2 JUMPDEST DUP4 DUP4 LT PUSH2 0x40B JUMPI DUP5 DUP7 PUSH1 0x40 MLOAD SWAP2 DUP3 SWAP2 PUSH1 0x20 DUP4 ADD SWAP1 PUSH1 0x20 DUP5 MSTORE MLOAD DUP1 SWAP2 MSTORE PUSH1 0x40 DUP4 ADD SWAP1 PUSH1 0x40 DUP2 PUSH1 0x5 SHL DUP6 ADD ADD SWAP3 SWAP2 PUSH1 0x0 SWAP1 JUMPDEST DUP3 DUP3 LT PUSH2 0x394 JUMPI POP POP POP POP SUB SWAP1 RETURN JUMPDEST SWAP2 SWAP4 PUSH1 0x1 SWAP2 SWAP4 SWAP6 POP PUSH1 0x20 DUP1 SWAP2 PUSH1 0x3F NOT DUP10 DUP3 SUB ADD DUP6 MSTORE DUP8 MLOAD SWAP1 PUSH1 0xA0 DUP1 PUSH2 0x3F5 PUSH2 0x3C5 DUP6 MLOAD PUSH1 0xC0 DUP7 MSTORE PUSH1 0xC0 DUP7 ADD SWAP1 PUSH2 0x2FF9 JUMP JUMPDEST DUP7 DUP7 ADD MLOAD DUP8 DUP7 ADD MSTORE PUSH1 0x40 DUP7 ADD MLOAD ISZERO ISZERO PUSH1 0x40 DUP7 ADD MSTORE PUSH1 0x60 DUP7 ADD MLOAD PUSH1 0x60 DUP7 ADD MSTORE PUSH1 0x80 DUP7 ADD MLOAD DUP6 DUP3 SUB PUSH1 0x80 DUP8 ADD MSTORE PUSH2 0x2FF9 JUMP JUMPDEST SWAP4 ADD MLOAD SWAP2 ADD MSTORE SWAP7 ADD SWAP3 ADD SWAP3 ADD DUP6 SWAP5 SWAP4 SWAP2 SWAP3 PUSH2 0x385 JUMP JUMPDEST PUSH1 0x6 PUSH1 0x20 PUSH1 0x1 SWAP3 PUSH1 0x40 MLOAD PUSH2 0x41E DUP2 PUSH2 0x2D8B JUMP JUMPDEST PUSH2 0x427 DUP7 PUSH2 0x2F55 JUMP JUMPDEST DUP2 MSTORE DUP5 DUP7 ADD SLOAD DUP4 DUP3 ADD MSTORE PUSH1 0xFF PUSH1 0x2 DUP8 ADD SLOAD AND ISZERO ISZERO PUSH1 0x40 DUP3 ADD MSTORE PUSH1 0x3 DUP7 ADD SLOAD PUSH1 0x60 DUP3 ADD MSTORE PUSH2 0x456 PUSH1 0x4 DUP8 ADD PUSH2 0x2F55 JUMP JUMPDEST PUSH1 0x80 DUP3 ADD MSTORE PUSH1 0x5 DUP7 ADD SLOAD PUSH1 0xA0 DUP3 ADD MSTORE DUP2 MSTORE ADD SWAP3 ADD SWAP3 ADD SWAP2 SWAP1 PUSH2 0x355 JUMP JUMPDEST CALLVALUE PUSH2 0x2FD JUMPI PUSH2 0x100 CALLDATASIZE PUSH1 0x3 NOT ADD SLT PUSH2 0x2FD JUMPI PUSH1 0x4 CALLDATALOAD PUSH1 0x1 PUSH1 0x1 PUSH1 0x40 SHL SUB DUP2 GT PUSH2 0x2FD JUMPI PUSH2 0x4A4 SWAP1 CALLDATASIZE SWAP1 PUSH1 0x4 ADD PUSH2 0x2DF9 JUMP JUMPDEST PUSH1 0x24 CALLDATALOAD PUSH1 0x44 CALLDATALOAD SWAP2 PUSH1 0x2 DUP4 LT ISZERO PUSH2 0x2FD JUMPI PUSH1 0x64 CALLDATALOAD PUSH1 0x1 PUSH1 0x1 PUSH1 0x40 SHL SUB DUP2 GT PUSH2 0x2FD JUMPI PUSH2 0x4D3 SWAP1 CALLDATASIZE SWAP1 PUSH1 0x4 ADD PUSH2 0x2E40 JUMP JUMPDEST PUSH1 0x84 CALLDATALOAD PUSH1 0x1 PUSH1 0x1 PUSH1 0x40 SHL SUB DUP2 GT PUSH2 0x2FD JUMPI PUSH2 0x4F2 SWAP1 CALLDATASIZE SWAP1 PUSH1 0x4 ADD PUSH2 0x2EBE JUMP JUMPDEST SWAP4 PUSH1 0xA4 CALLDATALOAD PUSH1 0x1 PUSH1 0x1 PUSH1 0x40 SHL SUB DUP2 GT PUSH2 0x2FD JUMPI PUSH2 0x512 SWAP1 CALLDATASIZE SWAP1 PUSH1 0x4 ADD PUSH2 0x2DF9 JUMP JUMPDEST SWAP2 PUSH1 0xC4 CALLDATALOAD PUSH1 0x1 PUSH1 0x1 PUSH1 0x40 SHL SUB DUP2 GT PUSH2 0x2FD JUMPI PUSH2 0x532 SWAP1 CALLDATASIZE SWAP1 PUSH1 0x4 ADD PUSH2 0x2DF9 JUMP JUMPDEST SWAP6 PUSH1 0xE4 CALLDATALOAD PUSH1 0x1 PUSH1 0x1 PUSH1 0x40 SHL SUB DUP2 GT PUSH2 0x2FD JUMPI PUSH2 0x552 SWAP1 CALLDATASIZE SWAP1 PUSH1 0x4 ADD PUSH2 0x2DF9 JUMP JUMPDEST SWAP3 PUSH1 0x1 DUP2 EQ SWAP1 PUSH1 0x0 DUP3 ISZERO PUSH2 0xEC6 JUMPI PUSH8 0x4563918244F40000 DUP10 GT PUSH2 0xE47 JUMPI JUMPDEST PUSH2 0x583 PUSH2 0x57B PUSH2 0x347E JUMP JUMPDEST DUP11 GT ISZERO PUSH2 0x34BD JUMP JUMPDEST DUP5 MLOAD ISZERO DUP1 PUSH2 0xE3E JUMPI JUMPDEST ISZERO PUSH2 0xDE7 JUMPI JUMPDEST PUSH1 0x3 SLOAD PUSH1 0x0 NOT DUP2 EQ PUSH2 0xDD3 JUMPI PUSH1 0x1 ADD DUP1 PUSH1 0x3 SSTORE DUP2 MSTORE PUSH1 0x4 PUSH1 0x20 MSTORE PUSH1 0x40 DUP2 KECCAK256 SWAP2 DUP9 MLOAD PUSH1 0x1 PUSH1 0x1 PUSH1 0x40 SHL SUB DUP2 GT PUSH2 0xDBF JUMPI PUSH2 0x5CB DUP5 SLOAD PUSH2 0x2F1B JUMP JUMPDEST PUSH1 0x1F DUP2 GT PUSH2 0xD8F JUMPI JUMPDEST POP PUSH1 0x20 PUSH1 0x1F DUP3 GT PUSH1 0x1 EQ PUSH2 0xD2D JUMPI SWAP1 DUP1 PUSH2 0x603 SWAP3 DUP6 SWAP2 PUSH2 0xD22 JUMPI JUMPDEST POP DUP2 PUSH1 0x1 SHL SWAP2 PUSH1 0x0 NOT SWAP1 PUSH1 0x3 SHL SHR NOT AND OR SWAP1 JUMP JUMPDEST DUP4 SSTORE JUMPDEST PUSH1 0x1 DUP4 ADD CALLER PUSH12 0xFFFFFFFFFFFFFFFFFFFFFFFF PUSH1 0xA0 SHL DUP3 SLOAD AND OR SWAP1 SSTORE DUP10 PUSH1 0x2 DUP5 ADD SSTORE PUSH3 0x278D00 TIMESTAMP ADD DUP1 TIMESTAMP GT PUSH2 0xAFB JUMPI PUSH1 0x3 DUP5 ADD SSTORE PUSH1 0x6 DUP4 ADD DUP1 SLOAD PUSH2 0xFFFF NOT AND PUSH1 0x8 SWAP3 SWAP1 SWAP3 SHL PUSH2 0xFF00 AND SWAP2 SWAP1 SWAP2 OR SWAP1 SSTORE POP DUP6 MLOAD PUSH1 0xA DUP3 ADD SWAP1 PUSH1 0x1 PUSH1 0x1 PUSH1 0x40 SHL SUB DUP2 GT PUSH2 0xBC6 JUMPI PUSH2 0x674 DUP3 SLOAD PUSH2 0x2F1B JUMP JUMPDEST PUSH1 0x1F DUP2 GT PUSH2 0xCF0 JUMPI JUMPDEST POP PUSH1 0x20 PUSH1 0x1F DUP3 GT PUSH1 0x1 EQ PUSH2 0xC8A JUMPI SWAP1 DUP1 PUSH2 0x6AC SWAP3 PUSH1 0x0 SWAP2 PUSH2 0xC7F JUMPI POP DUP2 PUSH1 0x1 SHL SWAP2 PUSH1 0x0 NOT SWAP1 PUSH1 0x3 SHL SHR NOT AND OR SWAP1 JUMP JUMPDEST SWAP1 SSTORE JUMPDEST PUSH1 0xB DUP2 ADD DUP10 MLOAD PUSH1 0x1 PUSH1 0x1 PUSH1 0x40 SHL SUB DUP2 GT PUSH2 0xBC6 JUMPI PUSH2 0x6CD DUP3 SLOAD PUSH2 0x2F1B JUMP JUMPDEST PUSH1 0x1F DUP2 GT PUSH2 0xC4D JUMPI JUMPDEST POP PUSH1 0x20 PUSH1 0x1F DUP3 GT PUSH1 0x1 EQ PUSH2 0xBE7 JUMPI SWAP1 DUP1 PUSH2 0x705 SWAP3 PUSH1 0x0 SWAP2 PUSH2 0xBDC JUMPI POP DUP2 PUSH1 0x1 SHL SWAP2 PUSH1 0x0 NOT SWAP1 PUSH1 0x3 SHL SHR NOT AND OR SWAP1 JUMP JUMPDEST SWAP1 SSTORE JUMPDEST PUSH1 0xC DUP2 ADD DUP6 MLOAD PUSH1 0x1 PUSH1 0x1 PUSH1 0x40 SHL SUB DUP2 GT PUSH2 0xBC6 JUMPI PUSH2 0x726 DUP3 SLOAD PUSH2 0x2F1B JUMP JUMPDEST PUSH1 0x1F DUP2 GT PUSH2 0xB89 JUMPI JUMPDEST POP PUSH1 0x20 PUSH1 0x1F DUP3 GT PUSH1 0x1 EQ PUSH2 0xB23 JUMPI SWAP1 DUP1 PUSH2 0x75E SWAP3 PUSH1 0x0 SWAP2 PUSH2 0xB18 JUMPI POP DUP2 PUSH1 0x1 SHL SWAP2 PUSH1 0x0 NOT SWAP1 PUSH1 0x3 SHL SHR NOT AND OR SWAP1 JUMP JUMPDEST SWAP1 SSTORE JUMPDEST TIMESTAMP PUSH1 0xD DUP3 ADD SSTORE PUSH1 0x0 SWAP1 DUP3 ISZERO PUSH2 0xB0F JUMPI PUSH3 0x127500 TIMESTAMP ADD DUP1 TIMESTAMP GT PUSH2 0xAFB JUMPI PUSH1 0xE SWAP1 SWAP2 JUMPDEST ADD SSTORE POP ISZERO PUSH2 0xAAD JUMPI POP POP PUSH1 0x3 SLOAD SWAP5 DUP6 PUSH1 0x0 MSTORE PUSH1 0x4 PUSH1 0x20 MSTORE PUSH1 0x40 PUSH1 0x0 KECCAK256 SWAP6 PUSH1 0x1E DUP7 MUL SWAP7 DUP7 ISZERO SWAP8 DUP8 DUP2 DIV PUSH1 0x1E EQ DUP10 OR ISZERO PUSH2 0x96 JUMPI PUSH1 0x64 SWAP1 DIV SWAP1 PUSH1 0x0 SWAP9 PUSH1 0x28 DUP10 MUL SWAP1 DUP10 DUP3 DIV PUSH1 0x28 EQ OR ISZERO PUSH2 0xA99 JUMPI SWAP3 PUSH32 0xBF293DB00F4DE65B181A066ECC2F8BB81FB7174B517FD8085700E259AD00DB1B PUSH1 0xA0 PUSH2 0xA76 SWAP5 PUSH2 0xA84 SWAP8 SWAP5 PUSH1 0x20 SWAP14 PUSH2 0x9EF PUSH1 0x7 PUSH1 0x64 PUSH32 0x9121563D1C77025026A509210D3841BE6BCD23CE5B74A5CC226E13E68FA3A095 SWAP14 SWAP12 DIV SWAP4 ADD SWAP2 PUSH1 0x40 MLOAD SWAP3 PUSH2 0x838 DUP5 PUSH2 0x2D8B JUMP JUMPDEST DUP9 DUP9 PUSH1 0x80 PUSH1 0x40 SWAP9 DUP10 MLOAD PUSH2 0x84B DUP12 DUP3 PUSH2 0x2DA6 JUMP JUMPDEST PUSH1 0x17 DUP2 MSTORE PUSH1 0x20 PUSH23 0x50726F6F66206F6620436F6E63657074206F72204D565 PUSH1 0x4C SHL SWAP1 DUP3 ADD MSTORE DUP9 MSTORE PUSH1 0x20 DUP2 SWAP1 DUP10 ADD MSTORE DUP6 DUP11 DUP10 ADD MSTORE DUP6 PUSH1 0x60 DUP10 ADD MSTORE PUSH1 0x20 PUSH2 0x8A9 SWAP1 SWAP9 DUP12 MLOAD PUSH2 0x897 DUP12 DUP3 PUSH2 0x2DA6 JUMP JUMPDEST DUP9 DUP2 MSTORE DUP5 DUP3 ADD MSTORE DUP8 DUP14 DUP3 ADD MSTORE DUP7 PUSH2 0x363E JUMP JUMPDEST DUP4 DUP4 DUP4 DUP13 PUSH1 0x17 DUP2 MLOAD SWAP2 DUP1 DUP4 MSTORE DUP3 ADD MSTORE PUSH23 0x50726F6F66206F6620436F6E63657074206F72204D565 PUSH1 0x4C SHL PUSH1 0x60 DUP3 ADD MSTORE DUP5 DUP13 DUP3 ADD MSTORE LOG2 PUSH2 0x93A DUP11 MLOAD PUSH2 0x8EC DUP2 PUSH2 0x2D8B JUMP JUMPDEST DUP12 MLOAD PUSH2 0x8F8 DUP14 DUP3 PUSH2 0x2DA6 JUMP JUMPDEST PUSH1 0x18 DUP2 MSTORE PUSH24 0x10995D184BD41C9BDD1BDD1E5C194810DBDB5C1B195D1959 PUSH1 0x42 SHL DUP12 DUP3 ADD MSTORE DUP2 MSTORE DUP3 DUP11 DUP3 ADD MSTORE DUP8 DUP13 DUP3 ADD MSTORE DUP8 PUSH1 0x60 DUP3 ADD MSTORE DUP12 MLOAD PUSH2 0x897 DUP12 DUP3 PUSH2 0x2DA6 JUMP JUMPDEST DUP10 MLOAD SWAP1 DUP11 DUP3 MSTORE PUSH1 0x18 DUP12 DUP4 ADD MSTORE PUSH24 0x10995D184BD41C9BDD1BDD1E5C194810DBDB5C1B195D1959 PUSH1 0x42 SHL PUSH1 0x60 DUP4 ADD MSTORE DUP9 DUP3 ADD MSTORE LOG2 DUP6 MLOAD SWAP2 PUSH2 0x978 DUP4 PUSH2 0x2D8B JUMP JUMPDEST DUP7 MLOAD PUSH2 0x985 PUSH1 0x60 DUP3 PUSH2 0x2DA6 JUMP JUMPDEST PUSH1 0x2A DUP2 MSTORE PUSH32 0x46696E616C2050726F64756374204C61756E6368656420616E64205075626C69 DUP7 DUP3 ADD MSTORE PUSH10 0x636C7920557361626C65 PUSH1 0xB0 SHL DUP9 DUP3 ADD MSTORE DUP4 MSTORE DUP6 DUP6 DUP5 ADD MSTORE DUP1 DUP8 DUP5 ADD MSTORE DUP1 PUSH1 0x60 DUP5 ADD MSTORE DUP7 MLOAD PUSH2 0x9DE DUP7 DUP3 PUSH2 0x2DA6 JUMP JUMPDEST DUP2 DUP2 MSTORE PUSH1 0x80 DUP5 ADD MSTORE DUP8 DUP4 ADD MSTORE PUSH2 0x363E JUMP JUMPDEST PUSH1 0x2A DUP4 MLOAD SWAP4 DUP1 DUP6 MSTORE DUP5 ADD MSTORE PUSH32 0x46696E616C2050726F64756374204C61756E6368656420616E64205075626C69 PUSH1 0x60 DUP5 ADD MSTORE PUSH10 0x636C7920557361626C65 PUSH1 0xB0 SHL PUSH1 0x80 DUP5 ADD MSTORE DUP3 ADD MSTORE LOG2 JUMPDEST PUSH2 0xA68 PUSH1 0x3 SLOAD SWAP9 DUP10 SWAP8 PUSH2 0xA56 PUSH1 0x40 MLOAD SWAP11 PUSH1 0xC0 DUP13 MSTORE PUSH1 0xC0 DUP13 ADD SWAP1 PUSH2 0x2FF9 JUMP JUMPDEST SWAP2 DUP13 DUP12 ADD MSTORE DUP10 DUP3 SUB PUSH1 0x40 DUP12 ADD MSTORE PUSH2 0x2FF9 JUMP JUMPDEST SWAP1 DUP8 DUP3 SUB PUSH1 0x60 DUP10 ADD MSTORE PUSH2 0x2FF9 JUMP JUMPDEST SWAP1 DUP6 DUP3 SUB PUSH1 0x80 DUP8 ADD MSTORE PUSH2 0x2FF9 JUMP JUMPDEST SWAP3 TIMESTAMP PUSH1 0xA0 DUP3 ADD MSTORE DUP1 CALLER SWAP5 SUB SWAP1 LOG3 PUSH1 0x40 MLOAD SWAP1 DUP2 MSTORE RETURN JUMPDEST PUSH4 0x4E487B71 PUSH1 0xE0 SHL DUP11 MSTORE PUSH1 0x11 PUSH1 0x4 MSTORE PUSH1 0x24 DUP11 REVERT JUMPDEST SWAP2 PUSH2 0xA76 PUSH1 0x20 SWAP8 DUP4 PUSH32 0x9121563D1C77025026A509210D3841BE6BCD23CE5B74A5CC226E13E68FA3A095 SWAP6 PUSH2 0xA84 SWAP6 MLOAD PUSH2 0xAE8 JUMPI JUMPDEST POP POP PUSH2 0xA38 JUMP JUMPDEST PUSH2 0xAF4 SWAP2 PUSH1 0x3 SLOAD PUSH2 0x38B9 JUMP JUMPDEST DUP10 DUP1 PUSH2 0xAE1 JUMP JUMPDEST PUSH4 0x4E487B71 PUSH1 0xE0 SHL DUP4 MSTORE PUSH1 0x11 PUSH1 0x4 MSTORE PUSH1 0x24 DUP4 REVERT JUMPDEST PUSH1 0xE DUP3 SWAP2 PUSH2 0x782 JUMP JUMPDEST SWAP1 POP DUP9 ADD MLOAD DUP14 PUSH2 0x5EF JUMP JUMPDEST PUSH1 0x1F NOT DUP3 AND SWAP1 DUP4 PUSH1 0x0 MSTORE DUP1 PUSH1 0x0 KECCAK256 SWAP2 PUSH1 0x0 JUMPDEST DUP11 DUP3 DUP3 LT PUSH2 0xB71 JUMPI POP POP SWAP1 DUP4 PUSH1 0x1 SWAP5 SWAP4 SWAP3 LT PUSH2 0xB58 JUMPI JUMPDEST POP POP DUP2 SHL ADD SWAP1 SSTORE PUSH2 0x761 JUMP JUMPDEST DUP10 ADD MLOAD PUSH1 0x0 NOT PUSH1 0xF8 DUP5 PUSH1 0x3 SHL AND SHR NOT AND SWAP1 SSTORE DUP13 DUP1 PUSH2 0xB4C JUMP JUMPDEST PUSH1 0x1 DUP5 SWAP6 PUSH1 0x20 SWAP4 SWAP6 DUP5 SWAP4 ADD MLOAD DUP2 SSTORE ADD SWAP5 ADD SWAP3 ADD PUSH2 0xB35 JUMP JUMPDEST PUSH2 0xBB6 SWAP1 DUP4 PUSH1 0x0 MSTORE PUSH1 0x20 PUSH1 0x0 KECCAK256 PUSH1 0x1F DUP5 ADD PUSH1 0x5 SHR DUP2 ADD SWAP2 PUSH1 0x20 DUP6 LT PUSH2 0xBBC JUMPI JUMPDEST PUSH1 0x1F ADD PUSH1 0x5 SHR ADD SWAP1 PUSH2 0x312F JUMP JUMPDEST DUP12 PUSH2 0x72F JUMP JUMPDEST SWAP1 SWAP2 POP DUP2 SWAP1 PUSH2 0xBA9 JUMP JUMPDEST PUSH4 0x4E487B71 PUSH1 0xE0 SHL PUSH1 0x0 MSTORE PUSH1 0x41 PUSH1 0x4 MSTORE PUSH1 0x24 PUSH1 0x0 REVERT JUMPDEST SWAP1 POP DUP13 ADD MLOAD DUP14 PUSH2 0x5EF JUMP JUMPDEST PUSH1 0x0 DUP4 DUP2 MSTORE DUP2 DUP2 KECCAK256 SWAP2 SWAP1 PUSH1 0x1F NOT DUP5 AND SWAP1 DUP15 JUMPDEST DUP3 DUP3 LT PUSH2 0xC34 JUMPI POP POP SWAP1 DUP4 PUSH1 0x1 SWAP5 SWAP4 SWAP3 LT PUSH2 0xC1B JUMPI JUMPDEST POP POP DUP2 SHL ADD SWAP1 SSTORE PUSH2 0x708 JUMP JUMPDEST DUP14 ADD MLOAD PUSH1 0x0 NOT PUSH1 0xF8 DUP5 PUSH1 0x3 SHL AND SHR NOT AND SWAP1 SSTORE DUP13 DUP1 PUSH2 0xC0F JUMP JUMPDEST PUSH1 0x1 DUP5 SWAP6 PUSH1 0x20 SWAP4 SWAP6 DUP5 SWAP4 ADD MLOAD DUP2 SSTORE ADD SWAP5 ADD SWAP3 ADD DUP15 PUSH2 0xBF9 JUMP JUMPDEST PUSH2 0xC79 SWAP1 DUP4 PUSH1 0x0 MSTORE PUSH1 0x20 PUSH1 0x0 KECCAK256 PUSH1 0x1F DUP5 ADD PUSH1 0x5 SHR DUP2 ADD SWAP2 PUSH1 0x20 DUP6 LT PUSH2 0xBBC JUMPI PUSH1 0x1F ADD PUSH1 0x5 SHR ADD SWAP1 PUSH2 0x312F JUMP JUMPDEST DUP12 PUSH2 0x6D6 JUMP JUMPDEST SWAP1 POP DUP10 ADD MLOAD DUP14 PUSH2 0x5EF JUMP JUMPDEST PUSH1 0x1F NOT DUP3 AND SWAP1 DUP4 PUSH1 0x0 MSTORE DUP1 PUSH1 0x0 KECCAK256 SWAP2 PUSH1 0x0 JUMPDEST DUP12 DUP3 DUP3 LT PUSH2 0xCD8 JUMPI POP POP SWAP1 DUP4 PUSH1 0x1 SWAP5 SWAP4 SWAP3 LT PUSH2 0xCBF JUMPI JUMPDEST POP POP DUP2 SHL ADD SWAP1 SSTORE PUSH2 0x6AF JUMP JUMPDEST DUP11 ADD MLOAD PUSH1 0x0 NOT PUSH1 0xF8 DUP5 PUSH1 0x3 SHL AND SHR NOT AND SWAP1 SSTORE DUP13 DUP1 PUSH2 0xCB3 JUMP JUMPDEST PUSH1 0x1 DUP5 SWAP6 PUSH1 0x20 SWAP4 SWAP6 DUP5 SWAP4 ADD MLOAD DUP2 SSTORE ADD SWAP5 ADD SWAP3 ADD PUSH2 0xC9C JUMP JUMPDEST PUSH2 0xD1C SWAP1 DUP4 PUSH1 0x0 MSTORE PUSH1 0x20 PUSH1 0x0 KECCAK256 PUSH1 0x1F DUP5 ADD PUSH1 0x5 SHR DUP2 ADD SWAP2 PUSH1 0x20 DUP6 LT PUSH2 0xBBC JUMPI PUSH1 0x1F ADD PUSH1 0x5 SHR ADD SWAP1 PUSH2 0x312F JUMP JUMPDEST DUP12 PUSH2 0x67D JUMP JUMPDEST SWAP1 POP DUP12 ADD MLOAD DUP15 PUSH2 0x5EF JUMP JUMPDEST DUP5 DUP5 MSTORE DUP1 DUP5 KECCAK256 SWAP1 PUSH1 0x1F NOT DUP4 AND DUP6 JUMPDEST DUP14 DUP3 DUP3 LT PUSH2 0xD77 JUMPI POP POP SWAP1 DUP4 PUSH1 0x1 SWAP5 SWAP4 SWAP3 LT PUSH2 0xD5E JUMPI JUMPDEST POP POP DUP2 SHL ADD DUP4 SSTORE PUSH2 0x606 JUMP JUMPDEST DUP13 ADD MLOAD PUSH1 0x0 NOT PUSH1 0xF8 DUP5 PUSH1 0x3 SHL AND SHR NOT AND SWAP1 SSTORE DUP14 DUP1 PUSH2 0xD52 JUMP JUMPDEST PUSH1 0x1 DUP5 SWAP6 PUSH1 0x20 SWAP4 SWAP6 DUP5 SWAP4 ADD MLOAD DUP2 SSTORE ADD SWAP5 ADD SWAP3 ADD PUSH2 0xD3B JUMP JUMPDEST PUSH2 0xDB9 SWAP1 DUP6 DUP6 MSTORE PUSH1 0x20 DUP6 KECCAK256 PUSH1 0x1F DUP5 ADD PUSH1 0x5 SHR DUP2 ADD SWAP2 PUSH1 0x20 DUP6 LT PUSH2 0xBBC JUMPI PUSH1 0x1F ADD PUSH1 0x5 SHR ADD SWAP1 PUSH2 0x312F JUMP JUMPDEST DUP13 PUSH2 0x5D4 JUMP JUMPDEST PUSH4 0x4E487B71 PUSH1 0xE0 SHL DUP4 MSTORE PUSH1 0x41 PUSH1 0x4 MSTORE PUSH1 0x24 DUP4 REVERT JUMPDEST PUSH4 0x4E487B71 PUSH1 0xE0 SHL DUP3 MSTORE PUSH1 0x11 PUSH1 0x4 MSTORE PUSH1 0x24 DUP3 REVERT JUMPDEST PUSH1 0x40 MLOAD PUSH3 0x461BCD PUSH1 0xE5 SHL DUP2 MSTORE PUSH1 0x20 PUSH1 0x4 DUP3 ADD MSTORE PUSH1 0x29 PUSH1 0x24 DUP3 ADD MSTORE PUSH32 0x5472656173757279204772616E74732075736520707265646566696E6564206D PUSH1 0x44 DUP3 ADD MSTORE PUSH9 0x696C6573746F6E6573 PUSH1 0xB8 SHL PUSH1 0x64 DUP3 ADD MSTORE PUSH1 0x84 SWAP1 REVERT JUMPDEST POP DUP4 MLOAD ISZERO PUSH2 0x58C JUMP JUMPDEST CALLER DUP2 MSTORE PUSH1 0xB PUSH1 0x20 MSTORE PUSH1 0xFF PUSH1 0x40 DUP3 KECCAK256 SLOAD AND PUSH2 0x570 JUMPI PUSH1 0x40 MLOAD PUSH3 0x461BCD PUSH1 0xE5 SHL DUP2 MSTORE PUSH1 0x20 PUSH1 0x4 DUP3 ADD MSTORE PUSH1 0x38 PUSH1 0x24 DUP3 ADD MSTORE PUSH32 0x4B594320766572696669636174696F6E20726571756972656420666F72205472 PUSH1 0x44 DUP3 ADD MSTORE PUSH32 0x656173757279204772616E7473206F7665722035204554480000000000000000 PUSH1 0x64 DUP3 ADD MSTORE PUSH1 0x84 SWAP1 REVERT JUMPDEST PUSH2 0xED3 DUP6 MLOAD DUP6 MLOAD EQ PUSH2 0x30ED JUMP JUMPDEST PUSH2 0x592 JUMP JUMPDEST CALLVALUE PUSH2 0x2FD JUMPI PUSH1 0x20 CALLDATASIZE PUSH1 0x3 NOT ADD SLT PUSH2 0x2FD JUMPI PUSH1 0x1 PUSH1 0x1 PUSH1 0xA0 SHL SUB PUSH2 0xEF9 PUSH2 0x3066 JUMP JUMPDEST AND PUSH1 0x0 MSTORE PUSH1 0xD PUSH1 0x20 MSTORE PUSH1 0x20 PUSH1 0x40 PUSH1 0x0 KECCAK256 SLOAD PUSH1 0x40 MLOAD SWAP1 DUP2 MSTORE RETURN JUMPDEST CALLVALUE PUSH2 0x2FD JUMPI PUSH1 0x20 CALLDATASIZE PUSH1 0x3 NOT ADD SLT PUSH2 0x2FD JUMPI PUSH2 0xF2B PUSH2 0x3066 JUMP JUMPDEST PUSH2 0xF33 PUSH2 0x3A4F JUMP JUMPDEST PUSH1 0x1 PUSH1 0x1 PUSH1 0xA0 SHL SUB AND DUP1 ISZERO PUSH2 0xF86 JUMPI PUSH1 0x1 DUP1 SLOAD PUSH1 0x1 PUSH1 0x1 PUSH1 0xA0 SHL SUB NOT DUP2 AND DUP4 OR SWAP1 SWAP2 SSTORE PUSH1 0x1 PUSH1 0x1 PUSH1 0xA0 SHL SUB AND PUSH32 0x8BE0079C531659141344CD1FD0A4F28419497F9722A3DAAFE3B4186F6B6457E0 PUSH1 0x0 DUP1 LOG3 STOP JUMPDEST PUSH4 0x1E4FBDF7 PUSH1 0xE0 SHL PUSH1 0x0 MSTORE PUSH1 0x0 PUSH1 0x4 MSTORE PUSH1 0x24 PUSH1 0x0 REVERT JUMPDEST CALLVALUE PUSH2 0x2FD JUMPI PUSH1 0x0 CALLDATASIZE PUSH1 0x3 NOT ADD SLT PUSH2 0x2FD JUMPI PUSH2 0x37 PUSH2 0x3A4F JUMP JUMPDEST CALLVALUE PUSH2 0x2FD JUMPI PUSH1 0x0 CALLDATASIZE PUSH1 0x3 NOT ADD SLT PUSH2 0x2FD JUMPI PUSH1 0x20 PUSH1 0xA SLOAD PUSH1 0x40 MLOAD SWAP1 DUP2 MSTORE RETURN JUMPDEST CALLVALUE PUSH2 0x2FD JUMPI PUSH1 0x40 CALLDATASIZE PUSH1 0x3 NOT ADD SLT PUSH2 0x2FD JUMPI PUSH2 0x1018 PUSH1 0x4 CALLDATALOAD PUSH2 0xFF2 PUSH2 0x3050 JUMP JUMPDEST SWAP1 PUSH2 0x1013 PUSH2 0x100E DUP3 PUSH1 0x0 MSTORE PUSH1 0x2 PUSH1 0x20 MSTORE PUSH1 0x1 PUSH1 0x40 PUSH1 0x0 KECCAK256 ADD SLOAD SWAP1 JUMP JUMPDEST PUSH2 0x35ED JUMP JUMPDEST PUSH2 0x3A78 JUMP JUMPDEST STOP JUMPDEST CALLVALUE PUSH2 0x2FD JUMPI PUSH1 0x20 CALLDATASIZE PUSH1 0x3 NOT ADD SLT PUSH2 0x2FD JUMPI PUSH1 0x4 CALLDATALOAD PUSH1 0x0 MSTORE PUSH1 0x4 PUSH1 0x20 MSTORE PUSH1 0x20 PUSH1 0x5 PUSH1 0x40 PUSH1 0x0 KECCAK256 ADD SLOAD PUSH1 0x40 MLOAD SWAP1 DUP2 MSTORE RETURN JUMPDEST CALLVALUE PUSH2 0x2FD JUMPI PUSH1 0x0 CALLDATASIZE PUSH1 0x3 NOT ADD SLT PUSH2 0x2FD JUMPI PUSH1 0x20 PUSH1 0x9 SLOAD PUSH1 0x40 MLOAD SWAP1 DUP2 MSTORE RETURN JUMPDEST CALLVALUE PUSH2 0x2FD JUMPI PUSH2 0x1075 CALLDATASIZE PUSH2 0x303A JUMP JUMPDEST SWAP1 PUSH2 0x107E PUSH2 0x39A5 JUMP JUMPDEST DUP1 PUSH1 0x0 MSTORE PUSH1 0x4 PUSH1 0x20 MSTORE PUSH1 0x40 PUSH1 0x0 KECCAK256 SWAP2 PUSH2 0x10A4 PUSH1 0x1 DUP1 PUSH1 0xA0 SHL SUB PUSH1 0x1 DUP6 ADD SLOAD AND CALLER EQ PUSH2 0x3195 JUMP JUMPDEST PUSH1 0xFF PUSH1 0x6 DUP5 ADD SLOAD PUSH1 0x8 SHR AND SWAP1 PUSH1 0x2 DUP3 LT ISZERO PUSH2 0x1212 JUMPI PUSH2 0x10C8 PUSH1 0x1 PUSH2 0x10DD SWAP4 EQ PUSH2 0x30AA JUMP JUMPDEST PUSH1 0x7 DUP5 ADD PUSH2 0x10D8 DUP2 SLOAD DUP4 LT PUSH2 0x3347 JUMP JUMPDEST PUSH2 0x3387 JUMP JUMPDEST POP PUSH1 0xFF PUSH1 0x2 DUP3 ADD SLOAD AND ISZERO PUSH2 0x11CD JUMPI PUSH1 0x1 PUSH1 0x8 SWAP2 ADD SWAP3 PUSH1 0x0 DUP5 SLOAD SWAP5 PUSH2 0x1102 DUP7 ISZERO ISZERO PUSH2 0x3220 JUMP JUMPDEST PUSH8 0x4563918244F40000 DUP7 GT PUSH2 0x1183 JUMPI JUMPDEST SSTORE ADD PUSH2 0x111F DUP4 DUP3 SLOAD PUSH2 0x32FC JUMP JUMPDEST SWAP1 SSTORE PUSH2 0x113B PUSH1 0x0 DUP1 DUP1 DUP1 DUP7 CALLER GAS CALL PUSH2 0x1135 PUSH2 0x32CC JUMP JUMPDEST POP PUSH2 0x3309 JUMP JUMPDEST PUSH1 0x40 MLOAD SWAP2 DUP3 MSTORE PUSH1 0x0 PUSH1 0x20 DUP4 ADD MSTORE PUSH1 0x0 PUSH1 0x40 DUP4 ADD MSTORE PUSH1 0x0 PUSH1 0x60 DUP4 ADD MSTORE PUSH32 0xFD8443316DCAF390C4480028D81568298BB47A1D097857F2F1FBD54B06763345 PUSH1 0x80 CALLER SWAP4 LOG3 PUSH1 0x1 PUSH1 0x0 SSTORE STOP JUMPDEST CALLER DUP3 MSTORE PUSH1 0xB PUSH1 0x20 MSTORE PUSH1 0xFF PUSH1 0x40 DUP4 KECCAK256 SLOAD AND DUP1 ISZERO PUSH2 0x11A8 JUMPI JUMPDEST PUSH2 0x11A3 SWAP1 PUSH2 0x3263 JUMP JUMPDEST PUSH2 0x1112 JUMP JUMPDEST POP CALLER DUP3 MSTORE PUSH1 0xC PUSH1 0x20 MSTORE PUSH1 0x40 DUP3 KECCAK256 DUP6 DUP4 MSTORE PUSH1 0x20 MSTORE PUSH2 0x11A3 PUSH1 0xFF PUSH1 0x40 DUP5 KECCAK256 SLOAD AND SWAP1 POP PUSH2 0x119A JUMP JUMPDEST PUSH1 0x40 MLOAD PUSH3 0x461BCD PUSH1 0xE5 SHL DUP2 MSTORE PUSH1 0x20 PUSH1 0x4 DUP3 ADD MSTORE PUSH1 0x17 PUSH1 0x24 DUP3 ADD MSTORE PUSH32 0x4D696C6573746F6E65206E6F7420636F6D706C65746564000000000000000000 PUSH1 0x44 DUP3 ADD MSTORE PUSH1 0x64 SWAP1 REVERT JUMPDEST PUSH4 0x4E487B71 PUSH1 0xE0 SHL PUSH1 0x0 MSTORE PUSH1 0x21 PUSH1 0x4 MSTORE PUSH1 0x24 PUSH1 0x0 REVERT JUMPDEST CALLVALUE PUSH2 0x2FD JUMPI PUSH1 0x60 CALLDATASIZE PUSH1 0x3 NOT ADD SLT PUSH2 0x2FD JUMPI PUSH1 0x4 CALLDATALOAD PUSH2 0x1244 PUSH2 0x3050 JUMP JUMPDEST SWAP1 PUSH1 0x44 CALLDATALOAD SWAP2 DUP3 ISZERO ISZERO SWAP1 DUP2 DUP5 SUB PUSH2 0x2FD JUMPI PUSH32 0x885A8505418BE302BB27E84BCD18370FF6C55E6300A82C065E4ABC658C0E5480 SWAP2 PUSH2 0x12B6 PUSH1 0x20 SWAP3 PUSH2 0x1284 PUSH2 0x357B JUMP JUMPDEST PUSH1 0x1 DUP1 PUSH1 0xA0 SHL SUB AND SWAP6 DUP7 PUSH1 0x0 MSTORE PUSH1 0xC DUP5 MSTORE PUSH1 0x40 PUSH1 0x0 KECCAK256 DUP7 PUSH1 0x0 MSTORE DUP5 MSTORE PUSH1 0x40 PUSH1 0x0 KECCAK256 SWAP1 PUSH1 0xFF DUP1 NOT DUP4 SLOAD AND SWAP2 ISZERO ISZERO AND OR SWAP1 SSTORE JUMP JUMPDEST PUSH1 0x40 MLOAD SWAP1 DUP2 MSTORE LOG3 STOP JUMPDEST CALLVALUE PUSH2 0x2FD JUMPI PUSH1 0x0 CALLDATASIZE PUSH1 0x3 NOT ADD SLT PUSH2 0x2FD JUMPI PUSH1 0x20 PUSH1 0x40 MLOAD PUSH32 0x72C3EEC1760BF69946625C2D4FB8E44E2C806345041960B434674FB9AB3976CF DUP2 MSTORE RETURN JUMPDEST CALLVALUE PUSH2 0x2FD JUMPI PUSH1 0x0 CALLDATASIZE PUSH1 0x3 NOT ADD SLT PUSH2 0x2FD JUMPI PUSH1 0x20 PUSH1 0x40 MLOAD PUSH1 0x0 DUP2 MSTORE RETURN JUMPDEST CALLVALUE PUSH2 0x2FD JUMPI PUSH1 0x60 CALLDATASIZE PUSH1 0x3 NOT ADD SLT PUSH2 0x2FD JUMPI PUSH1 0x24 CALLDATALOAD PUSH1 0x4 CALLDATALOAD PUSH1 0x44 CALLDATALOAD PUSH1 0x1 PUSH1 0x1 PUSH1 0x40 SHL SUB DUP2 GT PUSH2 0x2FD JUMPI PUSH2 0x134C SWAP1 CALLDATASIZE SWAP1 PUSH1 0x4 ADD PUSH2 0x2DF9 JUMP JUMPDEST DUP2 PUSH1 0x0 MSTORE PUSH1 0x4 PUSH1 0x20 MSTORE PUSH1 0x40 PUSH1 0x0 KECCAK256 PUSH2 0x1371 PUSH1 0x1 DUP1 PUSH1 0xA0 SHL SUB PUSH1 0x1 DUP4 ADD SLOAD AND CALLER EQ PUSH2 0x3195 JUMP JUMPDEST PUSH1 0xFF PUSH1 0x6 DUP3 ADD SLOAD PUSH1 0x8 SHR AND SWAP1 PUSH1 0x2 DUP3 LT ISZERO PUSH2 0x1212 JUMPI PUSH1 0x7 DUP6 SWAP2 PUSH2 0x1399 PUSH1 0x1 PUSH2 0x13A6 SWAP6 EQ PUSH2 0x30AA JUMP JUMPDEST ADD PUSH2 0x10D8 DUP2 SLOAD DUP4 LT PUSH2 0x3347 JUMP JUMPDEST POP PUSH2 0x13B8 PUSH1 0xFF PUSH1 0x2 DUP4 ADD SLOAD AND ISZERO PUSH2 0x33A3 JUMP JUMPDEST PUSH1 0x5 DUP2 ADD SLOAD DUP1 ISZERO SWAP1 DUP2 ISZERO PUSH2 0x156A JUMPI JUMPDEST POP ISZERO PUSH2 0x152D JUMPI PUSH1 0x4 ADD SWAP3 DUP2 MLOAD SWAP4 PUSH1 0x1 PUSH1 0x1 PUSH1 0x40 SHL SUB DUP6 GT PUSH2 0xBC6 JUMPI PUSH2 0x13EC DUP2 SLOAD PUSH2 0x2F1B JUMP JUMPDEST PUSH1 0x1F DUP2 GT PUSH2 0x14FB JUMPI JUMPDEST POP PUSH1 0x20 PUSH1 0x1F DUP7 GT PUSH1 0x1 EQ PUSH2 0x1475 JUMPI DUP6 PUSH32 0xAA0DA233CBE2F0FC818E5DDB1128D22FCF012DF42CD15BBACBFDAAC288C0F1DF SWAP6 SWAP7 PUSH2 0x1446 SWAP3 PUSH1 0x0 SWAP2 PUSH2 0x146A JUMPI POP DUP2 PUSH1 0x1 SHL SWAP2 PUSH1 0x0 NOT SWAP1 PUSH1 0x3 SHL SHR NOT AND OR SWAP1 JUMP JUMPDEST SWAP1 SSTORE JUMPDEST PUSH2 0x1465 PUSH1 0x40 MLOAD SWAP3 DUP4 SWAP3 DUP4 MSTORE PUSH1 0x40 PUSH1 0x20 DUP5 ADD MSTORE PUSH1 0x40 DUP4 ADD SWAP1 PUSH2 0x2FF9 JUMP JUMPDEST SUB SWAP1 LOG2 STOP JUMPDEST SWAP1 POP DUP6 ADD MLOAD DUP9 PUSH2 0x5EF JUMP JUMPDEST PUSH1 0x1F NOT DUP7 AND SWAP1 DUP3 PUSH1 0x0 MSTORE DUP1 PUSH1 0x0 KECCAK256 SWAP2 PUSH1 0x0 JUMPDEST DUP2 DUP2 LT PUSH2 0x14E3 JUMPI POP SWAP2 DUP8 SWAP2 PUSH32 0xAA0DA233CBE2F0FC818E5DDB1128D22FCF012DF42CD15BBACBFDAAC288C0F1DF SWAP8 SWAP9 PUSH1 0x1 SWAP5 LT PUSH2 0x14CA JUMPI JUMPDEST POP POP DUP2 SHL ADD SWAP1 SSTORE PUSH2 0x1449 JUMP JUMPDEST DUP7 ADD MLOAD PUSH1 0x0 NOT PUSH1 0xF8 DUP5 PUSH1 0x3 SHL AND SHR NOT AND SWAP1 SSTORE DUP8 DUP1 PUSH2 0x14BE JUMP JUMPDEST SWAP2 SWAP3 PUSH1 0x20 PUSH1 0x1 DUP2 SWAP3 DUP7 DUP11 ADD MLOAD DUP2 SSTORE ADD SWAP5 ADD SWAP3 ADD PUSH2 0x1487 JUMP JUMPDEST PUSH2 0x1527 SWAP1 DUP3 PUSH1 0x0 MSTORE PUSH1 0x20 PUSH1 0x0 KECCAK256 PUSH1 0x1F DUP9 ADD PUSH1 0x5 SHR DUP2 ADD SWAP2 PUSH1 0x20 DUP10 LT PUSH2 0xBBC JUMPI PUSH1 0x1F ADD PUSH1 0x5 SHR ADD SWAP1 PUSH2 0x312F JUMP JUMPDEST DUP6 PUSH2 0x13F5 JUMP JUMPDEST PUSH1 0x40 MLOAD PUSH3 0x461BCD PUSH1 0xE5 SHL DUP2 MSTORE PUSH1 0x20 PUSH1 0x4 DUP3 ADD MSTORE PUSH1 0x15 PUSH1 0x24 DUP3 ADD MSTORE PUSH21 0x2932B9BAB136B4B9B9B4B7B7103A37B79039B7B7B7 PUSH1 0x59 SHL PUSH1 0x44 DUP3 ADD MSTORE PUSH1 0x64 SWAP1 REVERT JUMPDEST SWAP1 POP PUSH3 0x93A80 DUP2 ADD DUP1 SWAP2 GT PUSH2 0x96 JUMPI TIMESTAMP LT ISZERO DUP6 PUSH2 0x13C7 JUMP JUMPDEST CALLVALUE PUSH2 0x2FD JUMPI PUSH1 0x20 CALLDATASIZE PUSH1 0x3 NOT ADD SLT PUSH2 0x2FD JUMPI PUSH1 0x4 CALLDATALOAD DUP1 PUSH1 0x0 MSTORE PUSH1 0x4 PUSH1 0x20 MSTORE PUSH1 0x40 PUSH1 0x0 KECCAK256 PUSH1 0xFF PUSH1 0x6 DUP3 ADD SLOAD PUSH1 0x8 SHR AND PUSH1 0x2 DUP2 LT ISZERO PUSH2 0x1212 JUMPI PUSH2 0x15C5 PUSH1 0x1 DUP5 SWAP3 EQ PUSH2 0x30AA JUMP JUMPDEST PUSH1 0x0 SWAP2 DUP3 SWAP2 PUSH1 0x7 DUP3 ADD SWAP2 DUP4 JUMPDEST DUP4 SLOAD DUP2 LT ISZERO PUSH2 0x1651 JUMPI PUSH2 0x15E4 DUP2 DUP6 PUSH2 0x3387 JUMP JUMPDEST POP PUSH1 0x5 DUP2 ADD SLOAD DUP1 ISZERO ISZERO SWAP1 DUP2 PUSH2 0x1641 JUMPI JUMPDEST DUP2 PUSH2 0x1629 JUMPI JUMPDEST POP PUSH2 0x1609 JUMPI JUMPDEST POP PUSH1 0x1 ADD PUSH2 0x15D1 JUMP JUMPDEST PUSH1 0x0 SWAP2 SWAP6 POP PUSH1 0x1 PUSH2 0x161E SWAP2 ADD SWAP7 DUP8 SLOAD SWAP1 PUSH2 0x32FC JUMP JUMPDEST SWAP6 SSTORE PUSH1 0x1 SWAP4 DUP5 PUSH2 0x1600 JUMP JUMPDEST SWAP1 POP PUSH3 0x93A80 DUP2 ADD DUP1 SWAP2 GT PUSH2 0x96 JUMPI TIMESTAMP LT ISZERO DUP9 PUSH2 0x15FA JUMP JUMPDEST PUSH1 0x2 DUP4 ADD SLOAD PUSH1 0xFF AND ISZERO SWAP2 POP PUSH2 0x15F4 JUMP JUMPDEST POP DUP5 SWAP1 DUP5 DUP1 PUSH2 0x170A JUMPI JUMPDEST PUSH2 0x1661 JUMPI STOP JUMPDEST PUSH1 0x8 PUSH1 0x4 DUP3 ADD SWAP2 PUSH2 0x1673 DUP5 DUP5 SLOAD PUSH2 0x3213 JUMP JUMPDEST DUP1 SWAP4 SSTORE ADD SSTORE PUSH2 0x1684 DUP2 PUSH1 0xA SLOAD PUSH2 0x3213 JUMP JUMPDEST PUSH1 0xA SSTORE PUSH1 0x0 DUP1 DUP1 DUP1 DUP5 PUSH1 0x1 DUP1 PUSH1 0xA0 SHL SUB PUSH1 0x7 SLOAD AND GAS CALL PUSH2 0x16A2 PUSH2 0x32CC JUMP JUMPDEST POP ISZERO PUSH2 0x16D5 JUMPI PUSH1 0x20 PUSH32 0x65D1BF7FE298DDA4759CDBF89B1EF35E330A7D44469B44F8913A712067AEEE1F SWAP2 PUSH1 0x40 MLOAD SWAP1 DUP2 MSTORE LOG2 STOP JUMPDEST PUSH1 0x40 MLOAD PUSH3 0x461BCD PUSH1 0xE5 SHL DUP2 MSTORE PUSH1 0x20 PUSH1 0x4 DUP3 ADD MSTORE PUSH1 0xD PUSH1 0x24 DUP3 ADD MSTORE PUSH13 0x1499599D5B990819985A5B1959 PUSH1 0x9A SHL PUSH1 0x44 DUP3 ADD MSTORE PUSH1 0x64 SWAP1 REVERT JUMPDEST POP DUP2 ISZERO ISZERO PUSH2 0x165B JUMP JUMPDEST CALLVALUE PUSH2 0x2FD JUMPI PUSH1 0x40 CALLDATASIZE PUSH1 0x3 NOT ADD SLT PUSH2 0x2FD JUMPI PUSH2 0x172C PUSH2 0x3050 JUMP JUMPDEST PUSH1 0x4 CALLDATALOAD PUSH1 0x0 MSTORE PUSH1 0x2 PUSH1 0x20 MSTORE PUSH1 0x40 PUSH1 0x0 KECCAK256 SWAP1 PUSH1 0x1 DUP1 PUSH1 0xA0 SHL SUB AND PUSH1 0x0 MSTORE PUSH1 0x20 MSTORE PUSH1 0x20 PUSH1 0xFF PUSH1 0x40 PUSH1 0x0 KECCAK256 SLOAD AND PUSH1 0x40 MLOAD SWAP1 ISZERO ISZERO DUP2 MSTORE RETURN JUMPDEST CALLVALUE PUSH2 0x2FD JUMPI PUSH1 0x0 CALLDATASIZE PUSH1 0x3 NOT ADD SLT PUSH2 0x2FD JUMPI PUSH1 0x1 SLOAD PUSH1 0x40 MLOAD PUSH1 0x1 PUSH1 0x1 PUSH1 0xA0 SHL SUB SWAP1 SWAP2 AND DUP2 MSTORE PUSH1 0x20 SWAP1 RETURN JUMPDEST CALLVALUE PUSH2 0x2FD JUMPI PUSH1 0x0 CALLDATASIZE PUSH1 0x3 NOT ADD SLT PUSH2 0x2FD JUMPI PUSH1 0x20 PUSH1 0x40 MLOAD PUSH8 0x4563918244F40000 DUP2 MSTORE RETURN JUMPDEST CALLVALUE PUSH2 0x2FD JUMPI PUSH1 0x0 CALLDATASIZE PUSH1 0x3 NOT ADD SLT PUSH2 0x2FD JUMPI PUSH1 0x7 SLOAD PUSH1 0x40 MLOAD PUSH1 0x1 PUSH1 0x1 PUSH1 0xA0 SHL SUB SWAP1 SWAP2 AND DUP2 MSTORE PUSH1 0x20 SWAP1 RETURN JUMPDEST CALLVALUE PUSH2 0x2FD JUMPI PUSH1 0x40 CALLDATASIZE PUSH1 0x3 NOT ADD SLT PUSH2 0x2FD JUMPI PUSH1 0x1 PUSH1 0x1 PUSH1 0xA0 SHL SUB PUSH2 0x17F6 PUSH2 0x3066 JUMP JUMPDEST AND PUSH1 0x0 MSTORE PUSH1 0x5 PUSH1 0x20 MSTORE PUSH1 0x40 PUSH1 0x0 KECCAK256 PUSH1 0x24 CALLDATALOAD PUSH1 0x0 MSTORE PUSH1 0x20 MSTORE PUSH1 0x20 PUSH1 0x40 PUSH1 0x0 KECCAK256 SLOAD PUSH1 0x40 MLOAD SWAP1 DUP2 MSTORE RETURN JUMPDEST CALLVALUE PUSH2 0x2FD JUMPI PUSH1 0x0 CALLDATASIZE PUSH1 0x3 NOT ADD SLT PUSH2 0x2FD JUMPI PUSH2 0x1836 PUSH2 0x3A4F JUMP JUMPDEST PUSH1 0x1 DUP1 SLOAD PUSH1 0x1 PUSH1 0x1 PUSH1 0xA0 SHL SUB NOT DUP2 AND SWAP1 SWAP2 SSTORE PUSH1 0x0 SWAP1 PUSH1 0x1 PUSH1 0x1 PUSH1 0xA0 SHL SUB AND PUSH32 0x8BE0079C531659141344CD1FD0A4F28419497F9722A3DAAFE3B4186F6B6457E0 DUP3 DUP1 LOG3 STOP JUMPDEST PUSH1 0x20 CALLDATASIZE PUSH1 0x3 NOT ADD SLT PUSH2 0x2FD JUMPI PUSH1 0x4 CALLDATALOAD PUSH2 0x1891 PUSH2 0x39A5 JUMP JUMPDEST DUP1 PUSH1 0x0 MSTORE PUSH1 0x4 PUSH1 0x20 MSTORE PUSH1 0x40 PUSH1 0x0 KECCAK256 SWAP1 PUSH1 0x6 DUP3 ADD PUSH1 0xFF DUP2 SLOAD AND PUSH1 0x3 DUP2 LT ISZERO PUSH2 0x1212 JUMPI PUSH1 0x1 PUSH2 0x18BE SWAP2 EQ PUSH2 0x31CF JUMP JUMPDEST PUSH1 0x3 DUP4 ADD SLOAD TIMESTAMP GT PUSH2 0x1B65 JUMPI CALLVALUE ISZERO DUP1 PUSH2 0x1B30 JUMPI PUSH1 0x32 CALLVALUE MUL CALLVALUE DUP2 DIV PUSH1 0x32 SUB PUSH2 0x96 JUMPI PUSH2 0x3E8 SWAP1 DIV SWAP1 DUP2 ISZERO SWAP1 DUP2 PUSH2 0x1B27 JUMPI JUMPDEST POP PUSH2 0x1B1F JUMPI JUMPDEST DUP1 PUSH1 0x1 SHR SWAP2 PUSH2 0x190C PUSH2 0x1905 DUP5 DUP5 PUSH2 0x3213 JUMP JUMPDEST SWAP3 CALLVALUE PUSH2 0x3213 JUMP JUMPDEST SWAP5 PUSH1 0x0 DUP1 DUP1 DUP1 DUP8 PUSH1 0x1 DUP1 PUSH1 0xA0 SHL SUB PUSH1 0x7 SLOAD AND GAS CALL PUSH2 0x1928 PUSH2 0x32CC JUMP JUMPDEST POP ISZERO PUSH2 0x1AD2 JUMPI JUMPDEST PUSH1 0x0 DUP1 DUP1 DUP1 DUP7 PUSH1 0x1 DUP1 PUSH1 0xA0 SHL SUB PUSH1 0x1 SLOAD AND GAS CALL PUSH2 0x194A PUSH2 0x32CC JUMP JUMPDEST POP ISZERO PUSH2 0x1A85 JUMPI JUMPDEST PUSH1 0xFF DUP3 SLOAD PUSH1 0x8 SHR AND PUSH1 0x2 DUP2 LT ISZERO PUSH2 0x1212 JUMPI PUSH2 0x1A70 JUMPI PUSH1 0x4 ADD PUSH2 0x1974 DUP7 DUP3 SLOAD PUSH2 0x32FC JUMP JUMPDEST SWAP1 SSTORE JUMPDEST CALLER PUSH1 0x0 MSTORE PUSH1 0x5 PUSH1 0x20 MSTORE PUSH1 0x40 PUSH1 0x0 KECCAK256 DUP5 PUSH1 0x0 MSTORE PUSH1 0x20 MSTORE PUSH1 0x40 PUSH1 0x0 KECCAK256 PUSH2 0x199C DUP7 DUP3 SLOAD PUSH2 0x32FC JUMP JUMPDEST SWAP1 SSTORE CALLER PUSH1 0x0 MSTORE PUSH1 0x5 PUSH1 0x20 MSTORE PUSH1 0x40 PUSH1 0x0 KECCAK256 DUP5 PUSH1 0x0 MSTORE PUSH1 0x20 MSTORE DUP5 PUSH1 0x40 PUSH1 0x0 KECCAK256 SLOAD EQ PUSH2 0x1A1D JUMPI JUMPDEST SLOAD PUSH1 0x8 SHR PUSH1 0xFF AND SWAP1 PUSH1 0x2 DUP3 LT ISZERO PUSH2 0x1212 JUMPI PUSH1 0x1 SWAP3 PUSH1 0x40 MLOAD SWAP6 DUP7 MSTORE PUSH1 0x20 DUP7 ADD MSTORE PUSH1 0x40 DUP6 ADD MSTORE TIMESTAMP PUSH1 0x60 DUP6 ADD MSTORE EQ PUSH1 0x80 DUP4 ADD MSTORE PUSH32 0x4852E950EC3AEDAF09A6AD7E78A1BFAECEAF997176CA098AD13194819A8C4CE5 PUSH1 0xA0 CALLER SWAP4 LOG3 PUSH1 0x1 PUSH1 0x0 SSTORE STOP JUMPDEST DUP4 PUSH1 0x0 MSTORE PUSH1 0x6 PUSH1 0x20 MSTORE PUSH1 0x40 PUSH1 0x0 KECCAK256 SWAP1 DUP2 SLOAD SWAP2 PUSH1 0x1 PUSH1 0x40 SHL DUP4 LT ISZERO PUSH2 0xBC6 JUMPI DUP3 PUSH2 0x1A4D SWAP2 PUSH1 0x1 PUSH1 0xFF SWAP6 ADD DUP2 SSTORE PUSH2 0x307C JUMP JUMPDEST DUP2 SLOAD PUSH1 0x1 PUSH1 0x1 PUSH1 0xA0 SHL SUB PUSH1 0x3 SWAP3 SWAP1 SWAP3 SHL SWAP2 DUP3 SHL NOT AND CALLER SWAP1 SWAP2 SHL OR SWAP1 SSTORE SWAP1 POP PUSH2 0x19C0 JUMP JUMPDEST PUSH1 0x5 ADD PUSH2 0x1A7E DUP7 DUP3 SLOAD PUSH2 0x32FC JUMP JUMPDEST SWAP1 SSTORE PUSH2 0x1977 JUMP JUMPDEST PUSH1 0x1 DUP1 PUSH1 0xA0 SHL SUB PUSH1 0x1 SLOAD AND PUSH1 0x0 MSTORE PUSH1 0xD PUSH1 0x20 MSTORE PUSH1 0x40 PUSH1 0x0 KECCAK256 PUSH2 0x1AA8 DUP5 DUP3 SLOAD PUSH2 0x32FC JUMP JUMPDEST SWAP1 SSTORE PUSH1 0x1 DUP1 PUSH1 0xA0 SHL SUB PUSH1 0x1 SLOAD AND PUSH1 0x0 DUP1 MLOAD PUSH1 0x20 PUSH2 0x3AFF DUP4 CODECOPY DUP2 MLOAD SWAP2 MSTORE PUSH1 0x20 PUSH1 0x40 MLOAD DUP7 DUP2 MSTORE LOG2 PUSH2 0x1951 JUMP JUMPDEST PUSH1 0x1 DUP1 PUSH1 0xA0 SHL SUB PUSH1 0x7 SLOAD AND PUSH1 0x0 MSTORE PUSH1 0xD PUSH1 0x20 MSTORE PUSH1 0x40 PUSH1 0x0 KECCAK256 PUSH2 0x1AF5 DUP6 DUP3 SLOAD PUSH2 0x32FC JUMP JUMPDEST SWAP1 SSTORE PUSH1 0x1 DUP1 PUSH1 0xA0 SHL SUB PUSH1 0x7 SLOAD AND PUSH1 0x0 DUP1 MLOAD PUSH1 0x20 PUSH2 0x3AFF DUP4 CODECOPY DUP2 MLOAD SWAP2 MSTORE PUSH1 0x20 PUSH1 0x40 MLOAD DUP8 DUP2 MSTORE LOG2 PUSH2 0x192F JUMP JUMPDEST POP PUSH1 0x1 PUSH2 0x18F3 JUMP JUMPDEST SWAP1 POP ISZERO DUP6 PUSH2 0x18ED JUMP JUMPDEST PUSH1 0x40 MLOAD PUSH3 0x461BCD PUSH1 0xE5 SHL DUP2 MSTORE PUSH1 0x20 PUSH1 0x4 DUP3 ADD MSTORE PUSH1 0xD PUSH1 0x24 DUP3 ADD MSTORE PUSH13 0x9AEAE6E840E6CADCC8408AA89 PUSH1 0x9B SHL PUSH1 0x44 DUP3 ADD MSTORE PUSH1 0x64 SWAP1 REVERT JUMPDEST PUSH1 0x40 MLOAD PUSH3 0x461BCD PUSH1 0xE5 SHL DUP2 MSTORE PUSH1 0x20 PUSH1 0x4 DUP3 ADD MSTORE PUSH1 0x17 PUSH1 0x24 DUP3 ADD MSTORE PUSH32 0x46756E64696E6720646561646C696E6520706173736564000000000000000000 PUSH1 0x44 DUP3 ADD MSTORE PUSH1 0x64 SWAP1 REVERT JUMPDEST CALLVALUE PUSH2 0x2FD JUMPI PUSH1 0x0 CALLDATASIZE PUSH1 0x3 NOT ADD SLT PUSH2 0x2FD JUMPI PUSH1 0x20 PUSH1 0x3 SLOAD PUSH1 0x40 MLOAD SWAP1 DUP2 MSTORE RETURN JUMPDEST CALLVALUE PUSH2 0x2FD JUMPI PUSH1 0x20 CALLDATASIZE PUSH1 0x3 NOT ADD SLT PUSH2 0x2FD JUMPI PUSH1 0x4 CALLDATALOAD PUSH2 0x1BE4 PUSH2 0x3509 JUMP JUMPDEST DUP1 PUSH1 0x0 MSTORE PUSH1 0x4 PUSH1 0x20 MSTORE PUSH1 0x40 PUSH1 0x0 KECCAK256 PUSH1 0x6 DUP2 ADD SWAP1 DUP2 SLOAD PUSH1 0xFF DUP2 AND SWAP1 PUSH1 0x3 DUP3 LT ISZERO PUSH2 0x1212 JUMPI PUSH2 0x1C13 PUSH1 0xFF SWAP3 ISZERO PUSH2 0x33EF JUMP JUMPDEST PUSH1 0x8 SHR AND PUSH1 0x2 DUP2 LT ISZERO PUSH2 0x1212 JUMPI PUSH1 0x1 EQ SWAP1 DUP2 ISZERO SWAP2 PUSH2 0x1DF6 JUMPI JUMPDEST POP ISZERO PUSH2 0x1DA6 JUMPI PUSH1 0xFF SWAP1 PUSH1 0x1 DUP3 NOT DUP3 SLOAD AND OR DUP2 SSTORE DUP3 PUSH32 0x1289CF89AAAED53D6590C1B7996BA434EDB31DCBD322D0B88FF0C02F64BBDEEF PUSH1 0x20 PUSH1 0x40 MLOAD PUSH1 0x1 DUP2 MSTORE LOG2 SLOAD PUSH1 0x8 SHR AND PUSH1 0x2 DUP2 LT ISZERO PUSH2 0x1212 JUMPI PUSH1 0x1 EQ PUSH2 0x1C82 JUMPI STOP JUMPDEST DUP1 PUSH1 0x0 MSTORE PUSH1 0x4 PUSH1 0x20 MSTORE PUSH1 0x40 PUSH1 0x0 KECCAK256 PUSH1 0x9 SLOAD PUSH3 0x76A700 DUP2 ADD DUP1 SWAP2 GT PUSH2 0x96 JUMPI TIMESTAMP LT ISZERO PUSH2 0x1D61 JUMPI JUMPDEST PUSH1 0xA SLOAD PUSH1 0x2 DUP3 ADD PUSH2 0x1CBB DUP2 SLOAD DUP1 SWAP4 PUSH2 0x32FC JUMP JUMPDEST PUSH1 0x8 SLOAD LT PUSH2 0x1D1C JUMPI PUSH2 0x1D0F DUP3 PUSH1 0x4 PUSH32 0x4608424E4F38941A5879B3EFE268417EB8B5724E0B5FDBC1E471F4140EBADA5A SWAP6 PUSH2 0x1CF9 PUSH1 0x20 SWAP7 SELFBALANCE LT ISZERO PUSH2 0x34BD JUMP JUMPDEST ADD PUSH2 0x1D05 DUP3 DUP3 SLOAD PUSH2 0x32FC JUMP JUMPDEST SWAP1 SSTORE PUSH1 0xA SLOAD PUSH2 0x32FC JUMP JUMPDEST PUSH1 0xA SSTORE SLOAD PUSH1 0x40 MLOAD SWAP1 DUP2 MSTORE LOG2 STOP JUMPDEST PUSH1 0x40 MLOAD PUSH3 0x461BCD PUSH1 0xE5 SHL DUP2 MSTORE PUSH1 0x20 PUSH1 0x4 DUP3 ADD MSTORE PUSH1 0x17 PUSH1 0x24 DUP3 ADD MSTORE PUSH32 0x4578636565647320717561727465726C79206C696D6974000000000000000000 PUSH1 0x44 DUP3 ADD MSTORE PUSH1 0x64 SWAP1 REVERT JUMPDEST TIMESTAMP PUSH1 0x9 SSTORE PUSH1 0x0 PUSH1 0xA SSTORE PUSH32 0x1F92CCA502DFDCDD42AD90D554B27F8DE184FECA1DD0B0746029B1B35285BB2B PUSH1 0x40 PUSH1 0xA SELFBALANCE DIV DUP1 PUSH1 0x8 SSTORE DUP2 MLOAD SWAP1 DUP2 MSTORE TIMESTAMP PUSH1 0x20 DUP3 ADD MSTORE LOG1 PUSH2 0x1CA8 JUMP JUMPDEST PUSH1 0x40 MLOAD PUSH3 0x461BCD PUSH1 0xE5 SHL DUP2 MSTORE PUSH1 0x20 PUSH1 0x4 DUP3 ADD MSTORE PUSH1 0x22 PUSH1 0x24 DUP3 ADD MSTORE PUSH32 0x5472656173757279204772616E74732072657175697265206D696C6573746F6E PUSH1 0x44 DUP3 ADD MSTORE PUSH2 0x6573 PUSH1 0xF0 SHL PUSH1 0x64 DUP3 ADD MSTORE PUSH1 0x84 SWAP1 REVERT JUMPDEST PUSH1 0x7 SWAP2 POP ADD SLOAD ISZERO ISZERO DUP4 PUSH2 0x1C2C JUMP JUMPDEST CALLVALUE PUSH2 0x2FD JUMPI PUSH1 0x0 CALLDATASIZE PUSH1 0x3 NOT ADD SLT PUSH2 0x2FD JUMPI PUSH1 0x20 PUSH2 0x1E1F PUSH2 0x347E JUMP JUMPDEST PUSH1 0x40 MLOAD SWAP1 DUP2 MSTORE RETURN JUMPDEST CALLVALUE PUSH2 0x2FD JUMPI PUSH1 0x20 CALLDATASIZE PUSH1 0x3 NOT ADD SLT PUSH2 0x2FD JUMPI PUSH1 0x1 PUSH1 0x1 PUSH1 0xA0 SHL SUB PUSH2 0x1E48 PUSH2 0x3066 JUMP JUMPDEST AND PUSH1 0x0 MSTORE PUSH1 0xB PUSH1 0x20 MSTORE PUSH1 0x20 PUSH1 0xFF PUSH1 0x40 PUSH1 0x0 KECCAK256 SLOAD AND PUSH1 0x40 MLOAD SWAP1 ISZERO ISZERO DUP2 MSTORE RETURN JUMPDEST CALLVALUE PUSH2 0x2FD JUMPI PUSH1 0x40 CALLDATASIZE PUSH1 0x3 NOT ADD SLT PUSH2 0x2FD JUMPI PUSH2 0x1E7F PUSH2 0x3066 JUMP JUMPDEST PUSH1 0x24 CALLDATALOAD SWAP1 DUP2 ISZERO ISZERO SWAP1 DUP2 DUP4 SUB PUSH2 0x2FD JUMPI PUSH2 0x1E96 PUSH2 0x357B JUMP JUMPDEST PUSH1 0x1 PUSH1 0x1 PUSH1 0xA0 SHL SUB AND SWAP2 DUP3 ISZERO PUSH2 0x1EF5 JUMPI PUSH32 0x2DF1CAD2A2659E001C3804C872F69655356013E35C18C2E77A5D568078AB788F SWAP2 PUSH2 0x1EEC PUSH1 0x20 SWAP3 DUP6 PUSH1 0x0 MSTORE PUSH1 0xB DUP5 MSTORE PUSH1 0x40 PUSH1 0x0 KECCAK256 SWAP1 PUSH1 0xFF DUP1 NOT DUP4 SLOAD AND SWAP2 ISZERO ISZERO AND OR SWAP1 SSTORE JUMP JUMPDEST PUSH1 0x40 MLOAD SWAP1 DUP2 MSTORE LOG2 STOP JUMPDEST PUSH1 0x40 MLOAD PUSH3 0x461BCD PUSH1 0xE5 SHL DUP2 MSTORE PUSH1 0x20 PUSH1 0x4 DUP3 ADD MSTORE PUSH1 0xF PUSH1 0x24 DUP3 ADD MSTORE PUSH15 0x496E76616C69642061646472657373 PUSH1 0x88 SHL PUSH1 0x44 DUP3 ADD MSTORE PUSH1 0x64 SWAP1 REVERT JUMPDEST CALLVALUE PUSH2 0x2FD JUMPI PUSH1 0x40 CALLDATASIZE PUSH1 0x3 NOT ADD SLT PUSH2 0x2FD JUMPI PUSH1 0x1 PUSH1 0x1 PUSH1 0xA0 SHL SUB PUSH2 0x1F4D PUSH2 0x3066 JUMP JUMPDEST AND PUSH1 0x0 MSTORE PUSH1 0xC PUSH1 0x20 MSTORE PUSH1 0x40 PUSH1 0x0 KECCAK256 PUSH1 0x24 CALLDATALOAD PUSH1 0x0 MSTORE PUSH1 0x20 MSTORE PUSH1 0x20 PUSH1 0xFF PUSH1 0x40 PUSH1 0x0 KECCAK256 SLOAD AND PUSH1 0x40 MLOAD SWAP1 ISZERO ISZERO DUP2 MSTORE RETURN JUMPDEST CALLVALUE PUSH2 0x2FD JUMPI PUSH1 0x40 CALLDATASIZE PUSH1 0x3 NOT ADD SLT PUSH2 0x2FD JUMPI PUSH1 0x1 PUSH1 0x1 PUSH1 0xA0 SHL SUB PUSH2 0x1F9A PUSH2 0x3050 JUMP JUMPDEST AND PUSH1 0x0 MSTORE PUSH1 0x5 PUSH1 0x20 MSTORE PUSH1 0x40 PUSH1 0x0 KECCAK256 PUSH1 0x4 CALLDATALOAD PUSH1 0x0 MSTORE PUSH1 0x20 MSTORE PUSH1 0x20 PUSH1 0x40 PUSH1 0x0 KECCAK256 SLOAD PUSH1 0x40 MLOAD SWAP1 DUP2 MSTORE RETURN JUMPDEST CALLVALUE PUSH2 0x2FD JUMPI PUSH1 0x20 CALLDATASIZE PUSH1 0x3 NOT ADD SLT PUSH2 0x2FD JUMPI PUSH2 0x1FDA PUSH2 0x3066 JUMP JUMPDEST PUSH2 0x1FE2 PUSH2 0x3A4F JUMP JUMPDEST PUSH2 0x1FEA PUSH2 0x39A5 JUMP JUMPDEST PUSH1 0x1 PUSH1 0x1 PUSH1 0xA0 SHL SUB DUP2 AND PUSH1 0x0 DUP2 DUP2 MSTORE PUSH1 0xD PUSH1 0x20 MSTORE PUSH1 0x40 SWAP1 KECCAK256 SLOAD SWAP1 SWAP2 DUP2 ISZERO PUSH2 0x2086 JUMPI PUSH1 0x0 DUP1 DUP1 SWAP4 DUP2 SWAP4 DUP7 DUP4 MSTORE PUSH1 0xD PUSH1 0x20 MSTORE DUP3 PUSH1 0x40 DUP2 KECCAK256 SSTORE GAS CALL PUSH2 0x202A PUSH2 0x32CC JUMP JUMPDEST POP ISZERO PUSH2 0x2037 JUMPI PUSH1 0x1 PUSH1 0x0 SSTORE STOP JUMPDEST PUSH1 0x40 MLOAD PUSH3 0x461BCD PUSH1 0xE5 SHL DUP2 MSTORE PUSH1 0x20 PUSH1 0x4 DUP3 ADD MSTORE PUSH1 0x21 PUSH1 0x24 DUP3 ADD MSTORE PUSH32 0x4661696C6564207472616E73666572207769746864726177616C206661696C65 PUSH1 0x44 DUP3 ADD MSTORE PUSH1 0x19 PUSH1 0xFA SHL PUSH1 0x64 DUP3 ADD MSTORE PUSH1 0x84 SWAP1 REVERT JUMPDEST PUSH1 0x40 MLOAD PUSH3 0x461BCD PUSH1 0xE5 SHL DUP2 MSTORE PUSH1 0x20 PUSH1 0x4 DUP3 ADD MSTORE PUSH1 0x1F PUSH1 0x24 DUP3 ADD MSTORE PUSH32 0x4E6F206661696C6564207472616E736665727320746F20776974686472617700 PUSH1 0x44 DUP3 ADD MSTORE PUSH1 0x64 SWAP1 REVERT JUMPDEST CALLVALUE PUSH2 0x2FD JUMPI PUSH1 0x20 CALLDATASIZE PUSH1 0x3 NOT ADD SLT PUSH2 0x2FD JUMPI PUSH1 0x4 CALLDATALOAD PUSH1 0x0 MSTORE PUSH1 0x6 PUSH1 0x20 MSTORE PUSH1 0x40 PUSH1 0x0 KECCAK256 PUSH1 0x40 MLOAD DUP1 PUSH1 0x20 DUP4 SLOAD SWAP2 DUP3 DUP2 MSTORE ADD SWAP1 DUP2 SWAP4 PUSH1 0x0 MSTORE PUSH1 0x20 PUSH1 0x0 KECCAK256 SWAP1 PUSH1 0x0 JUMPDEST DUP2 DUP2 LT PUSH2 0x216A JUMPI POP POP POP DUP2 PUSH2 0x211E SWAP2 SUB DUP3 PUSH2 0x2DA6 JUMP JUMPDEST PUSH1 0x40 MLOAD SWAP2 DUP3 SWAP2 PUSH1 0x20 DUP4 ADD SWAP1 PUSH1 0x20 DUP5 MSTORE MLOAD DUP1 SWAP2 MSTORE PUSH1 0x40 DUP4 ADD SWAP2 SWAP1 PUSH1 0x0 JUMPDEST DUP2 DUP2 LT PUSH2 0x2148 JUMPI POP POP POP SUB SWAP1 RETURN JUMPDEST DUP3 MLOAD PUSH1 0x1 PUSH1 0x1 PUSH1 0xA0 SHL SUB AND DUP5 MSTORE DUP6 SWAP5 POP PUSH1 0x20 SWAP4 DUP5 ADD SWAP4 SWAP1 SWAP3 ADD SWAP2 PUSH1 0x1 ADD PUSH2 0x213A JUMP JUMPDEST DUP3 SLOAD PUSH1 0x1 PUSH1 0x1 PUSH1 0xA0 SHL SUB AND DUP5 MSTORE PUSH1 0x20 SWAP1 SWAP4 ADD SWAP3 PUSH1 0x1 SWAP3 DUP4 ADD SWAP3 ADD PUSH2 0x2108 JUMP JUMPDEST CALLVALUE PUSH2 0x2FD JUMPI PUSH2 0x2197 CALLDATASIZE PUSH2 0x303A JUMP JUMPDEST PUSH2 0x219F PUSH2 0x3509 JUMP JUMPDEST DUP2 PUSH1 0x0 MSTORE PUSH1 0x4 PUSH1 0x20 MSTORE PUSH1 0x40 PUSH1 0x0 KECCAK256 PUSH1 0xFF PUSH1 0x6 DUP3 ADD SLOAD PUSH1 0x8 SHR AND SWAP2 PUSH1 0x2 DUP4 LT ISZERO PUSH2 0x1212 JUMPI PUSH2 0x21F8 DUP2 PUSH1 0x7 PUSH1 0x40 SWAP5 PUSH2 0x1399 PUSH1 0x1 PUSH32 0x99C1E384941F7E42E3F9FE91B348AA32F8105B4E750B515D7E0D41EE8B66B0CC SWAP9 EQ PUSH2 0x30AA JUMP JUMPDEST POP PUSH2 0x220A PUSH1 0xFF PUSH1 0x2 DUP4 ADD SLOAD AND ISZERO PUSH2 0x33A3 JUMP JUMPDEST PUSH1 0x5 TIMESTAMP SWAP2 ADD SSTORE DUP2 MLOAD SWAP1 DUP2 MSTORE TIMESTAMP PUSH1 0x20 DUP3 ADD MSTORE LOG2 STOP JUMPDEST CALLVALUE PUSH2 0x2FD JUMPI PUSH1 0x20 CALLDATASIZE PUSH1 0x3 NOT ADD SLT PUSH2 0x2FD JUMPI PUSH1 0x4 CALLDATALOAD PUSH2 0x223A PUSH2 0x3509 JUMP JUMPDEST DUP1 PUSH1 0x0 MSTORE PUSH1 0x4 PUSH1 0x20 MSTORE PUSH1 0x40 PUSH1 0x0 KECCAK256 PUSH1 0x6 DUP2 ADD SWAP1 DUP2 SLOAD PUSH1 0xFF DUP2 PUSH1 0x8 SHR AND SWAP1 PUSH1 0x2 DUP3 LT ISZERO PUSH2 0x1212 JUMPI PUSH2 0x226E PUSH1 0x1 PUSH1 0xFF SWAP4 EQ PUSH2 0x30AA JUMP JUMPDEST AND PUSH1 0x3 DUP2 LT ISZERO PUSH2 0x1212 JUMPI PUSH1 0x2 SUB PUSH2 0x22D3 JUMPI PUSH1 0xE ADD SWAP1 PUSH2 0x2290 DUP3 SLOAD TIMESTAMP LT ISZERO PUSH2 0x3432 JUMP JUMPDEST PUSH1 0xFF NOT DUP2 SLOAD AND SWAP1 SSTORE PUSH3 0x127500 TIMESTAMP ADD SWAP1 DUP2 TIMESTAMP GT PUSH2 0x96 JUMPI SSTORE PUSH32 0x379FB972D68CB215EF30793B39641170D26B4747138827DADC647D7CD7F0C4CF PUSH1 0x20 PUSH1 0x40 MLOAD CALLER DUP2 MSTORE LOG2 STOP JUMPDEST PUSH1 0x40 MLOAD PUSH3 0x461BCD PUSH1 0xE5 SHL DUP2 MSTORE PUSH1 0x20 PUSH1 0x4 DUP3 ADD MSTORE PUSH1 0x15 PUSH1 0x24 DUP3 ADD MSTORE PUSH21 0x10D85B5C185A59DB881B9BDD081C995A9958DD1959 PUSH1 0x5A SHL PUSH1 0x44 DUP3 ADD MSTORE PUSH1 0x64 SWAP1 REVERT JUMPDEST CALLVALUE PUSH2 0x2FD JUMPI PUSH1 0x40 CALLDATASIZE PUSH1 0x3 NOT ADD SLT PUSH2 0x2FD JUMPI PUSH2 0x2329 PUSH2 0x3050 JUMP JUMPDEST CALLER PUSH1 0x1 PUSH1 0x1 PUSH1 0xA0 SHL SUB DUP3 AND SUB PUSH2 0x2345 JUMPI PUSH2 0x1018 SWAP1 PUSH1 0x4 CALLDATALOAD PUSH2 0x3A78 JUMP JUMPDEST PUSH4 0x334BD919 PUSH1 0xE1 SHL PUSH1 0x0 MSTORE PUSH1 0x4 PUSH1 0x0 REVERT JUMPDEST CALLVALUE PUSH2 0x2FD JUMPI PUSH1 0x20 CALLDATASIZE PUSH1 0x3 NOT ADD SLT PUSH2 0x2FD JUMPI PUSH1 0x4 CALLDATALOAD PUSH2 0x2372 PUSH2 0x3A4F JUMP JUMPDEST PUSH2 0x237A PUSH2 0x39A5 JUMP JUMPDEST SELFBALANCE DUP2 GT PUSH2 0x23D2 JUMPI PUSH2 0x239F PUSH1 0x0 DUP1 DUP1 DUP1 DUP6 PUSH1 0x1 DUP1 PUSH1 0xA0 SHL SUB PUSH1 0x1 SLOAD AND GAS CALL PUSH2 0x1135 PUSH2 0x32CC JUMP JUMPDEST PUSH1 0x40 MLOAD SWAP1 DUP2 MSTORE PUSH32 0xA919FADCFA556A012BAB31B15F596EA7CCD397ADBF10E15F176DB9055AB361C4 PUSH1 0x20 CALLER SWAP3 LOG2 PUSH1 0x1 PUSH1 0x0 SSTORE STOP JUMPDEST PUSH1 0x40 MLOAD PUSH3 0x461BCD PUSH1 0xE5 SHL DUP2 MSTORE PUSH1 0x20 PUSH1 0x4 DUP3 ADD MSTORE PUSH1 0x12 PUSH1 0x24 DUP3 ADD MSTORE PUSH18 0x496E73756666696369656E742066756E6473 PUSH1 0x70 SHL PUSH1 0x44 DUP3 ADD MSTORE PUSH1 0x64 SWAP1 REVERT JUMPDEST CALLVALUE PUSH2 0x2FD JUMPI PUSH1 0x40 CALLDATASIZE PUSH1 0x3 NOT ADD SLT PUSH2 0x2FD JUMPI PUSH2 0x1018 PUSH1 0x4 CALLDATALOAD PUSH2 0x242B PUSH2 0x3050 JUMP JUMPDEST SWAP1 PUSH2 0x2447 PUSH2 0x100E DUP3 PUSH1 0x0 MSTORE PUSH1 0x2 PUSH1 0x20 MSTORE PUSH1 0x1 PUSH1 0x40 PUSH1 0x0 KECCAK256 ADD SLOAD SWAP1 JUMP JUMPDEST PUSH2 0x39C7 JUMP JUMPDEST CALLVALUE PUSH2 0x2FD JUMPI PUSH1 0x20 CALLDATASIZE PUSH1 0x3 NOT ADD SLT PUSH2 0x2FD JUMPI PUSH1 0x4 CALLDATALOAD DUP1 PUSH1 0x0 MSTORE PUSH1 0x4 PUSH1 0x20 MSTORE PUSH1 0x40 PUSH1 0x0 KECCAK256 PUSH1 0x6 DUP2 ADD SWAP1 DUP2 SLOAD PUSH1 0xFF DUP2 PUSH1 0x8 SHR AND SWAP1 PUSH1 0x2 DUP3 LT ISZERO PUSH2 0x1212 JUMPI PUSH2 0x2494 PUSH1 0x1 PUSH1 0xFF SWAP4 EQ PUSH2 0x30AA JUMP JUMPDEST AND PUSH1 0x3 DUP2 LT ISZERO PUSH2 0x1212 JUMPI PUSH2 0x24B8 SWAP2 PUSH2 0x24AE PUSH1 0xE SWAP3 ISZERO PUSH2 0x33EF JUMP JUMPDEST ADD SLOAD TIMESTAMP LT ISZERO PUSH2 0x3432 JUMP JUMPDEST PUSH1 0x2 PUSH1 0xFF NOT DUP3 SLOAD AND OR SWAP1 SSTORE PUSH32 0x1289CF89AAAED53D6590C1B7996BA434EDB31DCBD322D0B88FF0C02F64BBDEEF PUSH1 0x20 PUSH1 0x40 MLOAD PUSH1 0x2 DUP2 MSTORE LOG2 STOP JUMPDEST CALLVALUE PUSH2 0x2FD JUMPI PUSH1 0x0 CALLDATASIZE PUSH1 0x3 NOT ADD SLT PUSH2 0x2FD JUMPI PUSH1 0x20 PUSH1 0x8 SLOAD PUSH1 0x40 MLOAD SWAP1 DUP2 MSTORE RETURN JUMPDEST CALLVALUE PUSH2 0x2FD JUMPI PUSH1 0x20 CALLDATASIZE PUSH1 0x3 NOT ADD SLT PUSH2 0x2FD JUMPI PUSH1 0x20 PUSH2 0x1E1F PUSH1 0x4 CALLDATALOAD PUSH1 0x0 MSTORE PUSH1 0x2 PUSH1 0x20 MSTORE PUSH1 0x1 PUSH1 0x40 PUSH1 0x0 KECCAK256 ADD SLOAD SWAP1 JUMP JUMPDEST CALLVALUE PUSH2 0x2FD JUMPI PUSH2 0x2549 CALLDATASIZE PUSH2 0x303A JUMP JUMPDEST PUSH2 0x2551 PUSH2 0x3509 JUMP JUMPDEST DUP2 PUSH1 0x0 MSTORE PUSH1 0x4 PUSH1 0x20 MSTORE PUSH1 0x40 PUSH1 0x0 KECCAK256 PUSH1 0xFF PUSH1 0x6 DUP3 ADD SLOAD PUSH1 0x8 SHR AND SWAP1 PUSH1 0x2 DUP3 LT ISZERO PUSH2 0x1212 JUMPI PUSH1 0x7 DUP4 SWAP2 PUSH2 0x1399 PUSH1 0x1 PUSH2 0x2587 SWAP6 EQ PUSH2 0x30AA JUMP JUMPDEST POP PUSH1 0x2 DUP2 ADD SWAP2 DUP3 SLOAD SWAP2 PUSH2 0x259D PUSH1 0xFF DUP5 AND ISZERO PUSH2 0x33A3 JUMP JUMPDEST PUSH2 0x25AA PUSH1 0x4 DUP3 ADD SLOAD PUSH2 0x2F1B JUMP JUMPDEST ISZERO PUSH2 0x25F1 JUMPI PUSH32 0xD4DBDA378623F00B72EF135B4579B7BA064C49645217EB107D663831EFAC6358 SWAP4 PUSH1 0x1 PUSH1 0x40 SWAP5 PUSH1 0xFF NOT AND OR SWAP1 SSTORE PUSH1 0x3 TIMESTAMP SWAP2 ADD SSTORE DUP2 MLOAD SWAP1 DUP2 MSTORE TIMESTAMP PUSH1 0x20 DUP3 ADD MSTORE LOG2 STOP JUMPDEST PUSH1 0x40 MLOAD PUSH3 0x461BCD PUSH1 0xE5 SHL DUP2 MSTORE PUSH1 0x20 PUSH1 0x4 DUP3 ADD MSTORE PUSH1 0x12 PUSH1 0x24 DUP3 ADD MSTORE PUSH18 0x139BC81C1C9BDBD9881CDD589B5A5D1D1959 PUSH1 0x72 SHL PUSH1 0x44 DUP3 ADD MSTORE PUSH1 0x64 SWAP1 REVERT JUMPDEST CALLVALUE PUSH2 0x2FD JUMPI PUSH1 0x20 CALLDATASIZE PUSH1 0x3 NOT ADD SLT PUSH2 0x2FD JUMPI PUSH1 0x4 CALLDATALOAD PUSH2 0x2647 PUSH2 0x39A5 JUMP JUMPDEST DUP1 PUSH1 0x0 MSTORE PUSH1 0x4 PUSH1 0x20 MSTORE PUSH1 0x40 PUSH1 0x0 KECCAK256 SWAP1 PUSH2 0x266D PUSH1 0x1 DUP1 PUSH1 0xA0 SHL SUB PUSH1 0x1 DUP5 ADD SLOAD AND CALLER EQ PUSH2 0x3195 JUMP JUMPDEST PUSH1 0x6 DUP3 ADD SWAP2 DUP3 SLOAD PUSH1 0xFF DUP2 AND PUSH1 0x3 DUP2 LT ISZERO PUSH2 0x1212 JUMPI PUSH1 0x1 PUSH2 0x268D SWAP2 EQ PUSH2 0x31CF JUMP JUMPDEST PUSH1 0x8 SHR PUSH1 0xFF AND PUSH1 0x0 PUSH1 0x2 DUP3 LT ISZERO PUSH2 0x2A3B JUMPI POP PUSH2 0x295D JUMPI PUSH1 0x4 DUP2 ADD SLOAD SWAP1 PUSH2 0x26B7 PUSH1 0x8 DUP3 ADD SLOAD DUP4 PUSH2 0x3213 JUMP JUMPDEST SWAP1 PUSH1 0x0 SWAP3 PUSH2 0x26C6 DUP4 ISZERO ISZERO PUSH2 0x3220 JUMP JUMPDEST PUSH1 0x2 DUP3 ADD SLOAD GT DUP1 PUSH2 0x2950 JUMPI JUMPDEST PUSH2 0x28FF JUMPI JUMPDEST PUSH8 0x4563918244F40000 DUP3 GT PUSH2 0x28AF JUMPI JUMPDEST PUSH1 0x19 DUP3 MUL SWAP2 DUP1 ISZERO SWAP3 DUP2 DUP2 DIV PUSH1 0x19 EQ DUP5 OR ISZERO PUSH2 0x96 JUMPI PUSH2 0x3E8 SWAP1 DIV SWAP3 DUP4 ISZERO SWAP1 DUP2 PUSH2 0x28A6 JUMPI JUMPDEST POP PUSH2 0x289D JUMPI JUMPDEST DUP3 PUSH1 0x1 SHR SWAP2 PUSH1 0xFF PUSH2 0x272C PUSH2 0x2725 DUP6 DUP8 PUSH2 0x3213 JUMP JUMPDEST SWAP6 DUP5 PUSH2 0x3213 JUMP JUMPDEST SWAP8 PUSH1 0x0 DUP1 DUP1 DUP1 DUP9 PUSH1 0x1 DUP1 PUSH1 0xA0 SHL SUB PUSH1 0x7 SLOAD AND GAS CALL PUSH2 0x2748 PUSH2 0x32CC JUMP JUMPDEST POP ISZERO PUSH2 0x2850 JUMPI JUMPDEST PUSH1 0x0 DUP1 DUP1 DUP1 DUP10 PUSH1 0x1 DUP1 PUSH1 0xA0 SHL SUB PUSH1 0x1 SLOAD AND GAS CALL PUSH2 0x276A PUSH2 0x32CC JUMP JUMPDEST POP ISZERO PUSH2 0x2803 JUMPI JUMPDEST SLOAD PUSH1 0x8 SHR AND PUSH1 0x2 DUP2 LT ISZERO PUSH2 0x1212 JUMPI PUSH2 0x27ED JUMPI PUSH1 0x8 PUSH2 0x2792 SWAP2 ADD SWAP2 DUP3 SLOAD PUSH2 0x32FC JUMP JUMPDEST SWAP1 SSTORE JUMPDEST PUSH2 0x27A9 PUSH1 0x0 DUP1 DUP1 DUP1 DUP10 CALLER GAS CALL PUSH2 0x1135 PUSH2 0x32CC JUMP JUMPDEST PUSH1 0x40 MLOAD SWAP5 DUP6 MSTORE PUSH1 0x20 DUP6 ADD MSTORE PUSH1 0x40 DUP5 ADD MSTORE ISZERO ISZERO PUSH1 0x60 DUP4 ADD MSTORE PUSH32 0xFD8443316DCAF390C4480028D81568298BB47A1D097857F2F1FBD54B06763345 PUSH1 0x80 CALLER SWAP4 LOG3 PUSH1 0x1 PUSH1 0x0 SSTORE STOP JUMPDEST PUSH1 0x9 PUSH2 0x27FC SWAP2 ADD SWAP2 DUP3 SLOAD PUSH2 0x32FC JUMP JUMPDEST SWAP1 SSTORE PUSH2 0x2795 JUMP JUMPDEST PUSH1 0x1 DUP1 PUSH1 0xA0 SHL SUB PUSH1 0x1 SLOAD AND PUSH1 0x0 MSTORE PUSH1 0xD PUSH1 0x20 MSTORE PUSH1 0x40 PUSH1 0x0 KECCAK256 PUSH2 0x2826 DUP8 DUP3 SLOAD PUSH2 0x32FC JUMP JUMPDEST SWAP1 SSTORE PUSH1 0x1 DUP1 PUSH1 0xA0 SHL SUB PUSH1 0x1 SLOAD AND PUSH1 0x0 DUP1 MLOAD PUSH1 0x20 PUSH2 0x3AFF DUP4 CODECOPY DUP2 MLOAD SWAP2 MSTORE PUSH1 0x20 PUSH1 0x40 MLOAD DUP10 DUP2 MSTORE LOG2 PUSH2 0x2771 JUMP JUMPDEST PUSH1 0x1 DUP1 PUSH1 0xA0 SHL SUB PUSH1 0x7 SLOAD AND PUSH1 0x0 MSTORE PUSH1 0xD PUSH1 0x20 MSTORE PUSH1 0x40 PUSH1 0x0 KECCAK256 PUSH2 0x2873 DUP7 DUP3 SLOAD PUSH2 0x32FC JUMP JUMPDEST SWAP1 SSTORE PUSH1 0x1 DUP1 PUSH1 0xA0 SHL SUB PUSH1 0x7 SLOAD AND PUSH1 0x0 DUP1 MLOAD PUSH1 0x20 PUSH2 0x3AFF DUP4 CODECOPY DUP2 MLOAD SWAP2 MSTORE PUSH1 0x20 PUSH1 0x40 MLOAD DUP9 DUP2 MSTORE LOG2 PUSH2 0x274F JUMP JUMPDEST PUSH1 0x1 SWAP3 POP PUSH2 0x2711 JUMP JUMPDEST SWAP1 POP ISZERO DUP8 PUSH2 0x270B JUMP JUMPDEST CALLER PUSH1 0x0 MSTORE PUSH1 0xB PUSH1 0x20 MSTORE PUSH1 0xFF PUSH1 0x40 PUSH1 0x0 KECCAK256 SLOAD AND DUP1 ISZERO PUSH2 0x28D6 JUMPI JUMPDEST PUSH2 0x28D1 SWAP1 PUSH2 0x3263 JUMP JUMPDEST PUSH2 0x26E7 JUMP JUMPDEST POP CALLER PUSH1 0x0 MSTORE PUSH1 0xC PUSH1 0x20 MSTORE PUSH1 0x40 PUSH1 0x0 KECCAK256 DUP5 PUSH1 0x0 MSTORE PUSH1 0x20 MSTORE PUSH2 0x28D1 PUSH1 0xFF PUSH1 0x40 PUSH1 0x0 KECCAK256 SLOAD AND SWAP1 POP PUSH2 0x28C8 JUMP JUMPDEST PUSH1 0x40 MLOAD PUSH3 0x461BCD PUSH1 0xE5 SHL DUP2 MSTORE PUSH1 0x20 PUSH1 0x4 DUP3 ADD MSTORE PUSH1 0x24 DUP1 DUP3 ADD MSTORE PUSH32 0x476F616C206E6F74206D657420616E6420646561646C696E65206E6F74207061 PUSH1 0x44 DUP3 ADD MSTORE PUSH4 0x1CDCD959 PUSH1 0xE2 SHL PUSH1 0x64 DUP3 ADD MSTORE PUSH1 0x84 SWAP1 REVERT JUMPDEST POP PUSH1 0x3 DUP2 ADD SLOAD TIMESTAMP LT PUSH2 0x26D2 JUMP JUMPDEST PUSH2 0x2970 PUSH1 0x5 DUP3 ADD SLOAD PUSH1 0x9 DUP4 ADD SLOAD SWAP1 PUSH2 0x3213 JUMP JUMPDEST PUSH1 0x1 SWAP2 DUP2 ISZERO PUSH2 0x29F7 JUMPI PUSH1 0x4 DUP2 ADD SLOAD PUSH1 0x2 DUP3 ADD SLOAD GT DUP1 PUSH2 0x29EA JUMPI JUMPDEST ISZERO PUSH2 0x26D7 JUMPI PUSH1 0x40 MLOAD PUSH3 0x461BCD PUSH1 0xE5 SHL DUP2 MSTORE PUSH1 0x20 PUSH1 0x4 DUP3 ADD MSTORE PUSH1 0x2D PUSH1 0x24 DUP3 ADD MSTORE PUSH32 0x547265617375727920676F616C206E6F74206D657420616E6420646561646C69 PUSH1 0x44 DUP3 ADD MSTORE PUSH13 0x1B99481B9BDD081C185CDCD959 PUSH1 0x9A SHL PUSH1 0x64 DUP3 ADD MSTORE PUSH1 0x84 SWAP1 REVERT JUMPDEST POP PUSH1 0x3 DUP2 ADD SLOAD TIMESTAMP LT PUSH2 0x298A JUMP JUMPDEST PUSH1 0x64 PUSH1 0x40 MLOAD PUSH3 0x461BCD PUSH1 0xE5 SHL DUP2 MSTORE PUSH1 0x20 PUSH1 0x4 DUP3 ADD MSTORE PUSH1 0x20 PUSH1 0x24 DUP3 ADD MSTORE PUSH32 0x4E6F2063726F776466756E6465642066756E647320746F207769746864726177 PUSH1 0x44 DUP3 ADD MSTORE REVERT JUMPDEST PUSH4 0x4E487B71 PUSH1 0xE0 SHL DUP2 MSTORE PUSH1 0x21 PUSH1 0x4 MSTORE PUSH1 0x24 SWAP1 REVERT JUMPDEST CALLVALUE PUSH2 0x2FD JUMPI PUSH1 0x20 CALLDATASIZE PUSH1 0x3 NOT ADD SLT PUSH2 0x2FD JUMPI PUSH1 0x4 CALLDATALOAD PUSH1 0x0 MSTORE PUSH1 0x4 PUSH1 0x20 MSTORE PUSH1 0x40 PUSH1 0x0 KECCAK256 PUSH2 0x2A79 DUP2 PUSH2 0x2F55 JUMP JUMPDEST SWAP1 PUSH1 0x1 PUSH1 0xA0 SHL PUSH1 0x1 SWAP1 SUB PUSH1 0x1 DUP3 ADD SLOAD AND SWAP1 PUSH1 0x2 DUP2 ADD SLOAD SWAP3 PUSH1 0x3 DUP3 ADD SLOAD PUSH1 0x4 DUP4 ADD SLOAD SWAP1 PUSH1 0x5 DUP5 ADD SLOAD SWAP5 PUSH1 0x6 DUP6 ADD SLOAD SWAP3 PUSH1 0xFF DUP5 AND SWAP4 PUSH1 0x8 SHR PUSH1 0xFF AND PUSH1 0x8 DUP8 ADD SLOAD SWAP3 PUSH1 0x9 DUP9 ADD SLOAD SWAP6 PUSH1 0xA DUP10 ADD PUSH2 0x2ACB SWAP1 PUSH2 0x2F55 JUMP JUMPDEST SWAP10 PUSH2 0x2AD8 PUSH1 0xB DUP12 ADD PUSH2 0x2F55 JUMP JUMPDEST SWAP5 PUSH2 0x2AE5 PUSH1 0xC DUP13 ADD PUSH2 0x2F55 JUMP JUMPDEST SWAP8 PUSH1 0xD DUP13 ADD SLOAD SWAP12 PUSH1 0xE ADD SLOAD SWAP11 PUSH1 0x40 MLOAD SWAP15 DUP16 SWAP2 PUSH2 0x1E0 DUP4 MSTORE PUSH2 0x1E0 DUP4 ADD PUSH2 0x2B0A SWAP2 PUSH2 0x2FF9 JUMP JUMPDEST SWAP7 PUSH1 0x20 DUP4 ADD MSTORE PUSH1 0x40 DUP3 ADD MSTORE PUSH1 0x60 ADD MSTORE PUSH1 0x80 DUP14 ADD MSTORE PUSH1 0xA0 DUP13 ADD MSTORE PUSH1 0x3 DUP2 LT ISZERO PUSH2 0x1212 JUMPI PUSH1 0xC0 DUP12 ADD MSTORE PUSH1 0x2 DUP3 LT ISZERO PUSH2 0x1212 JUMPI DUP10 SWAP9 PUSH2 0x2B85 SWAP7 PUSH2 0x2B76 SWAP6 PUSH2 0x2B67 SWAP5 PUSH1 0xE0 DUP14 ADD MSTORE PUSH2 0x100 DUP13 ADD MSTORE PUSH2 0x120 DUP12 ADD MSTORE DUP10 DUP3 SUB PUSH2 0x140 DUP12 ADD MSTORE PUSH2 0x2FF9 JUMP JUMPDEST SWAP1 DUP8 DUP3 SUB PUSH2 0x160 DUP10 ADD MSTORE PUSH2 0x2FF9 JUMP JUMPDEST SWAP1 DUP6 DUP3 SUB PUSH2 0x180 DUP8 ADD MSTORE PUSH2 0x2FF9 JUMP JUMPDEST SWAP2 PUSH2 0x1A0 DUP5 ADD MSTORE PUSH2 0x1C0 DUP4 ADD MSTORE SUB SWAP1 RETURN JUMPDEST CALLVALUE PUSH2 0x2FD JUMPI PUSH1 0x60 CALLDATASIZE PUSH1 0x3 NOT ADD SLT PUSH2 0x2FD JUMPI PUSH1 0x4 CALLDATALOAD PUSH1 0x24 CALLDATALOAD PUSH1 0x1 PUSH1 0x1 PUSH1 0x40 SHL SUB DUP2 GT PUSH2 0x2FD JUMPI PUSH2 0x2BC9 SWAP1 CALLDATASIZE SWAP1 PUSH1 0x4 ADD PUSH2 0x2E40 JUMP JUMPDEST PUSH1 0x44 CALLDATALOAD PUSH1 0x1 PUSH1 0x1 PUSH1 0x40 SHL SUB DUP2 GT PUSH2 0x2FD JUMPI PUSH2 0x2BE8 SWAP1 CALLDATASIZE SWAP1 PUSH1 0x4 ADD PUSH2 0x2EBE JUMP JUMPDEST SWAP1 PUSH2 0x2BF1 PUSH2 0x3509 JUMP JUMPDEST DUP3 PUSH1 0x0 MSTORE PUSH1 0x4 PUSH1 0x20 MSTORE PUSH1 0x40 PUSH1 0x0 KECCAK256 PUSH1 0x6 DUP2 ADD SLOAD PUSH1 0xFF DUP2 PUSH1 0x8 SHR AND SWAP1 PUSH1 0x2 DUP3 LT ISZERO PUSH2 0x1212 JUMPI PUSH2 0x2C23 PUSH1 0x1 PUSH1 0xFF SWAP4 EQ PUSH2 0x30AA JUMP JUMPDEST AND PUSH1 0x3 DUP2 LT ISZERO PUSH2 0x1212 JUMPI PUSH2 0x2CB8 JUMPI PUSH1 0x7 SWAP1 PUSH2 0x2C41 DUP4 MLOAD DUP6 MLOAD EQ PUSH2 0x30ED JUMP JUMPDEST ADD SWAP3 DUP4 SLOAD SWAP4 PUSH1 0x0 DUP2 SSTORE DUP5 PUSH2 0x2C5B JUMPI JUMPDEST POP PUSH2 0x1018 SWAP4 POP PUSH2 0x38B9 JUMP JUMPDEST DUP5 PUSH1 0x6 MUL SWAP5 PUSH1 0x6 DUP7 DIV SUB PUSH2 0x96 JUMPI PUSH1 0x0 MSTORE PUSH1 0x20 PUSH1 0x0 KECCAK256 SWAP4 DUP5 ADD SWAP4 JUMPDEST DUP5 DUP2 LT ISZERO PUSH2 0x2C50 JUMPI DUP1 PUSH2 0x2C8A PUSH1 0x6 SWAP3 PUSH2 0x3146 JUMP JUMPDEST PUSH1 0x0 PUSH1 0x1 DUP3 ADD SSTORE PUSH1 0x0 PUSH1 0x2 DUP3 ADD SSTORE PUSH1 0x0 PUSH1 0x3 DUP3 ADD SSTORE PUSH2 0x2CAB PUSH1 0x4 DUP3 ADD PUSH2 0x3146 JUMP JUMPDEST PUSH1 0x0 PUSH1 0x5 DUP3 ADD SSTORE ADD PUSH2 0x2C76 JUMP JUMPDEST PUSH1 0x40 MLOAD PUSH3 0x461BCD PUSH1 0xE5 SHL DUP2 MSTORE PUSH1 0x20 PUSH1 0x4 DUP3 ADD MSTORE PUSH1 0x18 PUSH1 0x24 DUP3 ADD MSTORE PUSH32 0x43616D706169676E206D7573742062652070656E64696E670000000000000000 PUSH1 0x44 DUP3 ADD MSTORE PUSH1 0x64 SWAP1 REVERT JUMPDEST CALLVALUE PUSH2 0x2FD JUMPI PUSH1 0x0 CALLDATASIZE PUSH1 0x3 NOT ADD SLT PUSH2 0x2FD JUMPI PUSH1 0x20 PUSH1 0x40 MLOAD PUSH32 0x811427A0FA4932AEF534BBA16BC34E9B7B2D7D2A79C475FCA1765F6CC1FAEBEA DUP2 MSTORE RETURN JUMPDEST CALLVALUE PUSH2 0x2FD JUMPI PUSH1 0x20 CALLDATASIZE PUSH1 0x3 NOT ADD SLT PUSH2 0x2FD JUMPI PUSH1 0x4 CALLDATALOAD SWAP1 PUSH4 0xFFFFFFFF PUSH1 0xE0 SHL DUP3 AND DUP1 SWAP3 SUB PUSH2 0x2FD JUMPI PUSH1 0x20 SWAP2 PUSH4 0x7965DB0B PUSH1 0xE0 SHL DUP2 EQ SWAP1 DUP2 ISZERO PUSH2 0x2D7A JUMPI JUMPDEST POP ISZERO ISZERO DUP2 MSTORE RETURN JUMPDEST PUSH4 0x1FFC9A7 PUSH1 0xE0 SHL EQ SWAP1 POP DUP4 PUSH2 0x2D73 JUMP JUMPDEST PUSH1 0xC0 DUP2 ADD SWAP1 DUP2 LT PUSH1 0x1 PUSH1 0x1 PUSH1 0x40 SHL SUB DUP3 GT OR PUSH2 0xBC6 JUMPI PUSH1 0x40 MSTORE JUMP JUMPDEST SWAP1 PUSH1 0x1F DUP1 NOT SWAP2 ADD AND DUP2 ADD SWAP1 DUP2 LT PUSH1 0x1 PUSH1 0x1 PUSH1 0x40 SHL SUB DUP3 GT OR PUSH2 0xBC6 JUMPI PUSH1 0x40 MSTORE JUMP JUMPDEST PUSH1 0x1 PUSH1 0x1 PUSH1 0x40 SHL SUB DUP2 GT PUSH2 0xBC6 JUMPI PUSH1 0x5 SHL PUSH1 0x20 ADD SWAP1 JUMP JUMPDEST PUSH1 0x1 PUSH1 0x1 PUSH1 0x40 SHL SUB DUP2 GT PUSH2 0xBC6 JUMPI PUSH1 0x1F ADD PUSH1 0x1F NOT AND PUSH1 0x20 ADD SWAP1 JUMP JUMPDEST DUP2 PUSH1 0x1F DUP3 ADD SLT ISZERO PUSH2 0x2FD JUMPI DUP1 CALLDATALOAD SWAP1 PUSH2 0x2E10 DUP3 PUSH2 0x2DDE JUMP JUMPDEST SWAP3 PUSH2 0x2E1E PUSH1 0x40 MLOAD SWAP5 DUP6 PUSH2 0x2DA6 JUMP JUMPDEST DUP3 DUP5 MSTORE PUSH1 0x20 DUP4 DUP4 ADD ADD GT PUSH2 0x2FD JUMPI DUP2 PUSH1 0x0 SWAP3 PUSH1 0x20 DUP1 SWAP4 ADD DUP4 DUP7 ADD CALLDATACOPY DUP4 ADD ADD MSTORE SWAP1 JUMP JUMPDEST SWAP1 DUP1 PUSH1 0x1F DUP4 ADD SLT ISZERO PUSH2 0x2FD JUMPI DUP2 CALLDATALOAD PUSH2 0x2E57 DUP2 PUSH2 0x2DC7 JUMP JUMPDEST SWAP3 PUSH2 0x2E65 PUSH1 0x40 MLOAD SWAP5 DUP6 PUSH2 0x2DA6 JUMP JUMPDEST DUP2 DUP5 MSTORE PUSH1 0x20 DUP1 DUP6 ADD SWAP3 PUSH1 0x5 SHL DUP3 ADD ADD SWAP2 DUP4 DUP4 GT PUSH2 0x2FD JUMPI PUSH1 0x20 DUP3 ADD SWAP1 JUMPDEST DUP4 DUP3 LT PUSH2 0x2E91 JUMPI POP POP POP POP POP SWAP1 JUMP JUMPDEST DUP2 CALLDATALOAD PUSH1 0x1 PUSH1 0x1 PUSH1 0x40 SHL SUB DUP2 GT PUSH2 0x2FD JUMPI PUSH1 0x20 SWAP2 PUSH2 0x2EB3 DUP8 DUP5 DUP1 SWAP5 DUP9 ADD ADD PUSH2 0x2DF9 JUMP JUMPDEST DUP2 MSTORE ADD SWAP2 ADD SWAP1 PUSH2 0x2E82 JUMP JUMPDEST SWAP1 DUP1 PUSH1 0x1F DUP4 ADD SLT ISZERO PUSH2 0x2FD JUMPI DUP2 CALLDATALOAD PUSH2 0x2ED5 DUP2 PUSH2 0x2DC7 JUMP JUMPDEST SWAP3 PUSH2 0x2EE3 PUSH1 0x40 MLOAD SWAP5 DUP6 PUSH2 0x2DA6 JUMP JUMPDEST DUP2 DUP5 MSTORE PUSH1 0x20 DUP1 DUP6 ADD SWAP3 PUSH1 0x5 SHL DUP3 ADD ADD SWAP3 DUP4 GT PUSH2 0x2FD JUMPI PUSH1 0x20 ADD SWAP1 JUMPDEST DUP3 DUP3 LT PUSH2 0x2F0B JUMPI POP POP POP SWAP1 JUMP JUMPDEST DUP2 CALLDATALOAD DUP2 MSTORE PUSH1 0x20 SWAP2 DUP3 ADD SWAP2 ADD PUSH2 0x2EFE JUMP JUMPDEST SWAP1 PUSH1 0x1 DUP3 DUP2 SHR SWAP3 AND DUP1 ISZERO PUSH2 0x2F4B JUMPI JUMPDEST PUSH1 0x20 DUP4 LT EQ PUSH2 0x2F35 JUMPI JUMP JUMPDEST PUSH4 0x4E487B71 PUSH1 0xE0 SHL PUSH1 0x0 MSTORE PUSH1 0x22 PUSH1 0x4 MSTORE PUSH1 0x24 PUSH1 0x0 REVERT JUMPDEST SWAP2 PUSH1 0x7F AND SWAP2 PUSH2 0x2F2A JUMP JUMPDEST SWAP1 PUSH1 0x40 MLOAD SWAP2 DUP3 PUSH1 0x0 DUP3 SLOAD SWAP3 PUSH2 0x2F69 DUP5 PUSH2 0x2F1B JUMP JUMPDEST DUP1 DUP5 MSTORE SWAP4 PUSH1 0x1 DUP2 AND SWAP1 DUP2 ISZERO PUSH2 0x2FD7 JUMPI POP PUSH1 0x1 EQ PUSH2 0x2F90 JUMPI JUMPDEST POP PUSH2 0x2F8E SWAP3 POP SUB DUP4 PUSH2 0x2DA6 JUMP JUMPDEST JUMP JUMPDEST SWAP1 POP PUSH1 0x0 SWAP3 SWAP2 SWAP3 MSTORE PUSH1 0x20 PUSH1 0x0 KECCAK256 SWAP1 PUSH1 0x0 SWAP2 JUMPDEST DUP2 DUP4 LT PUSH2 0x2FBB JUMPI POP POP SWAP1 PUSH1 0x20 PUSH2 0x2F8E SWAP3 DUP3 ADD ADD CODESIZE PUSH2 0x2F81 JUMP JUMPDEST PUSH1 0x20 SWAP2 SWAP4 POP DUP1 PUSH1 0x1 SWAP2 SLOAD DUP4 DUP6 DUP10 ADD ADD MSTORE ADD SWAP2 ADD SWAP1 SWAP2 DUP5 SWAP3 PUSH2 0x2FA2 JUMP JUMPDEST SWAP1 POP PUSH1 0x20 SWAP3 POP PUSH2 0x2F8E SWAP5 SWAP2 POP PUSH1 0xFF NOT AND DUP3 DUP5 ADD MSTORE ISZERO ISZERO PUSH1 0x5 SHL DUP3 ADD ADD CODESIZE PUSH2 0x2F81 JUMP JUMPDEST SWAP2 SWAP1 DUP3 MLOAD SWAP3 DUP4 DUP3 MSTORE PUSH1 0x0 JUMPDEST DUP5 DUP2 LT PUSH2 0x3025 JUMPI POP POP DUP3 PUSH1 0x0 PUSH1 0x20 DUP1 SWAP5 SWAP6 DUP5 ADD ADD MSTORE PUSH1 0x1F DUP1 NOT SWAP2 ADD AND ADD ADD SWAP1 JUMP JUMPDEST DUP1 PUSH1 0x20 DUP1 SWAP3 DUP5 ADD ADD MLOAD DUP3 DUP3 DUP7 ADD ADD MSTORE ADD PUSH2 0x3004 JUMP JUMPDEST PUSH1 0x40 SWAP1 PUSH1 0x3 NOT ADD SLT PUSH2 0x2FD JUMPI PUSH1 0x4 CALLDATALOAD SWAP1 PUSH1 0x24 CALLDATALOAD SWAP1 JUMP JUMPDEST PUSH1 0x24 CALLDATALOAD SWAP1 PUSH1 0x1 PUSH1 0x1 PUSH1 0xA0 SHL SUB DUP3 AND DUP3 SUB PUSH2 0x2FD JUMPI JUMP JUMPDEST PUSH1 0x4 CALLDATALOAD SWAP1 PUSH1 0x1 PUSH1 0x1 PUSH1 0xA0 SHL SUB DUP3 AND DUP3 SUB PUSH2 0x2FD JUMPI JUMP JUMPDEST DUP1 SLOAD DUP3 LT ISZERO PUSH2 0x3094 JUMPI PUSH1 0x0 MSTORE PUSH1 0x20 PUSH1 0x0 KECCAK256 ADD SWAP1 PUSH1 0x0 SWAP1 JUMP JUMPDEST PUSH4 0x4E487B71 PUSH1 0xE0 SHL PUSH1 0x0 MSTORE PUSH1 0x32 PUSH1 0x4 MSTORE PUSH1 0x24 PUSH1 0x0 REVERT JUMPDEST ISZERO PUSH2 0x30B1 JUMPI JUMP JUMPDEST PUSH1 0x40 MLOAD PUSH3 0x461BCD PUSH1 0xE5 SHL DUP2 MSTORE PUSH1 0x20 PUSH1 0x4 DUP3 ADD MSTORE PUSH1 0x14 PUSH1 0x24 DUP3 ADD MSTORE PUSH20 0x139BDD0818481D1C99585CDD5C9E4819DC985B9D PUSH1 0x62 SHL PUSH1 0x44 DUP3 ADD MSTORE PUSH1 0x64 SWAP1 REVERT JUMPDEST ISZERO PUSH2 0x30F4 JUMPI JUMP JUMPDEST PUSH1 0x40 MLOAD PUSH3 0x461BCD PUSH1 0xE5 SHL DUP2 MSTORE PUSH1 0x20 PUSH1 0x4 DUP3 ADD MSTORE PUSH1 0x13 PUSH1 0x24 DUP3 ADD MSTORE PUSH19 0x9AD2D8CAE6E8DEDCCAE640DAD2E6DAC2E8C6D PUSH1 0x6B SHL PUSH1 0x44 DUP3 ADD MSTORE PUSH1 0x64 SWAP1 REVERT JUMPDEST DUP2 DUP2 LT PUSH2 0x313A JUMPI POP POP JUMP JUMPDEST PUSH1 0x0 DUP2 SSTORE PUSH1 0x1 ADD PUSH2 0x312F JUMP JUMPDEST PUSH2 0x3150 DUP2 SLOAD PUSH2 0x2F1B JUMP JUMPDEST SWAP1 DUP2 PUSH2 0x315A JUMPI POP POP JUMP JUMPDEST DUP2 PUSH1 0x1F PUSH1 0x0 SWAP4 GT PUSH1 0x1 EQ PUSH2 0x316C JUMPI POP SSTORE JUMP JUMPDEST DUP2 DUP4 MSTORE PUSH1 0x20 DUP4 KECCAK256 PUSH2 0x3188 SWAP2 PUSH1 0x1F ADD PUSH1 0x5 SHR DUP2 ADD SWAP1 PUSH1 0x1 ADD PUSH2 0x312F JUMP JUMPDEST DUP1 DUP3 MSTORE DUP2 PUSH1 0x20 DUP2 KECCAK256 SWAP2 SSTORE SSTORE JUMP JUMPDEST ISZERO PUSH2 0x319C JUMPI JUMP JUMPDEST PUSH1 0x40 MLOAD PUSH3 0x461BCD PUSH1 0xE5 SHL DUP2 MSTORE PUSH1 0x20 PUSH1 0x4 DUP3 ADD MSTORE PUSH1 0xB PUSH1 0x24 DUP3 ADD MSTORE PUSH11 0x2737BA1031B932B0BA37B9 PUSH1 0xA9 SHL PUSH1 0x44 DUP3 ADD MSTORE PUSH1 0x64 SWAP1 REVERT JUMPDEST ISZERO PUSH2 0x31D6 JUMPI JUMP JUMPDEST PUSH1 0x40 MLOAD PUSH3 0x461BCD PUSH1 0xE5 SHL DUP2 MSTORE PUSH1 0x20 PUSH1 0x4 DUP3 ADD MSTORE PUSH1 0x15 PUSH1 0x24 DUP3 ADD MSTORE PUSH21 0x10D85B5C185A59DB881B9BDD08185C1C1C9BDD9959 PUSH1 0x5A SHL PUSH1 0x44 DUP3 ADD MSTORE PUSH1 0x64 SWAP1 REVERT JUMPDEST SWAP2 SWAP1 DUP3 SUB SWAP2 DUP3 GT PUSH2 0x96 JUMPI JUMP JUMPDEST ISZERO PUSH2 0x3227 JUMPI JUMP JUMPDEST PUSH1 0x40 MLOAD PUSH3 0x461BCD PUSH1 0xE5 SHL DUP2 MSTORE PUSH1 0x20 PUSH1 0x4 DUP3 ADD MSTORE PUSH1 0x14 PUSH1 0x24 DUP3 ADD MSTORE PUSH20 0x4E6F2066756E647320746F207769746864726177 PUSH1 0x60 SHL PUSH1 0x44 DUP3 ADD MSTORE PUSH1 0x64 SWAP1 REVERT JUMPDEST ISZERO PUSH2 0x326A JUMPI JUMP JUMPDEST PUSH1 0x40 MLOAD PUSH3 0x461BCD PUSH1 0xE5 SHL DUP2 MSTORE PUSH1 0x20 PUSH1 0x4 DUP3 ADD MSTORE PUSH1 0x34 PUSH1 0x24 DUP3 ADD MSTORE PUSH32 0x4B5943206F722061646D696E206F766572726964652072657175697265642066 PUSH1 0x44 DUP3 ADD MSTORE PUSH20 0x6F72206C61726765207769746864726177616C73 PUSH1 0x60 SHL PUSH1 0x64 DUP3 ADD MSTORE PUSH1 0x84 SWAP1 REVERT JUMPDEST RETURNDATASIZE ISZERO PUSH2 0x32F7 JUMPI RETURNDATASIZE SWAP1 PUSH2 0x32DD DUP3 PUSH2 0x2DDE JUMP JUMPDEST SWAP2 PUSH2 0x32EB PUSH1 0x40 MLOAD SWAP4 DUP5 PUSH2 0x2DA6 JUMP JUMPDEST DUP3 MSTORE RETURNDATASIZE PUSH1 0x0 PUSH1 0x20 DUP5 ADD RETURNDATACOPY JUMP JUMPDEST PUSH1 0x60 SWAP1 JUMP JUMPDEST SWAP2 SWAP1 DUP3 ADD DUP1 SWAP3 GT PUSH2 0x96 JUMPI JUMP JUMPDEST ISZERO PUSH2 0x3310 JUMPI JUMP JUMPDEST PUSH1 0x40 MLOAD PUSH3 0x461BCD PUSH1 0xE5 SHL DUP2 MSTORE PUSH1 0x20 PUSH1 0x4 DUP3 ADD MSTORE PUSH1 0xF PUSH1 0x24 DUP3 ADD MSTORE PUSH15 0x15DA5D1A191C985DC819985A5B1959 PUSH1 0x8A SHL PUSH1 0x44 DUP3 ADD MSTORE PUSH1 0x64 SWAP1 REVERT JUMPDEST ISZERO PUSH2 0x334E JUMPI JUMP JUMPDEST PUSH1 0x40 MLOAD PUSH3 0x461BCD PUSH1 0xE5 SHL DUP2 MSTORE PUSH1 0x20 PUSH1 0x4 DUP3 ADD MSTORE PUSH1 0x11 PUSH1 0x24 DUP3 ADD MSTORE PUSH17 0x496E76616C6964206D696C6573746F6E65 PUSH1 0x78 SHL PUSH1 0x44 DUP3 ADD MSTORE PUSH1 0x64 SWAP1 REVERT JUMPDEST DUP1 SLOAD DUP3 LT ISZERO PUSH2 0x3094 JUMPI PUSH1 0x0 MSTORE PUSH1 0x6 PUSH1 0x20 PUSH1 0x0 KECCAK256 SWAP2 MUL ADD SWAP1 PUSH1 0x0 SWAP1 JUMP JUMPDEST ISZERO PUSH2 0x33AA JUMPI JUMP JUMPDEST PUSH1 0x40 MLOAD PUSH3 0x461BCD PUSH1 0xE5 SHL DUP2 MSTORE PUSH1 0x20 PUSH1 0x4 DUP3 ADD MSTORE PUSH1 0x1B PUSH1 0x24 DUP3 ADD MSTORE PUSH32 0x4D696C6573746F6E6520616C726561647920636F6D706C657465640000000000 PUSH1 0x44 DUP3 ADD MSTORE PUSH1 0x64 SWAP1 REVERT JUMPDEST ISZERO PUSH2 0x33F6 JUMPI JUMP JUMPDEST PUSH1 0x40 MLOAD PUSH3 0x461BCD PUSH1 0xE5 SHL DUP2 MSTORE PUSH1 0x20 PUSH1 0x4 DUP3 ADD MSTORE PUSH1 0x14 PUSH1 0x24 DUP3 ADD MSTORE PUSH20 0x43616D706169676E206E6F742070656E64696E67 PUSH1 0x60 SHL PUSH1 0x44 DUP3 ADD MSTORE PUSH1 0x64 SWAP1 REVERT JUMPDEST ISZERO PUSH2 0x3439 JUMPI JUMP JUMPDEST PUSH1 0x40 MLOAD PUSH3 0x461BCD PUSH1 0xE5 SHL DUP2 MSTORE PUSH1 0x20 PUSH1 0x4 DUP3 ADD MSTORE PUSH1 0x17 PUSH1 0x24 DUP3 ADD MSTORE PUSH32 0x4170706C69636174696F6E206E6F742065787069726564000000000000000000 PUSH1 0x44 DUP3 ADD MSTORE PUSH1 0x64 SWAP1 REVERT JUMPDEST PUSH1 0x9 SLOAD PUSH3 0x76A700 DUP2 ADD DUP1 SWAP2 GT PUSH2 0x96 JUMPI TIMESTAMP LT ISZERO PUSH2 0x34B6 JUMPI PUSH1 0x8 SLOAD PUSH1 0xA SLOAD DUP1 DUP3 GT ISZERO PUSH2 0x34AF JUMPI PUSH2 0x34AC SWAP2 PUSH2 0x3213 JUMP JUMPDEST SWAP1 JUMP JUMPDEST POP POP PUSH1 0x0 SWAP1 JUMP JUMPDEST PUSH1 0xA SELFBALANCE DIV SWAP1 JUMP JUMPDEST ISZERO PUSH2 0x34C4 JUMPI JUMP JUMPDEST PUSH1 0x40 MLOAD PUSH3 0x461BCD PUSH1 0xE5 SHL DUP2 MSTORE PUSH1 0x20 PUSH1 0x4 DUP3 ADD MSTORE PUSH1 0x1B PUSH1 0x24 DUP3 ADD MSTORE PUSH32 0x496E73756666696369656E742074726561737572792066756E64730000000000 PUSH1 0x44 DUP3 ADD MSTORE PUSH1 0x64 SWAP1 REVERT JUMPDEST CALLER PUSH1 0x0 SWAP1 DUP2 MSTORE PUSH32 0x24E40DFF4C4DDA37E192BE72F4E95B5889DB4F90BBEE7BDAF11C39383A26943F PUSH1 0x20 MSTORE PUSH1 0x40 SWAP1 KECCAK256 SLOAD PUSH1 0xFF AND ISZERO PUSH2 0x3542 JUMPI JUMP JUMPDEST PUSH4 0xE2517D3F PUSH1 0xE0 SHL PUSH1 0x0 MSTORE CALLER PUSH1 0x4 MSTORE PUSH32 0x72C3EEC1760BF69946625C2D4FB8E44E2C806345041960B434674FB9AB3976CF PUSH1 0x24 MSTORE PUSH1 0x44 PUSH1 0x0 REVERT JUMPDEST CALLER PUSH1 0x0 SWAP1 DUP2 MSTORE PUSH32 0xE765195E334466F113E7D3F97C6A49F4713AF0D7EE079C3FC318F1C2BD7A31FC PUSH1 0x20 MSTORE PUSH1 0x40 SWAP1 KECCAK256 SLOAD PUSH1 0xFF AND ISZERO PUSH2 0x35B4 JUMPI JUMP JUMPDEST PUSH4 0xE2517D3F PUSH1 0xE0 SHL PUSH1 0x0 MSTORE CALLER PUSH1 0x4 MSTORE PUSH32 0x811427A0FA4932AEF534BBA16BC34E9B7B2D7D2A79C475FCA1765F6CC1FAEBEA PUSH1 0x24 MSTORE PUSH1 0x44 PUSH1 0x0 REVERT JUMPDEST PUSH1 0x0 DUP2 DUP2 MSTORE PUSH1 0x2 PUSH1 0x20 SWAP1 DUP2 MSTORE PUSH1 0x40 DUP1 DUP4 KECCAK256 CALLER DUP5 MSTORE SWAP1 SWAP2 MSTORE SWAP1 KECCAK256 SLOAD PUSH1 0xFF AND ISZERO PUSH2 0x3612 JUMPI POP JUMP JUMPDEST PUSH4 0xE2517D3F PUSH1 0xE0 SHL PUSH1 0x0 MSTORE CALLER PUSH1 0x4 MSTORE PUSH1 0x24 MSTORE PUSH1 0x44 PUSH1 0x0 REVERT JUMPDEST DUP1 MLOAD DUP3 LT ISZERO PUSH2 0x3094 JUMPI PUSH1 0x20 SWAP2 PUSH1 0x5 SHL ADD ADD SWAP1 JUMP JUMPDEST SWAP2 SWAP1 SWAP2 DUP1 SLOAD PUSH1 0x1 PUSH1 0x40 SHL DUP2 LT ISZERO PUSH2 0xBC6 JUMPI PUSH2 0x365E SWAP2 PUSH1 0x1 DUP3 ADD DUP2 SSTORE PUSH2 0x3387 JUMP JUMPDEST PUSH2 0x38A3 JUMPI DUP3 MLOAD SWAP3 DUP4 MLOAD PUSH1 0x1 PUSH1 0x1 PUSH1 0x40 SHL SUB DUP2 GT PUSH2 0xBC6 JUMPI PUSH2 0x367F DUP4 SLOAD PUSH2 0x2F1B JUMP JUMPDEST PUSH1 0x1F DUP2 GT PUSH2 0x3871 JUMPI JUMPDEST POP PUSH1 0x20 SWAP5 PUSH1 0x1F DUP3 GT PUSH1 0x1 EQ PUSH2 0x380C JUMPI PUSH2 0x36BD SWAP3 SWAP4 SWAP5 SWAP6 DUP3 SWAP2 PUSH1 0x0 SWAP3 PUSH2 0x3762 JUMPI JUMPDEST POP POP DUP2 PUSH1 0x1 SHL SWAP2 PUSH1 0x0 NOT SWAP1 PUSH1 0x3 SHL SHR NOT AND OR SWAP1 JUMP JUMPDEST DUP3 SSTORE JUMPDEST PUSH1 0x20 DUP2 ADD MLOAD PUSH1 0x1 DUP4 ADD SSTORE PUSH2 0x36E9 PUSH1 0x40 DUP3 ADD MLOAD ISZERO ISZERO PUSH1 0x2 DUP5 ADD SWAP1 PUSH1 0xFF DUP1 NOT DUP4 SLOAD AND SWAP2 ISZERO ISZERO AND OR SWAP1 SSTORE JUMP JUMPDEST PUSH1 0x60 DUP2 ADD MLOAD PUSH1 0x3 DUP4 ADD SSTORE PUSH1 0x4 DUP3 ADD PUSH1 0x80 DUP3 ADD MLOAD DUP1 MLOAD SWAP1 PUSH1 0x1 PUSH1 0x1 PUSH1 0x40 SHL SUB DUP3 GT PUSH2 0xBC6 JUMPI PUSH2 0x3717 DUP4 SLOAD PUSH2 0x2F1B JUMP JUMPDEST PUSH1 0x1F DUP2 GT PUSH2 0x37DA JUMPI JUMPDEST POP PUSH1 0x20 SWAP1 PUSH1 0x1F DUP4 GT PUSH1 0x1 EQ PUSH2 0x376D JUMPI DUP3 PUSH1 0x5 SWAP6 SWAP4 PUSH1 0xA0 SWAP6 SWAP4 PUSH2 0x3758 SWAP4 PUSH1 0x0 SWAP3 PUSH2 0x3762 JUMPI POP POP DUP2 PUSH1 0x1 SHL SWAP2 PUSH1 0x0 NOT SWAP1 PUSH1 0x3 SHL SHR NOT AND OR SWAP1 JUMP JUMPDEST SWAP1 SSTORE JUMPDEST ADD MLOAD SWAP2 ADD SSTORE JUMP JUMPDEST ADD MLOAD SWAP1 POP CODESIZE DUP1 PUSH2 0x36A8 JUMP JUMPDEST SWAP1 PUSH1 0x1F NOT DUP4 AND SWAP2 DUP5 PUSH1 0x0 MSTORE DUP2 PUSH1 0x0 KECCAK256 SWAP3 PUSH1 0x0 JUMPDEST DUP2 DUP2 LT PUSH2 0x37C2 JUMPI POP SWAP3 PUSH1 0x1 SWAP3 DUP6 SWAP3 PUSH1 0x5 SWAP9 SWAP7 PUSH1 0xA0 SWAP9 SWAP7 LT PUSH2 0x37A9 JUMPI JUMPDEST POP POP POP DUP2 SHL ADD SWAP1 SSTORE PUSH2 0x375B JUMP JUMPDEST ADD MLOAD PUSH1 0x0 NOT PUSH1 0xF8 DUP5 PUSH1 0x3 SHL AND SHR NOT AND SWAP1 SSTORE CODESIZE DUP1 DUP1 PUSH2 0x379C JUMP JUMPDEST SWAP3 SWAP4 PUSH1 0x20 PUSH1 0x1 DUP2 SWAP3 DUP8 DUP7 ADD MLOAD DUP2 SSTORE ADD SWAP6 ADD SWAP4 ADD PUSH2 0x3780 JUMP JUMPDEST PUSH2 0x3806 SWAP1 DUP5 PUSH1 0x0 MSTORE PUSH1 0x20 PUSH1 0x0 KECCAK256 PUSH1 0x1F DUP6 ADD PUSH1 0x5 SHR DUP2 ADD SWAP2 PUSH1 0x20 DUP7 LT PUSH2 0xBBC JUMPI PUSH1 0x1F ADD PUSH1 0x5 SHR ADD SWAP1 PUSH2 0x312F JUMP JUMPDEST CODESIZE PUSH2 0x3720 JUMP JUMPDEST PUSH1 0x1F NOT DUP3 AND SWAP6 DUP5 PUSH1 0x0 MSTORE DUP1 PUSH1 0x0 KECCAK256 SWAP2 PUSH1 0x0 JUMPDEST DUP9 DUP2 LT PUSH2 0x3859 JUMPI POP DUP4 PUSH1 0x1 SWAP6 SWAP7 SWAP8 SWAP9 LT PUSH2 0x3840 JUMPI JUMPDEST POP POP POP DUP2 SHL ADD DUP3 SSTORE PUSH2 0x36C0 JUMP JUMPDEST ADD MLOAD PUSH1 0x0 NOT PUSH1 0xF8 DUP5 PUSH1 0x3 SHL AND SHR NOT AND SWAP1 SSTORE CODESIZE DUP1 DUP1 PUSH2 0x3833 JUMP JUMPDEST SWAP2 SWAP3 PUSH1 0x20 PUSH1 0x1 DUP2 SWAP3 DUP7 DUP6 ADD MLOAD DUP2 SSTORE ADD SWAP5 ADD SWAP3 ADD PUSH2 0x381E JUMP JUMPDEST PUSH2 0x389D SWAP1 DUP5 PUSH1 0x0 MSTORE PUSH1 0x20 PUSH1 0x0 KECCAK256 PUSH1 0x1F DUP5 ADD PUSH1 0x5 SHR DUP2 ADD SWAP2 PUSH1 0x20 DUP6 LT PUSH2 0xBBC JUMPI PUSH1 0x1F ADD PUSH1 0x5 SHR ADD SWAP1 PUSH2 0x312F JUMP JUMPDEST CODESIZE PUSH2 0x3688 JUMP JUMPDEST PUSH4 0x4E487B71 PUSH1 0xE0 SHL PUSH1 0x0 MSTORE PUSH1 0x0 PUSH1 0x4 MSTORE PUSH1 0x24 PUSH1 0x0 REVERT JUMPDEST SWAP1 SWAP3 SWAP2 SWAP3 DUP2 PUSH1 0x0 MSTORE PUSH1 0x4 PUSH1 0x20 MSTORE PUSH1 0x40 PUSH1 0x0 KECCAK256 SWAP1 PUSH1 0x7 PUSH1 0x0 SWAP3 ADD PUSH1 0x20 SWAP3 JUMPDEST DUP3 MLOAD DUP2 LT ISZERO PUSH2 0x399C JUMPI DUP1 PUSH2 0x393F PUSH2 0x38EF PUSH1 0x1 SWAP4 DUP7 PUSH2 0x362A JUMP JUMPDEST MLOAD PUSH2 0x38FA DUP4 DUP12 PUSH2 0x362A JUMP JUMPDEST MLOAD PUSH1 0x40 MLOAD SWAP2 PUSH2 0x3908 DUP4 PUSH2 0x2D8B JUMP JUMPDEST DUP3 MSTORE DUP8 DUP3 ADD MSTORE PUSH1 0x0 PUSH1 0x40 DUP3 ADD MSTORE PUSH1 0x0 PUSH1 0x60 DUP3 ADD MSTORE PUSH1 0x40 MLOAD PUSH2 0x3929 DUP9 DUP3 PUSH2 0x2DA6 JUMP JUMPDEST PUSH1 0x0 DUP2 MSTORE PUSH1 0x80 DUP3 ADD MSTORE PUSH1 0x0 PUSH1 0xA0 DUP3 ADD MSTORE DUP5 PUSH2 0x363E JUMP JUMPDEST DUP6 PUSH32 0xBF293DB00F4DE65B181A066ECC2F8BB81FB7174B517FD8085700E259AD00DB1B PUSH2 0x398E PUSH2 0x396E DUP5 DUP9 PUSH2 0x362A JUMP JUMPDEST MLOAD PUSH2 0x3979 DUP6 DUP14 PUSH2 0x362A JUMP JUMPDEST MLOAD PUSH1 0x40 MLOAD SWAP3 DUP4 SWAP3 PUSH1 0x40 DUP5 MSTORE PUSH1 0x40 DUP5 ADD SWAP1 PUSH2 0x2FF9 JUMP JUMPDEST SWAP1 DUP11 DUP4 ADD MSTORE SUB SWAP1 LOG2 ADD PUSH2 0x38D6 JUMP JUMPDEST POP POP POP POP POP SWAP1 POP JUMP JUMPDEST PUSH1 0x2 PUSH1 0x0 SLOAD EQ PUSH2 0x39B6 JUMPI PUSH1 0x2 PUSH1 0x0 SSTORE JUMP JUMPDEST PUSH4 0x3EE5AEB5 PUSH1 0xE0 SHL PUSH1 0x0 MSTORE PUSH1 0x4 PUSH1 0x0 REVERT JUMPDEST PUSH1 0x0 DUP2 DUP2 MSTORE PUSH1 0x2 PUSH1 0x20 SWAP1 DUP2 MSTORE PUSH1 0x40 DUP1 DUP4 KECCAK256 PUSH1 0x1 PUSH1 0x1 PUSH1 0xA0 SHL SUB DUP7 AND DUP5 MSTORE SWAP1 SWAP2 MSTORE SWAP1 KECCAK256 SLOAD PUSH1 0xFF AND PUSH2 0x34AF JUMPI PUSH1 0x0 DUP2 DUP2 MSTORE PUSH1 0x2 PUSH1 0x20 SWAP1 DUP2 MSTORE PUSH1 0x40 DUP1 DUP4 KECCAK256 PUSH1 0x1 PUSH1 0x1 PUSH1 0xA0 SHL SUB SWAP6 SWAP1 SWAP6 AND DUP1 DUP5 MSTORE SWAP5 SWAP1 SWAP2 MSTORE DUP2 KECCAK256 DUP1 SLOAD PUSH1 0xFF NOT AND PUSH1 0x1 OR SWAP1 SSTORE CALLER SWAP3 SWAP2 SWAP1 PUSH32 0x2F8788117E7EFF1D82E926EC794901D17C78024A50270940304540A733656F0D SWAP1 DUP1 LOG4 PUSH1 0x1 SWAP1 JUMP JUMPDEST PUSH1 0x1 SLOAD PUSH1 0x1 PUSH1 0x1 PUSH1 0xA0 SHL SUB AND CALLER SUB PUSH2 0x3A63 JUMPI JUMP JUMPDEST PUSH4 0x118CDAA7 PUSH1 0xE0 SHL PUSH1 0x0 MSTORE CALLER PUSH1 0x4 MSTORE PUSH1 0x24 PUSH1 0x0 REVERT JUMPDEST PUSH1 0x0 DUP2 DUP2 MSTORE PUSH1 0x2 PUSH1 0x20 SWAP1 DUP2 MSTORE PUSH1 0x40 DUP1 DUP4 KECCAK256 PUSH1 0x1 PUSH1 0x1 PUSH1 0xA0 SHL SUB DUP7 AND DUP5 MSTORE SWAP1 SWAP2 MSTORE SWAP1 KECCAK256 SLOAD PUSH1 0xFF AND ISZERO PUSH2 0x34AF JUMPI PUSH1 0x0 DUP2 DUP2 MSTORE PUSH1 0x2 PUSH1 0x20 SWAP1 DUP2 MSTORE PUSH1 0x40 DUP1 DUP4 KECCAK256 PUSH1 0x1 PUSH1 0x1 PUSH1 0xA0 SHL SUB SWAP6 SWAP1 SWAP6 AND DUP1 DUP5 MSTORE SWAP5 SWAP1 SWAP2 MSTORE DUP2 KECCAK256 DUP1 SLOAD PUSH1 0xFF NOT AND SWAP1 SSTORE CALLER SWAP3 SWAP2 SWAP1 PUSH32 0xF6391F5C32D9C69D2A47EA670B442974B53935D1EDC7FD64EB21E047A839171B SWAP1 DUP1 LOG4 PUSH1 0x1 SWAP1 JUMP INVALID SHR NUMBER 0xB9 PUSH23 0x1B3FBA5321CA8212BFC231945F668CCC0C446F333999EE 0xA9 0xCE DUP16 0xDA DUP2 LOG2 PUSH5 0x6970667358 0x22 SLT KECCAK256 DIV SUB CALLVALUE 0x27 0x27 0xFC SLOAD 0xC0 BASEFEE SWAP9 ADDRESS DUP13 DUP14 0xE5 PUSH4 0x7F8F97BF 0xF7 0xD2 0xA5 TLOAD 0x2C DUP4 0xA7 NOT NOT DELEGATECALL PUSH27 0x512364736F6C634300081C00332F8788117E7EFF1D82E926EC7949 ADD 0xD1 PUSH29 0x78024A50270940304540A733656F0DE765195E334466F113E7D3F97C6A BLOBHASH DELEGATECALL PUSH18 0x3AF0D7EE079C3FC318F1C2BD7A31FCAC33FF PUSH22 0xC19E70FE83507DB0D683FD3465C996598DC972688B7A 0xCE PUSH8 0x6C89077B00000000 "},"methodIdentifiers":{"DEFAULT_ADMIN_ROLE()":"a217fddf","KYC_ADMIN_ROLE()":"02d7fd92","KYC_WITHDRAWAL_THRESHOLD()":"837b2a4d","VOTER_ROLE()":"a94015c8","approveCustomMilestones(uint256,string[],uint256[])":"095d16b2","approveMilestone(uint256,uint256)":"20913da5","autoRejectUnreviewedTreasuryGrants(uint256)":"2c3e6317","campaignContributors(uint256,uint256)":"ff96de21","campaignIds()":"6c1739ce","campaigns(uint256)":"141961bc","createCampaign(string,uint256,uint8,string[],uint256[],string,string,string)":"f59b8db3","currentQuarterStart()":"c6b647b9","daoTreasury()":"79022a9f","emergencyWithdrawalOverrides(address,uint256)":"5130691b","failedTransferBalances(address)":"f37beeb4","fundProject(uint256)":"6c563abe","getAvailableTreasuryFunds()":"5f0ede38","getCampaignMilestones(uint256)":"f91e4b29","getContributors(uint256)":"3c1ab00f","getCrowdfundedAmount(uint256)":"c966d402","getRoleAdmin(bytes32)":"248a9ca3","getUserContribution(uint256,address)":"5117e338","grantRole(bytes32,address)":"2f2ff15d","hasRole(bytes32,address)":"91d14854","isKYCVerified(address)":"54b7636e","overrideAutoRejection(uint256)":"370560be","owner()":"8da5cb5b","ownerWithdraw(uint256)":"33f707d1","quarterlyFundsUsed()":"d59161ab","quarterlyTreasuryLimit()":"2855e693","refundUnspentFunds(uint256)":"92899236","rejectMilestone(uint256,uint256)":"3abe6bd7","renounceOwnership()":"715018a6","renounceRole(bytes32,address)":"36568abe","revokeRole(bytes32,address)":"d547741f","setEmergencyWithdrawalOverride(uint256,address,bool)":"b19954ca","submitMilestoneProof(uint256,uint256,string)":"9f791e5f","supportsInterface(bytes4)":"01ffc9a7","transferOwnership(address)":"f2fde38b","updateKYCStatus(address,bool)":"53df9d76","updateTreasuryLimit()":"f21539d5","userContributions(address,uint256)":"7331fa95","voteCampaign(uint256)":"5f7ec46d","withdrawFailedTransfers(address)":"3fb0d90f","withdrawFunds(uint256)":"155dd5ee","withdrawMilestoneFunds(uint256,uint256)":"bfe26612"}}}}}