{
  "_format": "hh-sol-artifact-1",
  "contractName": "FundingPool",
  "sourceName": "contracts/FundingPool.sol",
  "abi": [
    {
      "inputs": [
        {
          "internalType": "address",
          "name": "_daoTreasury",
          "type": "address"
        }
      ],
      "stateMutability": "nonpayable",
      "type": "constructor"
    },
    {
      "inputs": [],
      "name": "AccessControlBadConfirmation",
      "type": "error"
    },
    {
      "inputs": [
        {
          "internalType": "address",
          "name": "account",
          "type": "address"
        },
        {
          "internalType": "bytes32",
          "name": "neededRole",
          "type": "bytes32"
        }
      ],
      "name": "AccessControlUnauthorizedAccount",
      "type": "error"
    },
    {
      "inputs": [
        {
          "internalType": "address",
          "name": "owner",
          "type": "address"
        }
      ],
      "name": "OwnableInvalidOwner",
      "type": "error"
    },
    {
      "inputs": [
        {
          "internalType": "address",
          "name": "account",
          "type": "address"
        }
      ],
      "name": "OwnableUnauthorizedAccount",
      "type": "error"
    },
    {
      "inputs": [],
      "name": "ReentrancyGuardReentrantCall",
      "type": "error"
    },
    {
      "anonymous": false,
      "inputs": [
        {
          "indexed": true,
          "internalType": "uint256",
          "name": "campaignId",
          "type": "uint256"
        },
        {
          "indexed": true,
          "internalType": "address",
          "name": "creator",
          "type": "address"
        },
        {
          "indexed": false,
          "internalType": "string",
          "name": "name",
          "type": "string"
        },
        {
          "indexed": false,
          "internalType": "uint256",
          "name": "fundingGoal",
          "type": "uint256"
        },
        {
          "indexed": false,
          "internalType": "uint256",
          "name": "deadline",
          "type": "uint256"
        }
      ],
      "name": "CampaignCreated",
      "type": "event"
    },
    {
      "anonymous": false,
      "inputs": [
        {
          "indexed": true,
          "internalType": "uint256",
          "name": "campaignId",
          "type": "uint256"
        },
        {
          "indexed": false,
          "internalType": "enum FundingPool.Status",
          "name": "status",
          "type": "uint8"
        }
      ],
      "name": "CampaignStatusUpdated",
      "type": "event"
    },
    {
      "anonymous": false,
      "inputs": [
        {
          "indexed": true,
          "internalType": "uint256",
          "name": "campaignId",
          "type": "uint256"
        },
        {
          "indexed": true,
          "internalType": "address",
          "name": "creator",
          "type": "address"
        },
        {
          "indexed": false,
          "internalType": "uint256",
          "name": "amount",
          "type": "uint256"
        }
      ],
      "name": "FundsWithdrawn",
      "type": "event"
    },
    {
      "anonymous": false,
      "inputs": [
        {
          "indexed": true,
          "internalType": "uint256",
          "name": "campaignId",
          "type": "uint256"
        },
        {
          "indexed": false,
          "internalType": "string",
          "name": "description",
          "type": "string"
        },
        {
          "indexed": false,
          "internalType": "uint256",
          "name": "amount",
          "type": "uint256"
        }
      ],
      "name": "MilestoneAdded",
      "type": "event"
    },
    {
      "anonymous": false,
      "inputs": [
        {
          "indexed": true,
          "internalType": "address",
          "name": "previousOwner",
          "type": "address"
        },
        {
          "indexed": true,
          "internalType": "address",
          "name": "newOwner",
          "type": "address"
        }
      ],
      "name": "OwnershipTransferred",
      "type": "event"
    },
    {
      "anonymous": false,
      "inputs": [
        {
          "indexed": true,
          "internalType": "bytes32",
          "name": "role",
          "type": "bytes32"
        },
        {
          "indexed": true,
          "internalType": "bytes32",
          "name": "previousAdminRole",
          "type": "bytes32"
        },
        {
          "indexed": true,
          "internalType": "bytes32",
          "name": "newAdminRole",
          "type": "bytes32"
        }
      ],
      "name": "RoleAdminChanged",
      "type": "event"
    },
    {
      "anonymous": false,
      "inputs": [
        {
          "indexed": true,
          "internalType": "bytes32",
          "name": "role",
          "type": "bytes32"
        },
        {
          "indexed": true,
          "internalType": "address",
          "name": "account",
          "type": "address"
        },
        {
          "indexed": true,
          "internalType": "address",
          "name": "sender",
          "type": "address"
        }
      ],
      "name": "RoleGranted",
      "type": "event"
    },
    {
      "anonymous": false,
      "inputs": [
        {
          "indexed": true,
          "internalType": "bytes32",
          "name": "role",
          "type": "bytes32"
        },
        {
          "indexed": true,
          "internalType": "address",
          "name": "account",
          "type": "address"
        },
        {
          "indexed": true,
          "internalType": "address",
          "name": "sender",
          "type": "address"
        }
      ],
      "name": "RoleRevoked",
      "type": "event"
    },
    {
      "anonymous": false,
      "inputs": [
        {
          "indexed": true,
          "internalType": "uint256",
          "name": "campaignId",
          "type": "uint256"
        },
        {
          "indexed": true,
          "internalType": "address",
          "name": "voter",
          "type": "address"
        }
      ],
      "name": "VoteCast",
      "type": "event"
    },
    {
      "inputs": [],
      "name": "DEFAULT_ADMIN_ROLE",
      "outputs": [
        {
          "internalType": "bytes32",
          "name": "",
          "type": "bytes32"
        }
      ],
      "stateMutability": "view",
      "type": "function"
    },
    {
      "inputs": [],
      "name": "VOTER_ROLE",
      "outputs": [
        {
          "internalType": "bytes32",
          "name": "",
          "type": "bytes32"
        }
      ],
      "stateMutability": "view",
      "type": "function"
    },
    {
      "inputs": [
        {
          "internalType": "address",
          "name": "voter",
          "type": "address"
        }
      ],
      "name": "addVoter",
      "outputs": [],
      "stateMutability": "nonpayable",
      "type": "function"
    },
    {
      "inputs": [],
      "name": "campaignIds",
      "outputs": [
        {
          "internalType": "uint256",
          "name": "",
          "type": "uint256"
        }
      ],
      "stateMutability": "view",
      "type": "function"
    },
    {
      "inputs": [
        {
          "internalType": "uint256",
          "name": "",
          "type": "uint256"
        }
      ],
      "name": "campaignVotes",
      "outputs": [
        {
          "internalType": "uint256",
          "name": "",
          "type": "uint256"
        }
      ],
      "stateMutability": "view",
      "type": "function"
    },
    {
      "inputs": [
        {
          "internalType": "uint256",
          "name": "",
          "type": "uint256"
        }
      ],
      "name": "campaigns",
      "outputs": [
        {
          "internalType": "string",
          "name": "name",
          "type": "string"
        },
        {
          "internalType": "address",
          "name": "creator",
          "type": "address"
        },
        {
          "internalType": "uint256",
          "name": "fundingGoal",
          "type": "uint256"
        },
        {
          "internalType": "uint256",
          "name": "deadline",
          "type": "uint256"
        },
        {
          "internalType": "uint256",
          "name": "amountRaised",
          "type": "uint256"
        },
        {
          "internalType": "enum FundingPool.Status",
          "name": "status",
          "type": "uint8"
        },
        {
          "internalType": "bool",
          "name": "withdrawalsPaused",
          "type": "bool"
        },
        {
          "internalType": "uint256",
          "name": "withdrawnAmount",
          "type": "uint256"
        }
      ],
      "stateMutability": "view",
      "type": "function"
    },
    {
      "inputs": [
        {
          "internalType": "string",
          "name": "_name",
          "type": "string"
        },
        {
          "internalType": "uint256",
          "name": "_fundingGoal",
          "type": "uint256"
        },
        {
          "internalType": "uint256",
          "name": "_durationInSeconds",
          "type": "uint256"
        },
        {
          "internalType": "string[]",
          "name": "_milestoneDescriptions",
          "type": "string[]"
        },
        {
          "internalType": "uint256[]",
          "name": "_milestoneAmounts",
          "type": "uint256[]"
        }
      ],
      "name": "createCampaign",
      "outputs": [
        {
          "internalType": "uint256",
          "name": "",
          "type": "uint256"
        }
      ],
      "stateMutability": "nonpayable",
      "type": "function"
    },
    {
      "inputs": [],
      "name": "daoTreasury",
      "outputs": [
        {
          "internalType": "address",
          "name": "",
          "type": "address"
        }
      ],
      "stateMutability": "view",
      "type": "function"
    },
    {
      "inputs": [
        {
          "internalType": "uint256",
          "name": "_campaignId",
          "type": "uint256"
        }
      ],
      "name": "getCampaignStatus",
      "outputs": [
        {
          "internalType": "enum FundingPool.Status",
          "name": "",
          "type": "uint8"
        }
      ],
      "stateMutability": "view",
      "type": "function"
    },
    {
      "inputs": [],
      "name": "getDaoTreasury",
      "outputs": [
        {
          "internalType": "address",
          "name": "",
          "type": "address"
        }
      ],
      "stateMutability": "view",
      "type": "function"
    },
    {
      "inputs": [
        {
          "internalType": "uint256",
          "name": "_campaignId",
          "type": "uint256"
        }
      ],
      "name": "getMilestones",
      "outputs": [
        {
          "components": [
            {
              "internalType": "string",
              "name": "description",
              "type": "string"
            },
            {
              "internalType": "uint256",
              "name": "amount",
              "type": "uint256"
            },
            {
              "internalType": "bool",
              "name": "completed",
              "type": "bool"
            }
          ],
          "internalType": "struct FundingPool.Milestone[]",
          "name": "",
          "type": "tuple[]"
        }
      ],
      "stateMutability": "view",
      "type": "function"
    },
    {
      "inputs": [
        {
          "internalType": "bytes32",
          "name": "role",
          "type": "bytes32"
        }
      ],
      "name": "getRoleAdmin",
      "outputs": [
        {
          "internalType": "bytes32",
          "name": "",
          "type": "bytes32"
        }
      ],
      "stateMutability": "view",
      "type": "function"
    },
    {
      "inputs": [
        {
          "internalType": "bytes32",
          "name": "role",
          "type": "bytes32"
        },
        {
          "internalType": "address",
          "name": "account",
          "type": "address"
        }
      ],
      "name": "grantRole",
      "outputs": [],
      "stateMutability": "nonpayable",
      "type": "function"
    },
    {
      "inputs": [
        {
          "internalType": "bytes32",
          "name": "role",
          "type": "bytes32"
        },
        {
          "internalType": "address",
          "name": "account",
          "type": "address"
        }
      ],
      "name": "hasRole",
      "outputs": [
        {
          "internalType": "bool",
          "name": "",
          "type": "bool"
        }
      ],
      "stateMutability": "view",
      "type": "function"
    },
    {
      "inputs": [
        {
          "internalType": "uint256",
          "name": "",
          "type": "uint256"
        },
        {
          "internalType": "address",
          "name": "",
          "type": "address"
        }
      ],
      "name": "hasVoted",
      "outputs": [
        {
          "internalType": "bool",
          "name": "",
          "type": "bool"
        }
      ],
      "stateMutability": "view",
      "type": "function"
    },
    {
      "inputs": [],
      "name": "owner",
      "outputs": [
        {
          "internalType": "address",
          "name": "",
          "type": "address"
        }
      ],
      "stateMutability": "view",
      "type": "function"
    },
    {
      "inputs": [
        {
          "internalType": "address",
          "name": "voter",
          "type": "address"
        }
      ],
      "name": "removeVoter",
      "outputs": [],
      "stateMutability": "nonpayable",
      "type": "function"
    },
    {
      "inputs": [],
      "name": "renounceOwnership",
      "outputs": [],
      "stateMutability": "nonpayable",
      "type": "function"
    },
    {
      "inputs": [
        {
          "internalType": "bytes32",
          "name": "role",
          "type": "bytes32"
        },
        {
          "internalType": "address",
          "name": "callerConfirmation",
          "type": "address"
        }
      ],
      "name": "renounceRole",
      "outputs": [],
      "stateMutability": "nonpayable",
      "type": "function"
    },
    {
      "inputs": [
        {
          "internalType": "bytes32",
          "name": "role",
          "type": "bytes32"
        },
        {
          "internalType": "address",
          "name": "account",
          "type": "address"
        }
      ],
      "name": "revokeRole",
      "outputs": [],
      "stateMutability": "nonpayable",
      "type": "function"
    },
    {
      "inputs": [
        {
          "internalType": "address",
          "name": "_creator",
          "type": "address"
        },
        {
          "internalType": "bool",
          "name": "_isVerified",
          "type": "bool"
        }
      ],
      "name": "setVerifiedCreator",
      "outputs": [],
      "stateMutability": "nonpayable",
      "type": "function"
    },
    {
      "inputs": [
        {
          "internalType": "bytes4",
          "name": "interfaceId",
          "type": "bytes4"
        }
      ],
      "name": "supportsInterface",
      "outputs": [
        {
          "internalType": "bool",
          "name": "",
          "type": "bool"
        }
      ],
      "stateMutability": "view",
      "type": "function"
    },
    {
      "inputs": [
        {
          "internalType": "address",
          "name": "newOwner",
          "type": "address"
        }
      ],
      "name": "transferOwnership",
      "outputs": [],
      "stateMutability": "nonpayable",
      "type": "function"
    },
    {
      "inputs": [
        {
          "internalType": "uint256",
          "name": "_campaignId",
          "type": "uint256"
        },
        {
          "internalType": "enum FundingPool.Status",
          "name": "_status",
          "type": "uint8"
        }
      ],
      "name": "updateCampaignStatus",
      "outputs": [],
      "stateMutability": "nonpayable",
      "type": "function"
    },
    {
      "inputs": [
        {
          "internalType": "address",
          "name": "",
          "type": "address"
        },
        {
          "internalType": "uint256",
          "name": "",
          "type": "uint256"
        }
      ],
      "name": "userContributions",
      "outputs": [
        {
          "internalType": "uint256",
          "name": "",
          "type": "uint256"
        }
      ],
      "stateMutability": "view",
      "type": "function"
    },
    {
      "inputs": [
        {
          "internalType": "address",
          "name": "",
          "type": "address"
        }
      ],
      "name": "verifiedCreators",
      "outputs": [
        {
          "internalType": "bool",
          "name": "",
          "type": "bool"
        }
      ],
      "stateMutability": "view",
      "type": "function"
    },
    {
      "inputs": [
        {
          "internalType": "uint256",
          "name": "campaignId",
          "type": "uint256"
        }
      ],
      "name": "voteOnCampaign",
      "outputs": [],
      "stateMutability": "nonpayable",
      "type": "function"
    },
    {
      "inputs": [
        {
          "internalType": "uint256",
          "name": "_campaignId",
          "type": "uint256"
        }
      ],
      "name": "withdrawFunds",
      "outputs": [],
      "stateMutability": "nonpayable",
      "type": "function"
    },
    {
      "stateMutability": "payable",
      "type": "receive"
    }
  ],
  "bytecode": "0x6080604052600060035534801561001557600080fd5b5060405161335d38038061335d83398181016040528101906100379190610426565b336001600081905550600073ffffffffffffffffffffffffffffffffffffffff168173ffffffffffffffffffffffffffffffffffffffff16036100b25760006040517f1e4fbdf70000000000000000000000000000000000000000000000000000000081526004016100a99190610462565b60405180910390fd5b6100c18161018c60201b60201c565b50600073ffffffffffffffffffffffffffffffffffffffff168173ffffffffffffffffffffffffffffffffffffffff1603610131576040517f08c379a0000000000000000000000000000000000000000000000000000000008152600401610128906104da565b60405180910390fd5b80600760006101000a81548173ffffffffffffffffffffffffffffffffffffffff021916908373ffffffffffffffffffffffffffffffffffffffff1602179055506101856000801b3361025260201b60201c565b50506104fa565b6000600160009054906101000a900473ffffffffffffffffffffffffffffffffffffffff16905081600160006101000a81548173ffffffffffffffffffffffffffffffffffffffff021916908373ffffffffffffffffffffffffffffffffffffffff1602179055508173ffffffffffffffffffffffffffffffffffffffff168173ffffffffffffffffffffffffffffffffffffffff167f8be0079c531659141344cd1fd0a4f28419497f9722a3daafe3b4186f6b6457e060405160405180910390a35050565b6000610264838361035060201b60201c565b6103455760016002600085815260200190815260200160002060000160008473ffffffffffffffffffffffffffffffffffffffff1673ffffffffffffffffffffffffffffffffffffffff16815260200190815260200160002060006101000a81548160ff0219169083151502179055506102e26103bb60201b60201c565b73ffffffffffffffffffffffffffffffffffffffff168273ffffffffffffffffffffffffffffffffffffffff16847f2f8788117e7eff1d82e926ec794901d17c78024a50270940304540a733656f0d60405160405180910390a46001905061034a565b600090505b92915050565b60006002600084815260200190815260200160002060000160008373ffffffffffffffffffffffffffffffffffffffff1673ffffffffffffffffffffffffffffffffffffffff16815260200190815260200160002060009054906101000a900460ff16905092915050565b600033905090565b600080fd5b600073ffffffffffffffffffffffffffffffffffffffff82169050919050565b60006103f3826103c8565b9050919050565b610403816103e8565b811461040e57600080fd5b50565b600081519050610420816103fa565b92915050565b60006020828403121561043c5761043b6103c3565b5b600061044a84828501610411565b91505092915050565b61045c816103e8565b82525050565b60006020820190506104776000830184610453565b92915050565b600082825260208201905092915050565b7f44414f2054726561737572792063616e6e6f74206265207a65726f0000000000600082015250565b60006104c4601b8361047d565b91506104cf8261048e565b602082019050919050565b600060208201905081810360008301526104f3816104b7565b9050919050565b612e54806105096000396000f3fe6080604052600436106101bb5760003560e01c8063715018a6116100ec578063a94015c81161008a578063d6db2d8c11610064578063d6db2d8c14610666578063f2fde38b14610691578063f4ab9adf146106ba578063fdc3f751146106e3576101c2565b8063a94015c8146105d5578063add150bc14610600578063d547741f1461063d576101c2565b806386c1ff68116100c657806386c1ff68146105195780638da5cb5b1461054257806391d148541461056d578063a217fddf146105aa576101c2565b8063715018a61461049a5780637331fa95146104b157806379022a9f146104ee576101c2565b806336568abe11610159578063438596321161013357806343859632146103b85780635a6f2869146103f55780636c1739ce146104325780636c19e0041461045d576101c2565b806336568abe1461032957806342c549c01461035257806342fb8bd01461038f576101c2565b8063155dd5ee11610195578063155dd5ee146102715780631d91dba91461029a578063248a9ca3146102c35780632f2ff15d14610300576101c2565b806301ffc9a7146101c757806310eb6d5014610204578063141961bc1461022d576101c2565b366101c257005b600080fd5b3480156101d357600080fd5b506101ee60048036038101906101e99190611b88565b610720565b6040516101fb9190611bd0565b60405180910390f35b34801561021057600080fd5b5061022b60048036038101906102269190611c46565b61079a565b005b34801561023957600080fd5b50610254600480360381019061024f9190611c86565b61081c565b604051610268989796959493929190611e0a565b60405180910390f35b34801561027d57600080fd5b5061029860048036038101906102939190611c86565b610926565b005b3480156102a657600080fd5b506102c160048036038101906102bc9190611ee7565b610c4b565b005b3480156102cf57600080fd5b506102ea60048036038101906102e59190611f5d565b610cae565b6040516102f79190611f99565b60405180910390f35b34801561030c57600080fd5b5061032760048036038101906103229190611fb4565b610cce565b005b34801561033557600080fd5b50610350600480360381019061034b9190611fb4565b610cf0565b005b34801561035e57600080fd5b5061037960048036038101906103749190611c86565b610d6b565b604051610386919061216e565b60405180910390f35b34801561039b57600080fd5b506103b660048036038101906103b19190611c86565b610e97565b005b3480156103c457600080fd5b506103df60048036038101906103da9190612190565b611079565b6040516103ec9190611bd0565b60405180910390f35b34801561040157600080fd5b5061041c60048036038101906104179190611c86565b6110a8565b60405161042991906121d0565b60405180910390f35b34801561043e57600080fd5b506104476110c0565b60405161045491906121d0565b60405180910390f35b34801561046957600080fd5b50610484600480360381019061047f9190611c86565b6110c6565b60405161049191906121eb565b60405180910390f35b3480156104a657600080fd5b506104af6110f3565b005b3480156104bd57600080fd5b506104d860048036038101906104d39190612206565b611107565b6040516104e591906121d0565b60405180910390f35b3480156104fa57600080fd5b5061050361112c565b6040516105109190612246565b60405180910390f35b34801561052557600080fd5b50610540600480360381019061053b9190612261565b611152565b005b34801561054e57600080fd5b50610557611187565b6040516105649190612246565b60405180910390f35b34801561057957600080fd5b50610594600480360381019061058f9190611fb4565b6111b1565b6040516105a19190611bd0565b60405180910390f35b3480156105b657600080fd5b506105bf61121c565b6040516105cc9190611f99565b60405180910390f35b3480156105e157600080fd5b506105ea611223565b6040516105f79190611f99565b60405180910390f35b34801561060c57600080fd5b5061062760048036038101906106229190612261565b611247565b6040516106349190611bd0565b60405180910390f35b34801561064957600080fd5b50610664600480360381019061065f9190611fb4565b611267565b005b34801561067257600080fd5b5061067b611289565b6040516106889190612246565b60405180910390f35b34801561069d57600080fd5b506106b860048036038101906106b39190612261565b6112b3565b005b3480156106c657600080fd5b506106e160048036038101906106dc9190612261565b611339565b005b3480156106ef57600080fd5b5061070a6004803603810190610705919061256c565b61136e565b60405161071791906121d0565b60405180910390f35b60007f7965db0b000000000000000000000000000000000000000000000000000000007bffffffffffffffffffffffffffffffffffffffffffffffffffffffff1916827bffffffffffffffffffffffffffffffffffffffffffffffffffffffff191614806107935750610792826116c3565b5b9050919050565b6107a261172d565b806004600084815260200190815260200160002060050160006101000a81548160ff021916908360028111156107db576107da611d93565b5b0217905550817f1289cf89aaaed53d6590c1b7996ba434edb31dcbd322d0b88ff0c02f64bbdeef8260405161081091906121eb565b60405180910390a25050565b600460205280600052604060002060009150905080600001805461083f9061266a565b80601f016020809104026020016040519081016040528092919081815260200182805461086b9061266a565b80156108b85780601f1061088d576101008083540402835291602001916108b8565b820191906000526020600020905b81548152906001019060200180831161089b57829003601f168201915b5050505050908060010160009054906101000a900473ffffffffffffffffffffffffffffffffffffffff16908060020154908060030154908060040154908060050160009054906101000a900460ff16908060050160019054906101000a900460ff16908060070154905088565b61092e6117b4565b60006004600083815260200190815260200160002090503373ffffffffffffffffffffffffffffffffffffffff168160010160009054906101000a900473ffffffffffffffffffffffffffffffffffffffff1673ffffffffffffffffffffffffffffffffffffffff16146109d7576040517f08c379a00000000000000000000000000000000000000000000000000000000081526004016109ce906126e7565b60405180910390fd5b600160028111156109eb576109ea611d93565b5b8160050160009054906101000a900460ff166002811115610a0f57610a0e611d93565b5b14610a4f576040517f08c379a0000000000000000000000000000000000000000000000000000000008152600401610a4690612753565b60405180910390fd5b8060050160019054906101000a900460ff1615610aa1576040517f08c379a0000000000000000000000000000000000000000000000000000000008152600401610a98906127bf565b60405180910390fd5b6000805b8260060180549050811015610b3157826006018181548110610aca57610ac96127df565b5b906000526020600020906003020160020160009054906101000a900460ff1615610b2457826006018181548110610b0457610b036127df565b5b90600052602060002090600302016001015482610b21919061283d565b91505b8080600101915050610aa5565b5081600701548111610b78576040517f08c379a0000000000000000000000000000000000000000000000000000000008152600401610b6f906128bd565b60405180910390fd5b6000826007015482610b8a91906128dd565b905080836007016000828254610ba0919061283d565b925050819055503373ffffffffffffffffffffffffffffffffffffffff166108fc829081150290604051600060405180830381858888f19350505050158015610bed573d6000803e3d6000fd5b503373ffffffffffffffffffffffffffffffffffffffff16847ff440aec6b52895984d061d622e6edeba6210f7c3e059be920663140c084560d783604051610c3591906121d0565b60405180910390a3505050610c486117fa565b50565b610c5361172d565b80600660008473ffffffffffffffffffffffffffffffffffffffff1673ffffffffffffffffffffffffffffffffffffffff16815260200190815260200160002060006101000a81548160ff0219169083151502179055505050565b600060026000838152602001908152602001600020600101549050919050565b610cd782610cae565b610ce081611804565b610cea8383611818565b50505050565b610cf861190a565b73ffffffffffffffffffffffffffffffffffffffff168173ffffffffffffffffffffffffffffffffffffffff1614610d5c576040517f6697b23200000000000000000000000000000000000000000000000000000000815260040160405180910390fd5b610d668282611912565b505050565b606060046000838152602001908152602001600020600601805480602002602001604051908101604052809291908181526020016000905b82821015610e8c5783829060005260206000209060030201604051806060016040529081600082018054610dd69061266a565b80601f0160208091040260200160405190810160405280929190818152602001828054610e029061266a565b8015610e4f5780601f10610e2457610100808354040283529160200191610e4f565b820191906000526020600020905b815481529060010190602001808311610e3257829003601f168201915b50505050508152602001600182015481526020016002820160009054906101000a900460ff16151515158152505081526020019060010190610da3565b505050509050919050565b610ec17f72c3eec1760bf69946625c2d4fb8e44e2c806345041960b434674fb9ab3976cf336111b1565b610f00576040517f08c379a0000000000000000000000000000000000000000000000000000000008152600401610ef79061295d565b60405180910390fd5b6009600082815260200190815260200160002060003373ffffffffffffffffffffffffffffffffffffffff1673ffffffffffffffffffffffffffffffffffffffff16815260200190815260200160002060009054906101000a900460ff1615610f9e576040517f08c379a0000000000000000000000000000000000000000000000000000000008152600401610f95906129c9565b60405180910390fd5b6001600860008381526020019081526020016000206000828254610fc2919061283d565b9250508190555060016009600083815260200190815260200160002060003373ffffffffffffffffffffffffffffffffffffffff1673ffffffffffffffffffffffffffffffffffffffff16815260200190815260200160002060006101000a81548160ff0219169083151502179055503373ffffffffffffffffffffffffffffffffffffffff16817ff1003b73c437642c0460aee9cd9628b0b8c447b66e6c7c905531b9c644214a1160405160405180910390a350565b60096020528160005260406000206020528060005260406000206000915091509054906101000a900460ff1681565b60086020528060005260406000206000915090505481565b60035481565b60006004600083815260200190815260200160002060050160009054906101000a900460ff169050919050565b6110fb61172d565b6111056000611a05565b565b6005602052816000526040600020602052806000526040600020600091509150505481565b600760009054906101000a900473ffffffffffffffffffffffffffffffffffffffff1681565b61115a61172d565b6111847f72c3eec1760bf69946625c2d4fb8e44e2c806345041960b434674fb9ab3976cf82611267565b50565b6000600160009054906101000a900473ffffffffffffffffffffffffffffffffffffffff16905090565b60006002600084815260200190815260200160002060000160008373ffffffffffffffffffffffffffffffffffffffff1673ffffffffffffffffffffffffffffffffffffffff16815260200190815260200160002060009054906101000a900460ff16905092915050565b6000801b81565b7f72c3eec1760bf69946625c2d4fb8e44e2c806345041960b434674fb9ab3976cf81565b60066020528060005260406000206000915054906101000a900460ff1681565b61127082610cae565b61127981611804565b6112838383611912565b50505050565b6000600760009054906101000a900473ffffffffffffffffffffffffffffffffffffffff16905090565b6112bb61172d565b600073ffffffffffffffffffffffffffffffffffffffff168173ffffffffffffffffffffffffffffffffffffffff160361132d5760006040517f1e4fbdf70000000000000000000000000000000000000000000000000000000081526004016113249190612246565b60405180910390fd5b61133681611a05565b50565b61134161172d565b61136b7f72c3eec1760bf69946625c2d4fb8e44e2c806345041960b434674fb9ab3976cf82610cce565b50565b6000600660003373ffffffffffffffffffffffffffffffffffffffff1673ffffffffffffffffffffffffffffffffffffffff16815260200190815260200160002060009054906101000a900460ff166113fc576040517f08c379a00000000000000000000000000000000000000000000000000000000081526004016113f390612a35565b60405180910390fd5b8151835114611440576040517f08c379a000000000000000000000000000000000000000000000000000000000815260040161143790612aa1565b60405180910390fd5b6003600081548092919061145390612ac1565b919050555060006004600060035481526020019081526020016000209050868160000190816114829190612cb5565b50338160010160006101000a81548173ffffffffffffffffffffffffffffffffffffffff021916908373ffffffffffffffffffffffffffffffffffffffff16021790555085816002018190555084426114db919061283d565b816003018190555060008160050160006101000a81548160ff0219169083600281111561150b5761150a611d93565b5b021790555060005b845181101561165a5781600601604051806060016040528087848151811061153e5761153d6127df565b5b6020026020010151815260200186848151811061155e5761155d6127df565b5b6020026020010151815260200160001515815250908060018154018082558091505060019003906000526020600020906003020160009091909190915060008201518160000190816115b09190612cb5565b506020820151816001015560408201518160020160006101000a81548160ff02191690831515021790555050506003547fbf293db00f4de65b181a066ecc2f8bb81fb7174b517fd8085700e259ad00db1b868381518110611614576116136127df565b5b602002602001015186848151811061162f5761162e6127df565b5b6020026020010151604051611645929190612d87565b60405180910390a28080600101915050611513565b503373ffffffffffffffffffffffffffffffffffffffff166003547fdc26653af5b99b2da33e2ad69ee6600d9aeccc82b034501db4338309615ca238898985600301546040516116ac93929190612db7565b60405180910390a360035491505095945050505050565b60007f01ffc9a7000000000000000000000000000000000000000000000000000000007bffffffffffffffffffffffffffffffffffffffffffffffffffffffff1916827bffffffffffffffffffffffffffffffffffffffffffffffffffffffff1916149050919050565b61173561190a565b73ffffffffffffffffffffffffffffffffffffffff16611753611187565b73ffffffffffffffffffffffffffffffffffffffff16146117b25761177661190a565b6040517f118cdaa70000000000000000000000000000000000000000000000000000000081526004016117a99190612246565b60405180910390fd5b565b6002600054036117f0576040517f3ee5aeb500000000000000000000000000000000000000000000000000000000815260040160405180910390fd5b6002600081905550565b6001600081905550565b6118158161181061190a565b611acb565b50565b600061182483836111b1565b6118ff5760016002600085815260200190815260200160002060000160008473ffffffffffffffffffffffffffffffffffffffff1673ffffffffffffffffffffffffffffffffffffffff16815260200190815260200160002060006101000a81548160ff02191690831515021790555061189c61190a565b73ffffffffffffffffffffffffffffffffffffffff168273ffffffffffffffffffffffffffffffffffffffff16847f2f8788117e7eff1d82e926ec794901d17c78024a50270940304540a733656f0d60405160405180910390a460019050611904565b600090505b92915050565b600033905090565b600061191e83836111b1565b156119fa5760006002600085815260200190815260200160002060000160008473ffffffffffffffffffffffffffffffffffffffff1673ffffffffffffffffffffffffffffffffffffffff16815260200190815260200160002060006101000a81548160ff02191690831515021790555061199761190a565b73ffffffffffffffffffffffffffffffffffffffff168273ffffffffffffffffffffffffffffffffffffffff16847ff6391f5c32d9c69d2a47ea670b442974b53935d1edc7fd64eb21e047a839171b60405160405180910390a4600190506119ff565b600090505b92915050565b6000600160009054906101000a900473ffffffffffffffffffffffffffffffffffffffff16905081600160006101000a81548173ffffffffffffffffffffffffffffffffffffffff021916908373ffffffffffffffffffffffffffffffffffffffff1602179055508173ffffffffffffffffffffffffffffffffffffffff168173ffffffffffffffffffffffffffffffffffffffff167f8be0079c531659141344cd1fd0a4f28419497f9722a3daafe3b4186f6b6457e060405160405180910390a35050565b611ad582826111b1565b611b185780826040517fe2517d3f000000000000000000000000000000000000000000000000000000008152600401611b0f929190612df5565b60405180910390fd5b5050565b6000604051905090565b600080fd5b600080fd5b60007fffffffff0000000000000000000000000000000000000000000000000000000082169050919050565b611b6581611b30565b8114611b7057600080fd5b50565b600081359050611b8281611b5c565b92915050565b600060208284031215611b9e57611b9d611b26565b5b6000611bac84828501611b73565b91505092915050565b60008115159050919050565b611bca81611bb5565b82525050565b6000602082019050611be56000830184611bc1565b92915050565b6000819050919050565b611bfe81611beb565b8114611c0957600080fd5b50565b600081359050611c1b81611bf5565b92915050565b60038110611c2e57600080fd5b50565b600081359050611c4081611c21565b92915050565b60008060408385031215611c5d57611c5c611b26565b5b6000611c6b85828601611c0c565b9250506020611c7c85828601611c31565b9150509250929050565b600060208284031215611c9c57611c9b611b26565b5b6000611caa84828501611c0c565b91505092915050565b600081519050919050565b600082825260208201905092915050565b60005b83811015611ced578082015181840152602081019050611cd2565b60008484015250505050565b6000601f19601f8301169050919050565b6000611d1582611cb3565b611d1f8185611cbe565b9350611d2f818560208601611ccf565b611d3881611cf9565b840191505092915050565b600073ffffffffffffffffffffffffffffffffffffffff82169050919050565b6000611d6e82611d43565b9050919050565b611d7e81611d63565b82525050565b611d8d81611beb565b82525050565b7f4e487b7100000000000000000000000000000000000000000000000000000000600052602160045260246000fd5b60038110611dd357611dd2611d93565b5b50565b6000819050611de482611dc2565b919050565b6000611df482611dd6565b9050919050565b611e0481611de9565b82525050565b6000610100820190508181036000830152611e25818b611d0a565b9050611e34602083018a611d75565b611e416040830189611d84565b611e4e6060830188611d84565b611e5b6080830187611d84565b611e6860a0830186611dfb565b611e7560c0830185611bc1565b611e8260e0830184611d84565b9998505050505050505050565b611e9881611d63565b8114611ea357600080fd5b50565b600081359050611eb581611e8f565b92915050565b611ec481611bb5565b8114611ecf57600080fd5b50565b600081359050611ee181611ebb565b92915050565b60008060408385031215611efe57611efd611b26565b5b6000611f0c85828601611ea6565b9250506020611f1d85828601611ed2565b9150509250929050565b6000819050919050565b611f3a81611f27565b8114611f4557600080fd5b50565b600081359050611f5781611f31565b92915050565b600060208284031215611f7357611f72611b26565b5b6000611f8184828501611f48565b91505092915050565b611f9381611f27565b82525050565b6000602082019050611fae6000830184611f8a565b92915050565b60008060408385031215611fcb57611fca611b26565b5b6000611fd985828601611f48565b9250506020611fea85828601611ea6565b9150509250929050565b600081519050919050565b600082825260208201905092915050565b6000819050602082019050919050565b600082825260208201905092915050565b600061203c82611cb3565b6120468185612020565b9350612056818560208601611ccf565b61205f81611cf9565b840191505092915050565b61207381611beb565b82525050565b61208281611bb5565b82525050565b600060608301600083015184820360008601526120a58282612031565b91505060208301516120ba602086018261206a565b5060408301516120cd6040860182612079565b508091505092915050565b60006120e48383612088565b905092915050565b6000602082019050919050565b600061210482611ff4565b61210e8185611fff565b93508360208202850161212085612010565b8060005b8581101561215c578484038952815161213d85826120d8565b9450612148836120ec565b925060208a01995050600181019050612124565b50829750879550505050505092915050565b6000602082019050818103600083015261218881846120f9565b905092915050565b600080604083850312156121a7576121a6611b26565b5b60006121b585828601611c0c565b92505060206121c685828601611ea6565b9150509250929050565b60006020820190506121e56000830184611d84565b92915050565b60006020820190506122006000830184611dfb565b92915050565b6000806040838503121561221d5761221c611b26565b5b600061222b85828601611ea6565b925050602061223c85828601611c0c565b9150509250929050565b600060208201905061225b6000830184611d75565b92915050565b60006020828403121561227757612276611b26565b5b600061228584828501611ea6565b91505092915050565b600080fd5b600080fd5b7f4e487b7100000000000000000000000000000000000000000000000000000000600052604160045260246000fd5b6122d082611cf9565b810181811067ffffffffffffffff821117156122ef576122ee612298565b5b80604052505050565b6000612302611b1c565b905061230e82826122c7565b919050565b600067ffffffffffffffff82111561232e5761232d612298565b5b61233782611cf9565b9050602081019050919050565b82818337600083830152505050565b600061236661236184612313565b6122f8565b90508281526020810184848401111561238257612381612293565b5b61238d848285612344565b509392505050565b600082601f8301126123aa576123a961228e565b5b81356123ba848260208601612353565b91505092915050565b600067ffffffffffffffff8211156123de576123dd612298565b5b602082029050602081019050919050565b600080fd5b6000612407612402846123c3565b6122f8565b9050808382526020820190506020840283018581111561242a576124296123ef565b5b835b8181101561247157803567ffffffffffffffff81111561244f5761244e61228e565b5b80860161245c8982612395565b8552602085019450505060208101905061242c565b5050509392505050565b600082601f8301126124905761248f61228e565b5b81356124a08482602086016123f4565b91505092915050565b600067ffffffffffffffff8211156124c4576124c3612298565b5b602082029050602081019050919050565b60006124e86124e3846124a9565b6122f8565b9050808382526020820190506020840283018581111561250b5761250a6123ef565b5b835b8181101561253457806125208882611c0c565b84526020840193505060208101905061250d565b5050509392505050565b600082601f8301126125535761255261228e565b5b81356125638482602086016124d5565b91505092915050565b600080600080600060a0868803121561258857612587611b26565b5b600086013567ffffffffffffffff8111156125a6576125a5611b2b565b5b6125b288828901612395565b95505060206125c388828901611c0c565b94505060406125d488828901611c0c565b935050606086013567ffffffffffffffff8111156125f5576125f4611b2b565b5b6126018882890161247b565b925050608086013567ffffffffffffffff81111561262257612621611b2b565b5b61262e8882890161253e565b9150509295509295909350565b7f4e487b7100000000000000000000000000000000000000000000000000000000600052602260045260246000fd5b6000600282049050600182168061268257607f821691505b6020821081036126955761269461263b565b5b50919050565b7f4f6e6c792063726561746f722063616e20776974686472617700000000000000600082015250565b60006126d1601983611cbe565b91506126dc8261269b565b602082019050919050565b60006020820190508181036000830152612700816126c4565b9050919050565b7f43616d706169676e206e6f7420617070726f7665640000000000000000000000600082015250565b600061273d601583611cbe565b915061274882612707565b602082019050919050565b6000602082019050818103600083015261276c81612730565b9050919050565b7f5769746864726177616c73207061757365640000000000000000000000000000600082015250565b60006127a9601283611cbe565b91506127b482612773565b602082019050919050565b600060208201905081810360008301526127d88161279c565b9050919050565b7f4e487b7100000000000000000000000000000000000000000000000000000000600052603260045260246000fd5b7f4e487b7100000000000000000000000000000000000000000000000000000000600052601160045260246000fd5b600061284882611beb565b915061285383611beb565b925082820190508082111561286b5761286a61280e565b5b92915050565b7f4e6f7468696e6720746f20776974686472617700000000000000000000000000600082015250565b60006128a7601383611cbe565b91506128b282612871565b602082019050919050565b600060208201905081810360008301526128d68161289a565b9050919050565b60006128e882611beb565b91506128f383611beb565b925082820390508181111561290b5761290a61280e565b5b92915050565b7f4e6f7420617574686f72697a656420746f20766f746500000000000000000000600082015250565b6000612947601683611cbe565b915061295282612911565b602082019050919050565b600060208201905081810360008301526129768161293a565b9050919050565b7f416c726561647920766f74656400000000000000000000000000000000000000600082015250565b60006129b3600d83611cbe565b91506129be8261297d565b602082019050919050565b600060208201905081810360008301526129e2816129a6565b9050919050565b7f4e6f742076657269666965642063726561746f72000000000000000000000000600082015250565b6000612a1f601483611cbe565b9150612a2a826129e9565b602082019050919050565b60006020820190508181036000830152612a4e81612a12565b9050919050565b7f4d696c6573746f6e6520617272617973206d69736d6174636800000000000000600082015250565b6000612a8b601983611cbe565b9150612a9682612a55565b602082019050919050565b60006020820190508181036000830152612aba81612a7e565b9050919050565b6000612acc82611beb565b91507fffffffffffffffffffffffffffffffffffffffffffffffffffffffffffffffff8203612afe57612afd61280e565b5b600182019050919050565b60008190508160005260206000209050919050565b60006020601f8301049050919050565b600082821b905092915050565b600060088302612b6b7fffffffffffffffffffffffffffffffffffffffffffffffffffffffffffffffff82612b2e565b612b758683612b2e565b95508019841693508086168417925050509392505050565b6000819050919050565b6000612bb2612bad612ba884611beb565b612b8d565b611beb565b9050919050565b6000819050919050565b612bcc83612b97565b612be0612bd882612bb9565b848454612b3b565b825550505050565b600090565b612bf5612be8565b612c00818484612bc3565b505050565b5b81811015612c2457612c19600082612bed565b600181019050612c06565b5050565b601f821115612c6957612c3a81612b09565b612c4384612b1e565b81016020851015612c52578190505b612c66612c5e85612b1e565b830182612c05565b50505b505050565b600082821c905092915050565b6000612c8c60001984600802612c6e565b1980831691505092915050565b6000612ca58383612c7b565b9150826002028217905092915050565b612cbe82611cb3565b67ffffffffffffffff811115612cd757612cd6612298565b5b612ce1825461266a565b612cec828285612c28565b600060209050601f831160018114612d1f5760008415612d0d578287015190505b612d178582612c99565b865550612d7f565b601f198416612d2d86612b09565b60005b82811015612d5557848901518255600182019150602085019450602081019050612d30565b86831015612d725784890151612d6e601f891682612c7b565b8355505b6001600288020188555050505b505050505050565b60006040820190508181036000830152612da18185611d0a565b9050612db06020830184611d84565b9392505050565b60006060820190508181036000830152612dd18186611d0a565b9050612de06020830185611d84565b612ded6040830184611d84565b949350505050565b6000604082019050612e0a6000830185611d75565b612e176020830184611f8a565b939250505056fea26469706673582212206356cad5ad4efbad2d96b299137aae2c1867d6445f16bf8db88700ec3ff744b964736f6c634300081c0033",
  "linkReferences": {},
  "deployedLinkReferences": {}
}