{
  "_format": "hh-sol-artifact-1",
  "contractName": "FundingPool",
  "sourceName": "contracts/FundingPool.sol",
  "abi": [
    {
      "inputs": [
        {
          "internalType": "address",
          "name": "_daoTreasury",
          "type": "address"
        }
      ],
      "stateMutability": "nonpayable",
      "type": "constructor"
    },
    {
      "inputs": [],
      "name": "AccessControlBadConfirmation",
      "type": "error"
    },
    {
      "inputs": [
        {
          "internalType": "address",
          "name": "account",
          "type": "address"
        },
        {
          "internalType": "bytes32",
          "name": "neededRole",
          "type": "bytes32"
        }
      ],
      "name": "AccessControlUnauthorizedAccount",
      "type": "error"
    },
    {
      "inputs": [
        {
          "internalType": "address",
          "name": "owner",
          "type": "address"
        }
      ],
      "name": "OwnableInvalidOwner",
      "type": "error"
    },
    {
      "inputs": [
        {
          "internalType": "address",
          "name": "account",
          "type": "address"
        }
      ],
      "name": "OwnableUnauthorizedAccount",
      "type": "error"
    },
    {
      "inputs": [],
      "name": "ReentrancyGuardReentrantCall",
      "type": "error"
    },
    {
      "anonymous": false,
      "inputs": [
        {
          "indexed": true,
          "internalType": "uint256",
          "name": "campaignId",
          "type": "uint256"
        },
        {
          "indexed": true,
          "internalType": "address",
          "name": "creator",
          "type": "address"
        },
        {
          "indexed": false,
          "internalType": "uint256",
          "name": "fundingGoal",
          "type": "uint256"
        },
        {
          "indexed": false,
          "internalType": "uint256",
          "name": "deadline",
          "type": "uint256"
        }
      ],
      "name": "CampaignCreated",
      "type": "event"
    },
    {
      "anonymous": false,
      "inputs": [
        {
          "indexed": true,
          "internalType": "uint256",
          "name": "campaignId",
          "type": "uint256"
        },
        {
          "indexed": false,
          "internalType": "enum FundingPool.Status",
          "name": "status",
          "type": "uint8"
        }
      ],
      "name": "CampaignStatusUpdated",
      "type": "event"
    },
    {
      "anonymous": false,
      "inputs": [
        {
          "indexed": true,
          "internalType": "uint256",
          "name": "campaignId",
          "type": "uint256"
        },
        {
          "indexed": true,
          "internalType": "address",
          "name": "creator",
          "type": "address"
        },
        {
          "indexed": false,
          "internalType": "uint256",
          "name": "amount",
          "type": "uint256"
        }
      ],
      "name": "FundsWithdrawn",
      "type": "event"
    },
    {
      "anonymous": false,
      "inputs": [
        {
          "indexed": true,
          "internalType": "uint256",
          "name": "campaignId",
          "type": "uint256"
        },
        {
          "indexed": false,
          "internalType": "string",
          "name": "description",
          "type": "string"
        },
        {
          "indexed": false,
          "internalType": "uint256",
          "name": "amount",
          "type": "uint256"
        }
      ],
      "name": "MilestoneAdded",
      "type": "event"
    },
    {
      "anonymous": false,
      "inputs": [
        {
          "indexed": true,
          "internalType": "address",
          "name": "previousOwner",
          "type": "address"
        },
        {
          "indexed": true,
          "internalType": "address",
          "name": "newOwner",
          "type": "address"
        }
      ],
      "name": "OwnershipTransferred",
      "type": "event"
    },
    {
      "anonymous": false,
      "inputs": [
        {
          "indexed": true,
          "internalType": "bytes32",
          "name": "role",
          "type": "bytes32"
        },
        {
          "indexed": true,
          "internalType": "bytes32",
          "name": "previousAdminRole",
          "type": "bytes32"
        },
        {
          "indexed": true,
          "internalType": "bytes32",
          "name": "newAdminRole",
          "type": "bytes32"
        }
      ],
      "name": "RoleAdminChanged",
      "type": "event"
    },
    {
      "anonymous": false,
      "inputs": [
        {
          "indexed": true,
          "internalType": "bytes32",
          "name": "role",
          "type": "bytes32"
        },
        {
          "indexed": true,
          "internalType": "address",
          "name": "account",
          "type": "address"
        },
        {
          "indexed": true,
          "internalType": "address",
          "name": "sender",
          "type": "address"
        }
      ],
      "name": "RoleGranted",
      "type": "event"
    },
    {
      "anonymous": false,
      "inputs": [
        {
          "indexed": true,
          "internalType": "bytes32",
          "name": "role",
          "type": "bytes32"
        },
        {
          "indexed": true,
          "internalType": "address",
          "name": "account",
          "type": "address"
        },
        {
          "indexed": true,
          "internalType": "address",
          "name": "sender",
          "type": "address"
        }
      ],
      "name": "RoleRevoked",
      "type": "event"
    },
    {
      "anonymous": false,
      "inputs": [
        {
          "indexed": true,
          "internalType": "uint256",
          "name": "campaignId",
          "type": "uint256"
        },
        {
          "indexed": true,
          "internalType": "address",
          "name": "voter",
          "type": "address"
        }
      ],
      "name": "VoteCast",
      "type": "event"
    },
    {
      "inputs": [],
      "name": "DEFAULT_ADMIN_ROLE",
      "outputs": [
        {
          "internalType": "bytes32",
          "name": "",
          "type": "bytes32"
        }
      ],
      "stateMutability": "view",
      "type": "function"
    },
    {
      "inputs": [],
      "name": "VOTER_ROLE",
      "outputs": [
        {
          "internalType": "bytes32",
          "name": "",
          "type": "bytes32"
        }
      ],
      "stateMutability": "view",
      "type": "function"
    },
    {
      "inputs": [
        {
          "internalType": "address",
          "name": "voter",
          "type": "address"
        }
      ],
      "name": "addVoter",
      "outputs": [],
      "stateMutability": "nonpayable",
      "type": "function"
    },
    {
      "inputs": [],
      "name": "campaignIds",
      "outputs": [
        {
          "internalType": "uint256",
          "name": "",
          "type": "uint256"
        }
      ],
      "stateMutability": "view",
      "type": "function"
    },
    {
      "inputs": [
        {
          "internalType": "uint256",
          "name": "",
          "type": "uint256"
        }
      ],
      "name": "campaignVotes",
      "outputs": [
        {
          "internalType": "uint256",
          "name": "",
          "type": "uint256"
        }
      ],
      "stateMutability": "view",
      "type": "function"
    },
    {
      "inputs": [
        {
          "internalType": "uint256",
          "name": "",
          "type": "uint256"
        }
      ],
      "name": "campaigns",
      "outputs": [
        {
          "internalType": "address",
          "name": "creator",
          "type": "address"
        },
        {
          "internalType": "uint256",
          "name": "fundingGoal",
          "type": "uint256"
        },
        {
          "internalType": "uint256",
          "name": "deadline",
          "type": "uint256"
        },
        {
          "internalType": "uint256",
          "name": "amountRaised",
          "type": "uint256"
        },
        {
          "internalType": "enum FundingPool.Status",
          "name": "status",
          "type": "uint8"
        },
        {
          "internalType": "bool",
          "name": "withdrawalsPaused",
          "type": "bool"
        },
        {
          "internalType": "uint256",
          "name": "withdrawnAmount",
          "type": "uint256"
        }
      ],
      "stateMutability": "view",
      "type": "function"
    },
    {
      "inputs": [
        {
          "internalType": "uint256",
          "name": "_fundingGoal",
          "type": "uint256"
        },
        {
          "internalType": "uint256",
          "name": "_durationInSeconds",
          "type": "uint256"
        },
        {
          "internalType": "string[]",
          "name": "_milestoneDescriptions",
          "type": "string[]"
        },
        {
          "internalType": "uint256[]",
          "name": "_milestoneAmounts",
          "type": "uint256[]"
        }
      ],
      "name": "createCampaign",
      "outputs": [
        {
          "internalType": "uint256",
          "name": "",
          "type": "uint256"
        }
      ],
      "stateMutability": "nonpayable",
      "type": "function"
    },
    {
      "inputs": [],
      "name": "daoTreasury",
      "outputs": [
        {
          "internalType": "address",
          "name": "",
          "type": "address"
        }
      ],
      "stateMutability": "view",
      "type": "function"
    },
    {
      "inputs": [
        {
          "internalType": "uint256",
          "name": "_campaignId",
          "type": "uint256"
        }
      ],
      "name": "getCampaignStatus",
      "outputs": [
        {
          "internalType": "enum FundingPool.Status",
          "name": "",
          "type": "uint8"
        }
      ],
      "stateMutability": "view",
      "type": "function"
    },
    {
      "inputs": [],
      "name": "getDaoTreasury",
      "outputs": [
        {
          "internalType": "address",
          "name": "",
          "type": "address"
        }
      ],
      "stateMutability": "view",
      "type": "function"
    },
    {
      "inputs": [
        {
          "internalType": "uint256",
          "name": "_campaignId",
          "type": "uint256"
        }
      ],
      "name": "getMilestones",
      "outputs": [
        {
          "components": [
            {
              "internalType": "string",
              "name": "description",
              "type": "string"
            },
            {
              "internalType": "uint256",
              "name": "amount",
              "type": "uint256"
            },
            {
              "internalType": "bool",
              "name": "completed",
              "type": "bool"
            }
          ],
          "internalType": "struct FundingPool.Milestone[]",
          "name": "",
          "type": "tuple[]"
        }
      ],
      "stateMutability": "view",
      "type": "function"
    },
    {
      "inputs": [
        {
          "internalType": "bytes32",
          "name": "role",
          "type": "bytes32"
        }
      ],
      "name": "getRoleAdmin",
      "outputs": [
        {
          "internalType": "bytes32",
          "name": "",
          "type": "bytes32"
        }
      ],
      "stateMutability": "view",
      "type": "function"
    },
    {
      "inputs": [
        {
          "internalType": "bytes32",
          "name": "role",
          "type": "bytes32"
        },
        {
          "internalType": "address",
          "name": "account",
          "type": "address"
        }
      ],
      "name": "grantRole",
      "outputs": [],
      "stateMutability": "nonpayable",
      "type": "function"
    },
    {
      "inputs": [
        {
          "internalType": "bytes32",
          "name": "role",
          "type": "bytes32"
        },
        {
          "internalType": "address",
          "name": "account",
          "type": "address"
        }
      ],
      "name": "hasRole",
      "outputs": [
        {
          "internalType": "bool",
          "name": "",
          "type": "bool"
        }
      ],
      "stateMutability": "view",
      "type": "function"
    },
    {
      "inputs": [
        {
          "internalType": "uint256",
          "name": "",
          "type": "uint256"
        },
        {
          "internalType": "address",
          "name": "",
          "type": "address"
        }
      ],
      "name": "hasVoted",
      "outputs": [
        {
          "internalType": "bool",
          "name": "",
          "type": "bool"
        }
      ],
      "stateMutability": "view",
      "type": "function"
    },
    {
      "inputs": [],
      "name": "owner",
      "outputs": [
        {
          "internalType": "address",
          "name": "",
          "type": "address"
        }
      ],
      "stateMutability": "view",
      "type": "function"
    },
    {
      "inputs": [
        {
          "internalType": "address",
          "name": "voter",
          "type": "address"
        }
      ],
      "name": "removeVoter",
      "outputs": [],
      "stateMutability": "nonpayable",
      "type": "function"
    },
    {
      "inputs": [],
      "name": "renounceOwnership",
      "outputs": [],
      "stateMutability": "nonpayable",
      "type": "function"
    },
    {
      "inputs": [
        {
          "internalType": "bytes32",
          "name": "role",
          "type": "bytes32"
        },
        {
          "internalType": "address",
          "name": "callerConfirmation",
          "type": "address"
        }
      ],
      "name": "renounceRole",
      "outputs": [],
      "stateMutability": "nonpayable",
      "type": "function"
    },
    {
      "inputs": [
        {
          "internalType": "bytes32",
          "name": "role",
          "type": "bytes32"
        },
        {
          "internalType": "address",
          "name": "account",
          "type": "address"
        }
      ],
      "name": "revokeRole",
      "outputs": [],
      "stateMutability": "nonpayable",
      "type": "function"
    },
    {
      "inputs": [
        {
          "internalType": "address",
          "name": "_creator",
          "type": "address"
        },
        {
          "internalType": "bool",
          "name": "_isVerified",
          "type": "bool"
        }
      ],
      "name": "setVerifiedCreator",
      "outputs": [],
      "stateMutability": "nonpayable",
      "type": "function"
    },
    {
      "inputs": [
        {
          "internalType": "bytes4",
          "name": "interfaceId",
          "type": "bytes4"
        }
      ],
      "name": "supportsInterface",
      "outputs": [
        {
          "internalType": "bool",
          "name": "",
          "type": "bool"
        }
      ],
      "stateMutability": "view",
      "type": "function"
    },
    {
      "inputs": [
        {
          "internalType": "address",
          "name": "newOwner",
          "type": "address"
        }
      ],
      "name": "transferOwnership",
      "outputs": [],
      "stateMutability": "nonpayable",
      "type": "function"
    },
    {
      "inputs": [
        {
          "internalType": "uint256",
          "name": "_campaignId",
          "type": "uint256"
        },
        {
          "internalType": "enum FundingPool.Status",
          "name": "_status",
          "type": "uint8"
        }
      ],
      "name": "updateCampaignStatus",
      "outputs": [],
      "stateMutability": "nonpayable",
      "type": "function"
    },
    {
      "inputs": [
        {
          "internalType": "address",
          "name": "",
          "type": "address"
        },
        {
          "internalType": "uint256",
          "name": "",
          "type": "uint256"
        }
      ],
      "name": "userContributions",
      "outputs": [
        {
          "internalType": "uint256",
          "name": "",
          "type": "uint256"
        }
      ],
      "stateMutability": "view",
      "type": "function"
    },
    {
      "inputs": [
        {
          "internalType": "address",
          "name": "",
          "type": "address"
        }
      ],
      "name": "verifiedCreators",
      "outputs": [
        {
          "internalType": "bool",
          "name": "",
          "type": "bool"
        }
      ],
      "stateMutability": "view",
      "type": "function"
    },
    {
      "inputs": [
        {
          "internalType": "uint256",
          "name": "campaignId",
          "type": "uint256"
        }
      ],
      "name": "voteOnCampaign",
      "outputs": [],
      "stateMutability": "nonpayable",
      "type": "function"
    },
    {
      "inputs": [
        {
          "internalType": "uint256",
          "name": "_campaignId",
          "type": "uint256"
        }
      ],
      "name": "withdrawFunds",
      "outputs": [],
      "stateMutability": "nonpayable",
      "type": "function"
    },
    {
      "stateMutability": "payable",
      "type": "receive"
    }
  ],
  "bytecode": "0x6080604052600060035534801561001557600080fd5b5060405161325e38038061325e83398181016040528101906100379190610426565b336001600081905550600073ffffffffffffffffffffffffffffffffffffffff168173ffffffffffffffffffffffffffffffffffffffff16036100b25760006040517f1e4fbdf70000000000000000000000000000000000000000000000000000000081526004016100a99190610462565b60405180910390fd5b6100c18161018c60201b60201c565b50600073ffffffffffffffffffffffffffffffffffffffff168173ffffffffffffffffffffffffffffffffffffffff1603610131576040517f08c379a0000000000000000000000000000000000000000000000000000000008152600401610128906104da565b60405180910390fd5b80600760006101000a81548173ffffffffffffffffffffffffffffffffffffffff021916908373ffffffffffffffffffffffffffffffffffffffff1602179055506101856000801b3361025260201b60201c565b50506104fa565b6000600160009054906101000a900473ffffffffffffffffffffffffffffffffffffffff16905081600160006101000a81548173ffffffffffffffffffffffffffffffffffffffff021916908373ffffffffffffffffffffffffffffffffffffffff1602179055508173ffffffffffffffffffffffffffffffffffffffff168173ffffffffffffffffffffffffffffffffffffffff167f8be0079c531659141344cd1fd0a4f28419497f9722a3daafe3b4186f6b6457e060405160405180910390a35050565b6000610264838361035060201b60201c565b6103455760016002600085815260200190815260200160002060000160008473ffffffffffffffffffffffffffffffffffffffff1673ffffffffffffffffffffffffffffffffffffffff16815260200190815260200160002060006101000a81548160ff0219169083151502179055506102e26103bb60201b60201c565b73ffffffffffffffffffffffffffffffffffffffff168273ffffffffffffffffffffffffffffffffffffffff16847f2f8788117e7eff1d82e926ec794901d17c78024a50270940304540a733656f0d60405160405180910390a46001905061034a565b600090505b92915050565b60006002600084815260200190815260200160002060000160008373ffffffffffffffffffffffffffffffffffffffff1673ffffffffffffffffffffffffffffffffffffffff16815260200190815260200160002060009054906101000a900460ff16905092915050565b600033905090565b600080fd5b600073ffffffffffffffffffffffffffffffffffffffff82169050919050565b60006103f3826103c8565b9050919050565b610403816103e8565b811461040e57600080fd5b50565b600081519050610420816103fa565b92915050565b60006020828403121561043c5761043b6103c3565b5b600061044a84828501610411565b91505092915050565b61045c816103e8565b82525050565b60006020820190506104776000830184610453565b92915050565b600082825260208201905092915050565b7f44414f2054726561737572792063616e6e6f74206265207a65726f0000000000600082015250565b60006104c4601b8361047d565b91506104cf8261048e565b602082019050919050565b600060208201905081810360008301526104f3816104b7565b9050919050565b612d55806105096000396000f3fe6080604052600436106101bb5760003560e01c80636c19e004116100ec578063a217fddf1161008a578063d547741f11610064578063d547741f14610679578063d6db2d8c146106a2578063f2fde38b146106cd578063f4ab9adf146106f6576101c2565b8063a217fddf146105e6578063a94015c814610611578063add150bc1461063c576101c2565b806379022a9f116100c657806379022a9f1461052a57806386c1ff68146105555780638da5cb5b1461057e57806391d14854146105a9576101c2565b80636c19e00414610499578063715018a6146104d65780637331fa95146104ed576101c2565b80632f2ff15d1161015957806342fb8bd01161013357806342fb8bd0146103cb57806343859632146103f45780635a6f2869146104315780636c1739ce1461046e576101c2565b80632f2ff15d1461033c57806336568abe1461036557806342c549c01461038e576101c2565b8063141961bc11610195578063141961bc1461026a578063155dd5ee146102ad5780631d91dba9146102d6578063248a9ca3146102ff576101c2565b806301ffc9a7146101c75780630bcb45331461020457806310eb6d5014610241576101c2565b366101c257005b600080fd5b3480156101d357600080fd5b506101ee60048036038101906101e99190611ae4565b61071f565b6040516101fb9190611b2c565b60405180910390f35b34801561021057600080fd5b5061022b60048036038101906102269190611e6c565b610799565b6040516102389190611f1a565b60405180910390f35b34801561024d57600080fd5b5061026860048036038101906102639190611f5a565b610ad9565b005b34801561027657600080fd5b50610291600480360381019061028c9190611f9a565b610b5b565b6040516102a4979695949392919061207f565b60405180910390f35b3480156102b957600080fd5b506102d460048036038101906102cf9190611f9a565b610bd7565b005b3480156102e257600080fd5b506102fd60048036038101906102f89190612146565b610efc565b005b34801561030b57600080fd5b50610326600480360381019061032191906121bc565b610f5f565b60405161033391906121f8565b60405180910390f35b34801561034857600080fd5b50610363600480360381019061035e9190612213565b610f7f565b005b34801561037157600080fd5b5061038c60048036038101906103879190612213565b610fa1565b005b34801561039a57600080fd5b506103b560048036038101906103b09190611f9a565b61101c565b6040516103c29190612402565b60405180910390f35b3480156103d757600080fd5b506103f260048036038101906103ed9190611f9a565b611148565b005b34801561040057600080fd5b5061041b60048036038101906104169190612424565b61132a565b6040516104289190611b2c565b60405180910390f35b34801561043d57600080fd5b5061045860048036038101906104539190611f9a565b611359565b6040516104659190611f1a565b60405180910390f35b34801561047a57600080fd5b50610483611371565b6040516104909190611f1a565b60405180910390f35b3480156104a557600080fd5b506104c060048036038101906104bb9190611f9a565b611377565b6040516104cd9190612464565b60405180910390f35b3480156104e257600080fd5b506104eb6113a4565b005b3480156104f957600080fd5b50610514600480360381019061050f919061247f565b6113b8565b6040516105219190611f1a565b60405180910390f35b34801561053657600080fd5b5061053f6113dd565b60405161054c91906124bf565b60405180910390f35b34801561056157600080fd5b5061057c600480360381019061057791906124da565b611403565b005b34801561058a57600080fd5b50610593611438565b6040516105a091906124bf565b60405180910390f35b3480156105b557600080fd5b506105d060048036038101906105cb9190612213565b611462565b6040516105dd9190611b2c565b60405180910390f35b3480156105f257600080fd5b506105fb6114cd565b60405161060891906121f8565b60405180910390f35b34801561061d57600080fd5b506106266114d4565b60405161063391906121f8565b60405180910390f35b34801561064857600080fd5b50610663600480360381019061065e91906124da565b6114f8565b6040516106709190611b2c565b60405180910390f35b34801561068557600080fd5b506106a0600480360381019061069b9190612213565b611518565b005b3480156106ae57600080fd5b506106b761153a565b6040516106c491906124bf565b60405180910390f35b3480156106d957600080fd5b506106f460048036038101906106ef91906124da565b611564565b005b34801561070257600080fd5b5061071d600480360381019061071891906124da565b6115ea565b005b60007f7965db0b000000000000000000000000000000000000000000000000000000007bffffffffffffffffffffffffffffffffffffffffffffffffffffffff1916827bffffffffffffffffffffffffffffffffffffffffffffffffffffffff1916148061079257506107918261161f565b5b9050919050565b6000600660003373ffffffffffffffffffffffffffffffffffffffff1673ffffffffffffffffffffffffffffffffffffffff16815260200190815260200160002060009054906101000a900460ff16610827576040517f08c379a000000000000000000000000000000000000000000000000000000000815260040161081e90612564565b60405180910390fd5b815183511461086b576040517f08c379a0000000000000000000000000000000000000000000000000000000008152600401610862906125d0565b60405180910390fd5b6003600081548092919061087e9061261f565b919050555060006004600060035481526020019081526020016000209050338160000160006101000a81548173ffffffffffffffffffffffffffffffffffffffff021916908373ffffffffffffffffffffffffffffffffffffffff16021790555085816001018190555084426108f49190612667565b816002018190555060008160040160006101000a81548160ff0219169083600281111561092457610923612008565b5b021790555060005b8451811015610a73578160050160405180606001604052808784815181106109575761095661269b565b5b602002602001015181526020018684815181106109775761097661269b565b5b6020026020010151815260200160001515815250908060018154018082558091505060019003906000526020600020906003020160009091909190915060008201518160000190816109c991906128d6565b506020820151816001015560408201518160020160006101000a81548160ff02191690831515021790555050506003547fbf293db00f4de65b181a066ecc2f8bb81fb7174b517fd8085700e259ad00db1b868381518110610a2d57610a2c61269b565b5b6020026020010151868481518110610a4857610a4761269b565b5b6020026020010151604051610a5e9291906129e1565b60405180910390a2808060010191505061092c565b503373ffffffffffffffffffffffffffffffffffffffff166003547f91b289a829e71d811b8c69e4a24ba2d40d115d8a236e9a724cb3bb2d43cf7223888460020154604051610ac3929190612a11565b60405180910390a3600354915050949350505050565b610ae1611689565b806004600084815260200190815260200160002060040160006101000a81548160ff02191690836002811115610b1a57610b19612008565b5b0217905550817f1289cf89aaaed53d6590c1b7996ba434edb31dcbd322d0b88ff0c02f64bbdeef82604051610b4f9190612464565b60405180910390a25050565b60046020528060005260406000206000915090508060000160009054906101000a900473ffffffffffffffffffffffffffffffffffffffff16908060010154908060020154908060030154908060040160009054906101000a900460ff16908060040160019054906101000a900460ff16908060060154905087565b610bdf611710565b60006004600083815260200190815260200160002090503373ffffffffffffffffffffffffffffffffffffffff168160000160009054906101000a900473ffffffffffffffffffffffffffffffffffffffff1673ffffffffffffffffffffffffffffffffffffffff1614610c88576040517f08c379a0000000000000000000000000000000000000000000000000000000008152600401610c7f90612a86565b60405180910390fd5b60016002811115610c9c57610c9b612008565b5b8160040160009054906101000a900460ff166002811115610cc057610cbf612008565b5b14610d00576040517f08c379a0000000000000000000000000000000000000000000000000000000008152600401610cf790612af2565b60405180910390fd5b8060040160019054906101000a900460ff1615610d52576040517f08c379a0000000000000000000000000000000000000000000000000000000008152600401610d4990612b5e565b60405180910390fd5b6000805b8260050180549050811015610de257826005018181548110610d7b57610d7a61269b565b5b906000526020600020906003020160020160009054906101000a900460ff1615610dd557826005018181548110610db557610db461269b565b5b90600052602060002090600302016001015482610dd29190612667565b91505b8080600101915050610d56565b5081600601548111610e29576040517f08c379a0000000000000000000000000000000000000000000000000000000008152600401610e2090612bca565b60405180910390fd5b6000826006015482610e3b9190612bea565b905080836006016000828254610e519190612667565b925050819055503373ffffffffffffffffffffffffffffffffffffffff166108fc829081150290604051600060405180830381858888f19350505050158015610e9e573d6000803e3d6000fd5b503373ffffffffffffffffffffffffffffffffffffffff16847ff440aec6b52895984d061d622e6edeba6210f7c3e059be920663140c084560d783604051610ee69190611f1a565b60405180910390a3505050610ef9611756565b50565b610f04611689565b80600660008473ffffffffffffffffffffffffffffffffffffffff1673ffffffffffffffffffffffffffffffffffffffff16815260200190815260200160002060006101000a81548160ff0219169083151502179055505050565b600060026000838152602001908152602001600020600101549050919050565b610f8882610f5f565b610f9181611760565b610f9b8383611774565b50505050565b610fa9611866565b73ffffffffffffffffffffffffffffffffffffffff168173ffffffffffffffffffffffffffffffffffffffff161461100d576040517f6697b23200000000000000000000000000000000000000000000000000000000815260040160405180910390fd5b611017828261186e565b505050565b606060046000838152602001908152602001600020600501805480602002602001604051908101604052809291908181526020016000905b8282101561113d5783829060005260206000209060030201604051806060016040529081600082018054611087906126f9565b80601f01602080910402602001604051908101604052809291908181526020018280546110b3906126f9565b80156111005780601f106110d557610100808354040283529160200191611100565b820191906000526020600020905b8154815290600101906020018083116110e357829003601f168201915b50505050508152602001600182015481526020016002820160009054906101000a900460ff16151515158152505081526020019060010190611054565b505050509050919050565b6111727f72c3eec1760bf69946625c2d4fb8e44e2c806345041960b434674fb9ab3976cf33611462565b6111b1576040517f08c379a00000000000000000000000000000000000000000000000000000000081526004016111a890612c6a565b60405180910390fd5b6009600082815260200190815260200160002060003373ffffffffffffffffffffffffffffffffffffffff1673ffffffffffffffffffffffffffffffffffffffff16815260200190815260200160002060009054906101000a900460ff161561124f576040517f08c379a000000000000000000000000000000000000000000000000000000000815260040161124690612cd6565b60405180910390fd5b60016008600083815260200190815260200160002060008282546112739190612667565b9250508190555060016009600083815260200190815260200160002060003373ffffffffffffffffffffffffffffffffffffffff1673ffffffffffffffffffffffffffffffffffffffff16815260200190815260200160002060006101000a81548160ff0219169083151502179055503373ffffffffffffffffffffffffffffffffffffffff16817ff1003b73c437642c0460aee9cd9628b0b8c447b66e6c7c905531b9c644214a1160405160405180910390a350565b60096020528160005260406000206020528060005260406000206000915091509054906101000a900460ff1681565b60086020528060005260406000206000915090505481565b60035481565b60006004600083815260200190815260200160002060040160009054906101000a900460ff169050919050565b6113ac611689565b6113b66000611961565b565b6005602052816000526040600020602052806000526040600020600091509150505481565b600760009054906101000a900473ffffffffffffffffffffffffffffffffffffffff1681565b61140b611689565b6114357f72c3eec1760bf69946625c2d4fb8e44e2c806345041960b434674fb9ab3976cf82611518565b50565b6000600160009054906101000a900473ffffffffffffffffffffffffffffffffffffffff16905090565b60006002600084815260200190815260200160002060000160008373ffffffffffffffffffffffffffffffffffffffff1673ffffffffffffffffffffffffffffffffffffffff16815260200190815260200160002060009054906101000a900460ff16905092915050565b6000801b81565b7f72c3eec1760bf69946625c2d4fb8e44e2c806345041960b434674fb9ab3976cf81565b60066020528060005260406000206000915054906101000a900460ff1681565b61152182610f5f565b61152a81611760565b611534838361186e565b50505050565b6000600760009054906101000a900473ffffffffffffffffffffffffffffffffffffffff16905090565b61156c611689565b600073ffffffffffffffffffffffffffffffffffffffff168173ffffffffffffffffffffffffffffffffffffffff16036115de5760006040517f1e4fbdf70000000000000000000000000000000000000000000000000000000081526004016115d591906124bf565b60405180910390fd5b6115e781611961565b50565b6115f2611689565b61161c7f72c3eec1760bf69946625c2d4fb8e44e2c806345041960b434674fb9ab3976cf82610f7f565b50565b60007f01ffc9a7000000000000000000000000000000000000000000000000000000007bffffffffffffffffffffffffffffffffffffffffffffffffffffffff1916827bffffffffffffffffffffffffffffffffffffffffffffffffffffffff1916149050919050565b611691611866565b73ffffffffffffffffffffffffffffffffffffffff166116af611438565b73ffffffffffffffffffffffffffffffffffffffff161461170e576116d2611866565b6040517f118cdaa700000000000000000000000000000000000000000000000000000000815260040161170591906124bf565b60405180910390fd5b565b60026000540361174c576040517f3ee5aeb500000000000000000000000000000000000000000000000000000000815260040160405180910390fd5b6002600081905550565b6001600081905550565b6117718161176c611866565b611a27565b50565b60006117808383611462565b61185b5760016002600085815260200190815260200160002060000160008473ffffffffffffffffffffffffffffffffffffffff1673ffffffffffffffffffffffffffffffffffffffff16815260200190815260200160002060006101000a81548160ff0219169083151502179055506117f8611866565b73ffffffffffffffffffffffffffffffffffffffff168273ffffffffffffffffffffffffffffffffffffffff16847f2f8788117e7eff1d82e926ec794901d17c78024a50270940304540a733656f0d60405160405180910390a460019050611860565b600090505b92915050565b600033905090565b600061187a8383611462565b156119565760006002600085815260200190815260200160002060000160008473ffffffffffffffffffffffffffffffffffffffff1673ffffffffffffffffffffffffffffffffffffffff16815260200190815260200160002060006101000a81548160ff0219169083151502179055506118f3611866565b73ffffffffffffffffffffffffffffffffffffffff168273ffffffffffffffffffffffffffffffffffffffff16847ff6391f5c32d9c69d2a47ea670b442974b53935d1edc7fd64eb21e047a839171b60405160405180910390a46001905061195b565b600090505b92915050565b6000600160009054906101000a900473ffffffffffffffffffffffffffffffffffffffff16905081600160006101000a81548173ffffffffffffffffffffffffffffffffffffffff021916908373ffffffffffffffffffffffffffffffffffffffff1602179055508173ffffffffffffffffffffffffffffffffffffffff168173ffffffffffffffffffffffffffffffffffffffff167f8be0079c531659141344cd1fd0a4f28419497f9722a3daafe3b4186f6b6457e060405160405180910390a35050565b611a318282611462565b611a745780826040517fe2517d3f000000000000000000000000000000000000000000000000000000008152600401611a6b929190612cf6565b60405180910390fd5b5050565b6000604051905090565b600080fd5b600080fd5b60007fffffffff0000000000000000000000000000000000000000000000000000000082169050919050565b611ac181611a8c565b8114611acc57600080fd5b50565b600081359050611ade81611ab8565b92915050565b600060208284031215611afa57611af9611a82565b5b6000611b0884828501611acf565b91505092915050565b60008115159050919050565b611b2681611b11565b82525050565b6000602082019050611b416000830184611b1d565b92915050565b6000819050919050565b611b5a81611b47565b8114611b6557600080fd5b50565b600081359050611b7781611b51565b92915050565b600080fd5b6000601f19601f8301169050919050565b7f4e487b7100000000000000000000000000000000000000000000000000000000600052604160045260246000fd5b611bcb82611b82565b810181811067ffffffffffffffff82111715611bea57611be9611b93565b5b80604052505050565b6000611bfd611a78565b9050611c098282611bc2565b919050565b600067ffffffffffffffff821115611c2957611c28611b93565b5b602082029050602081019050919050565b600080fd5b600080fd5b600067ffffffffffffffff821115611c5f57611c5e611b93565b5b611c6882611b82565b9050602081019050919050565b82818337600083830152505050565b6000611c97611c9284611c44565b611bf3565b905082815260208101848484011115611cb357611cb2611c3f565b5b611cbe848285611c75565b509392505050565b600082601f830112611cdb57611cda611b7d565b5b8135611ceb848260208601611c84565b91505092915050565b6000611d07611d0284611c0e565b611bf3565b90508083825260208201905060208402830185811115611d2a57611d29611c3a565b5b835b81811015611d7157803567ffffffffffffffff811115611d4f57611d4e611b7d565b5b808601611d5c8982611cc6565b85526020850194505050602081019050611d2c565b5050509392505050565b600082601f830112611d9057611d8f611b7d565b5b8135611da0848260208601611cf4565b91505092915050565b600067ffffffffffffffff821115611dc457611dc3611b93565b5b602082029050602081019050919050565b6000611de8611de384611da9565b611bf3565b90508083825260208201905060208402830185811115611e0b57611e0a611c3a565b5b835b81811015611e345780611e208882611b68565b845260208401935050602081019050611e0d565b5050509392505050565b600082601f830112611e5357611e52611b7d565b5b8135611e63848260208601611dd5565b91505092915050565b60008060008060808587031215611e8657611e85611a82565b5b6000611e9487828801611b68565b9450506020611ea587828801611b68565b935050604085013567ffffffffffffffff811115611ec657611ec5611a87565b5b611ed287828801611d7b565b925050606085013567ffffffffffffffff811115611ef357611ef2611a87565b5b611eff87828801611e3e565b91505092959194509250565b611f1481611b47565b82525050565b6000602082019050611f2f6000830184611f0b565b92915050565b60038110611f4257600080fd5b50565b600081359050611f5481611f35565b92915050565b60008060408385031215611f7157611f70611a82565b5b6000611f7f85828601611b68565b9250506020611f9085828601611f45565b9150509250929050565b600060208284031215611fb057611faf611a82565b5b6000611fbe84828501611b68565b91505092915050565b600073ffffffffffffffffffffffffffffffffffffffff82169050919050565b6000611ff282611fc7565b9050919050565b61200281611fe7565b82525050565b7f4e487b7100000000000000000000000000000000000000000000000000000000600052602160045260246000fd5b6003811061204857612047612008565b5b50565b600081905061205982612037565b919050565b60006120698261204b565b9050919050565b6120798161205e565b82525050565b600060e082019050612094600083018a611ff9565b6120a16020830189611f0b565b6120ae6040830188611f0b565b6120bb6060830187611f0b565b6120c86080830186612070565b6120d560a0830185611b1d565b6120e260c0830184611f0b565b98975050505050505050565b6120f781611fe7565b811461210257600080fd5b50565b600081359050612114816120ee565b92915050565b61212381611b11565b811461212e57600080fd5b50565b6000813590506121408161211a565b92915050565b6000806040838503121561215d5761215c611a82565b5b600061216b85828601612105565b925050602061217c85828601612131565b9150509250929050565b6000819050919050565b61219981612186565b81146121a457600080fd5b50565b6000813590506121b681612190565b92915050565b6000602082840312156121d2576121d1611a82565b5b60006121e0848285016121a7565b91505092915050565b6121f281612186565b82525050565b600060208201905061220d60008301846121e9565b92915050565b6000806040838503121561222a57612229611a82565b5b6000612238858286016121a7565b925050602061224985828601612105565b9150509250929050565b600081519050919050565b600082825260208201905092915050565b6000819050602082019050919050565b600081519050919050565b600082825260208201905092915050565b60005b838110156122b957808201518184015260208101905061229e565b60008484015250505050565b60006122d08261227f565b6122da818561228a565b93506122ea81856020860161229b565b6122f381611b82565b840191505092915050565b61230781611b47565b82525050565b61231681611b11565b82525050565b6000606083016000830151848203600086015261233982826122c5565b915050602083015161234e60208601826122fe565b506040830151612361604086018261230d565b508091505092915050565b6000612378838361231c565b905092915050565b6000602082019050919050565b600061239882612253565b6123a2818561225e565b9350836020820285016123b48561226f565b8060005b858110156123f057848403895281516123d1858261236c565b94506123dc83612380565b925060208a019950506001810190506123b8565b50829750879550505050505092915050565b6000602082019050818103600083015261241c818461238d565b905092915050565b6000806040838503121561243b5761243a611a82565b5b600061244985828601611b68565b925050602061245a85828601612105565b9150509250929050565b60006020820190506124796000830184612070565b92915050565b6000806040838503121561249657612495611a82565b5b60006124a485828601612105565b92505060206124b585828601611b68565b9150509250929050565b60006020820190506124d46000830184611ff9565b92915050565b6000602082840312156124f0576124ef611a82565b5b60006124fe84828501612105565b91505092915050565b600082825260208201905092915050565b7f4e6f742076657269666965642063726561746f72000000000000000000000000600082015250565b600061254e601483612507565b915061255982612518565b602082019050919050565b6000602082019050818103600083015261257d81612541565b9050919050565b7f4d696c6573746f6e6520617272617973206d69736d6174636800000000000000600082015250565b60006125ba601983612507565b91506125c582612584565b602082019050919050565b600060208201905081810360008301526125e9816125ad565b9050919050565b7f4e487b7100000000000000000000000000000000000000000000000000000000600052601160045260246000fd5b600061262a82611b47565b91507fffffffffffffffffffffffffffffffffffffffffffffffffffffffffffffffff820361265c5761265b6125f0565b5b600182019050919050565b600061267282611b47565b915061267d83611b47565b9250828201905080821115612695576126946125f0565b5b92915050565b7f4e487b7100000000000000000000000000000000000000000000000000000000600052603260045260246000fd5b7f4e487b7100000000000000000000000000000000000000000000000000000000600052602260045260246000fd5b6000600282049050600182168061271157607f821691505b602082108103612724576127236126ca565b5b50919050565b60008190508160005260206000209050919050565b60006020601f8301049050919050565b600082821b905092915050565b60006008830261278c7fffffffffffffffffffffffffffffffffffffffffffffffffffffffffffffffff8261274f565b612796868361274f565b95508019841693508086168417925050509392505050565b6000819050919050565b60006127d36127ce6127c984611b47565b6127ae565b611b47565b9050919050565b6000819050919050565b6127ed836127b8565b6128016127f9826127da565b84845461275c565b825550505050565b600090565b612816612809565b6128218184846127e4565b505050565b5b818110156128455761283a60008261280e565b600181019050612827565b5050565b601f82111561288a5761285b8161272a565b6128648461273f565b81016020851015612873578190505b61288761287f8561273f565b830182612826565b50505b505050565b600082821c905092915050565b60006128ad6000198460080261288f565b1980831691505092915050565b60006128c6838361289c565b9150826002028217905092915050565b6128df8261227f565b67ffffffffffffffff8111156128f8576128f7611b93565b5b61290282546126f9565b61290d828285612849565b600060209050601f831160018114612940576000841561292e578287015190505b61293885826128ba565b8655506129a0565b601f19841661294e8661272a565b60005b8281101561297657848901518255600182019150602085019450602081019050612951565b86831015612993578489015161298f601f89168261289c565b8355505b6001600288020188555050505b505050505050565b60006129b38261227f565b6129bd8185612507565b93506129cd81856020860161229b565b6129d681611b82565b840191505092915050565b600060408201905081810360008301526129fb81856129a8565b9050612a0a6020830184611f0b565b9392505050565b6000604082019050612a266000830185611f0b565b612a336020830184611f0b565b9392505050565b7f4f6e6c792063726561746f722063616e20776974686472617700000000000000600082015250565b6000612a70601983612507565b9150612a7b82612a3a565b602082019050919050565b60006020820190508181036000830152612a9f81612a63565b9050919050565b7f43616d706169676e206e6f7420617070726f7665640000000000000000000000600082015250565b6000612adc601583612507565b9150612ae782612aa6565b602082019050919050565b60006020820190508181036000830152612b0b81612acf565b9050919050565b7f5769746864726177616c73207061757365640000000000000000000000000000600082015250565b6000612b48601283612507565b9150612b5382612b12565b602082019050919050565b60006020820190508181036000830152612b7781612b3b565b9050919050565b7f4e6f7468696e6720746f20776974686472617700000000000000000000000000600082015250565b6000612bb4601383612507565b9150612bbf82612b7e565b602082019050919050565b60006020820190508181036000830152612be381612ba7565b9050919050565b6000612bf582611b47565b9150612c0083611b47565b9250828203905081811115612c1857612c176125f0565b5b92915050565b7f4e6f7420617574686f72697a656420746f20766f746500000000000000000000600082015250565b6000612c54601683612507565b9150612c5f82612c1e565b602082019050919050565b60006020820190508181036000830152612c8381612c47565b9050919050565b7f416c726561647920766f74656400000000000000000000000000000000000000600082015250565b6000612cc0600d83612507565b9150612ccb82612c8a565b602082019050919050565b60006020820190508181036000830152612cef81612cb3565b9050919050565b6000604082019050612d0b6000830185611ff9565b612d1860208301846121e9565b939250505056fea26469706673582212204053ded12d5fd8e5ee77053496fe999a33d13c56c808c3fa0bb26c6a9f8b68c364736f6c634300081c0033",
  "linkReferences": {},
  "deployedLinkReferences": {}
}